:020000040800F2
:1000000000000110819206082D1C0008011702084B
:10001000219306082193060821930608000000009A
:10002000000000000000000000000000F13800089F
:10003000F538000800000000F938000825B3000872
:1000400021930608219306082193060821930608A8
:1000500021930608219306089D930008A1930008A8
:1000600021930608A5930008A993000849210008D8
:100070005D210008712100088521000899210008F0
:10008000AD210008C121000821930608219306082C
:10009000219306082193060821930608AD930008D2
:1000A000F51F00081D20000845200008E11F00087A
:1000B0006D20000881200008952000082193060883
:1000C0002193060821930608219306082193060828
:1000D00021930608311C00083D1C0008491C00083B
:1000E000B193000821930608FD380008D1200008CC
:1000F000F920000821210008BD200008D5210008B2
:100100002193060821930608A920000821930608D8
:10011000551C0008611C000821930608219306085D
:10012000E9210008F9210008092200081922000825
:100130002922000821930608219306082193060826
:1001400021930608219306082193060851390008D7
:100150003D22000851220008652200086D1C00089D
:100160002193060821930608219306082193060887
:100170002193060821930608219306082193060877
:080180002193060821930608F3
:10019000D0E907239A422FBFD01AC0688018C01A2E
:1001A000704700BFD0E9092300699A4238BF12188E
:1001B000D31A0138C01A7047D0E90902101AB0FAF0
:1001C00080F04009704700BF0246036A4069D16869
:1001D000C05C01338B4228BF00231362704700BF0D
:1001E000436A8269D154436A0169426B01338B428D
:1001F00028BF00234362D36843F08003D360704775
:10020000436B188810F0100002D01A889B880120D8
:10021000704700BF436B99891A88890610B5044658
:100220000AD592B2900607D5E26A002A29D09888AA
:10023000216B80B29047636B99891A88090692B244
:100240000FD510060DD5D4E909128A4214D0A16940
:100250002069895C99800132B2FBF0F100FB112228
:10026000A262998A1A88C90592B204D5D20744BFFE
:100270004FF6F7721A8010BDDA6822F08002DA6059
:10028000EFE79B88E2696169DBB28B54E269E16860
:10029000636B0132B2FBF1F001FB1022E261CBE7AC
:1002A000704700BF036942681F2B10B40AD9546815
:1002B000A3F1200C202101FA0CF1214207D15DF8B5
:1002C000044B70471468202199402142F7D081697E
:1002D0000024C8680C7480684C68016821F0010132
:1002E0000160206894F805C00C4C818934F81C40EA
:1002F00089B221EA04011F2B818107D9A3F12001D2
:1003000020238B405DF8044BD3607047202101FA15
:1003100003F35DF8044B9360704700BF0CF60608CA
:1003200082B00922274B8DF80720DA68D00319D450
:10033000DA68D10640D4DA68D20541D4DA6812F01E
:10034000E00F3BD1DB6813F0020F14BF0823092331
:100350008DF807309DF80730012B0AD09DF8070073
:1003600002B0704701238DF807309DF80730012B4C
:10037000F4D1144A12E0D368DB0519D4D36813F022
:10038000E00F17D1D36813F0020F14BF082309231D
:100390008DF807309DF80730012BDFD1D168C803F5
:1003A0004FF00103F4D4D368D906E4D50623EFE770
:1003B0000223EDE70723EBE70623D4E70723D2E781
:1003C0000223D0E7003C0240704700BF704700BFE7
:1003D00001207047044BD3E90003984288BF03F51E
:1003E0000063181A704700BF50200020054AD2E968
:1003F00000318B42FDD0D1180133C3F30A03087AD0
:100400001360704750200020064BD3F8080800B94D
:100410007047D3F80808A0F10500B0FA80F0400951
:10042000704700BF50200020012380F849307047FA
:10043000064BD3F80C08D3F81028431E90428CBF0B
:10044000002001209B1A03EBC020704750200020A1
:1004500010B5D0F8E83504461B699847032384F8A3
:100460001231002010BD00BF08B5042290F812110F
:10047000D0F8E83580F8131180F81221DB6898472E
:10048000002008BD08B5D0F8E435DB6903B1984712
:10049000002008BD08B5D0F8E4351B6A9847002055
:1004A00008BD00BF08B5D0F8E4355B6A9847002066
:1004B00008BD00BF10B5074C2068FF2808D00649CA
:1004C000D1F8142801F6180100F03AF8FF23236050
:1004D000002010BD000000205020002043230148D0
:1004E0000B80704704000020122301480B807047E6
:1004F00048000020042301480B8070475C00002066
:10050000704700BF704700BF704700BF704700BF13
:10051000704700BF704700BF044B00200522C3F89E
:100520000828C3F82008C3F824087047502000208A
:10053000024B0020C3F80808704700BF502000207D
:10054000212838B50C4605D022282DD0202813D0DC
:10055000002038BD0029FBD0072AF9D1194BD3F868
:10056000280893F82C1893F82D2893F82E3820603B
:1005700021716271A371EBE70029E9D0072AE7D165
:10058000104DD5F8243813B1096800209847206829
:1005900021796279A379C5F8280885F82C1885F89F
:1005A0002D2885F82E38D3E70029D1D0022ACFD1C3
:1005B000044BD3F82038002BCAD009880020984774
:1005C000C6E700BF5020002010B4144CD4E900232B
:1005D0009A4286BF03F5006CACEB02029A1A0A44F9
:1005E000B2F5006F13D8B1B101444A1E013810F8BA
:1005F00001CFE118824203F1010381F808C0C3F37F
:100600000A03F4D1636000205DF8044B70470220B8
:100610005DF8044B70470846F6E700BF5020002005
:10062000704700BF704700BFD0ED007AD0ED036A7D
:1006300030EE677AE6EE877AB0EE670AC0ED007AB0
:10064000704700BFD0ED017AF5EE407AF1EE10FA76
:1006500009D1DFED0E7A60EEA70AB7EE007AC7EE99
:10066000207AC0ED017A31EE277AD0ED007A80ED64
:10067000021AC1EE076A30EE677AC0ED036AE6EE51
:10068000877AB0EE670AC0ED007A7047DB0FC94089
:1006900090ED017AD0ED036AD0ED027A30EE470A90
:1006A000A6EE807A90ED000A80ED017A37EE676A57
:1006B000E6EE867A37EEC07AC0ED027AA6EE870AB9
:1006C00080ED000A704700BFD0ED056AD0ED017AD9
:1006D00090ED007A90ED066AD0ED025A90ED035A43
:1006E00080ED050A66EEA77AC0ED066AE7EE007AAD
:1006F00090ED077AE5EE867A90ED086AD0ED045A1F
:1007000080ED087AE5EE477AE5EEC67AB0EE670A44
:10071000C0ED077A704700BFD0ED057A90ED006A12
:1007200090ED037AD0ED025AE6EE007AF0EE406AE0
:10073000B0EE670A90ED016AD0ED047A27EE407AB8
:1007400067EEC07AA6EE267AE5EEA67A90ED066A06
:10075000C0ED067A36EE077A80ED057A704700BF65
:1007600003685A1C02601970704700BF03685A1C66
:1007700002601970704700BF024BD3F8300803685D
:100780001B68184750200020007970470079C0F39B
:100790004010704700794009704700BF90F83C2036
:1007A000034602F0FF0012B1002283F83C2070479C
:1007B0004FF4006383817047074B10B403F11001BD
:1007C000002453F8042B824208BF43F8044C8B42A8
:1007D000F7D15DF8044B7047842800202DE9F04FD5
:1007E000634D85B0B5F85238D5F84408B5F850884F
:1007F00001911B02B5F84C18B5F84E68B5F854488D
:10080000C01A67EB07074FEA014EA8FB001CB5F8BA
:100810004A3808FB07CCC90941EA4C6111EB0E01CB
:1008200093464FEAC332A6FB003E06FB07EE4FEAB3
:10083000132343EA0E634FEAEC1C4CF1000C9B18A7
:10084000A4FB002604FB07644FEAD25242EA44228A
:100850004FEA2E2E4FEAE4544EF1000E12F5FA69DB
:1008600044F10006B9F5FA6F029476F1000403969C
:1008700031DA029CA2FB02A602FB04F806EB480454
:100880004FEA84084FEA8A0616EB0A0648EA9A7885
:1008900044EB08084FEA560A4AEAC87AB608354CCB
:1008A000B1EB0A0146EA88766CEB680C9B1B039E51
:1008B0006EEBA80EA1454FF0FF3476EB040427DB66
:1008C00000FB07F7A0FB000202EB4707C00F40EA5E
:1008D0004700B9EB0009019C8CB1D5F85808A0FB82
:1008E000033200FB0E2E5B0D43EACE235B1A4FEA68
:1008F0006E5E6EEB0C0CDB0B43EA4C432360BBF1EA
:10090000000F01D0CBF80090012005B0BDE8F08FBA
:1009100040F6AC56029C921944F1000402FB04F428
:10092000A2FB028202EB4404E6004FEAC802B8EBE5
:10093000020246EA587664EB060651184CEB060CA8
:1009400018EB080644EB040A16EB080644EB0A0A07
:100950004FEA8A0A4AEA967AB600B6EB08026AEBD0
:100960000404520842EAC4729B1A6EEB640EA7E7B5
:100970005020002024FAFFFF01207047114B10B4D3
:10098000D3F85C08D3F86048001BFA280FD811B1DF
:10099000D3F86808086032B1D3F86C385DF8044BBE
:1009A00013600120704701205DF8044B7047064931
:1009B0005DF8044B0A68002022F0040283F8640802
:1009C0000A60704750200020000000102DE9F84315
:1009D00046697EB9D0F80080C8F30D0904460F4679
:1009E000B9F1000F26D03F68FFF79AFC092804D020
:1009F0006FF001063046BDE8F8834A4D2B6923F4B9
:100A000040732B612B6943F400732B612B6943F016
:100A100001032B61C8F80070FFF782FC2B690928DD
:100A200023F001032B61E3D12368043323603046B4
:100A3000BDE8F8833C4B98452AD303F5804398459D
:100A400024D303F58043984554D3384B984554D963
:100A500003F58033984553D903F50033984552D9AF
:100A600003F50033984551D903F5003398453ED935
:100A700003F5003398454CD903F5802398454BD9AD
:100A8000B8F1016F4BD305200AF0B0FF4FF0080911
:100A9000FFF746FC092804D04FF0FF363046BDE88A
:100AA000F883204D2B6923F440732B612B6943F4A9
:100AB00000732B612B6923F0F8032B612B6943EA48
:100AC000090343F002032B612B6943F480332B614C
:100AD000FFF726FC2B6923F002032B612B69092801
:100AE00023F0F8032B61D7D1D4F800807BE74FF0D7
:100AF0003809CDE74FF01009CAE74FF01809C7E7EA
:100B00004FF02009C4E74FF02809C1E74FF0300942
:100B1000BEE74FF04009BBE74FF04809B8E74FF098
:100B20005809B5E7003C024000400008FFFF0008FC
:100B30002DE9F0410446D0E90030134483421DD82A
:100B40008E188E4217D00D4604F10C08002701E0E4
:100B5000AE4210D023695A1C2261234415F8010BC0
:100B60001873042AF4D141462046FFF72FFFAE4206
:100B7000C4E90470EED16069BDE8F0814FF0FF3048
:100B8000FAE700BF2DE9F041204E96F87038002BAF
:100B9000FBD1B9B3014400F1FF384F1ED6F810184D
:100BA000D6F80C3818F8010F4A1CC2F30A029A4210
:100BB00034BF002401249B1A314403EBC423012BCE
:100BC00081F87408C6F810281AD10AF0F7FB044619
:100BD0000D460AF0F3FB031B61EB0501B3F57A7FC9
:100BE00071F10003F5D3D6F80C38D6F810289342EB
:100BF0008CBF002101219B1A03EBC123012BE4D000
:100C0000B845CBD10020BDE8F08100BF50200020C6
:100C100010B50A4CD4F8083803B910BDD4F8083818
:100C2000052BFAD1002A0846D4F85C381146F4DDC9
:100C3000FFF7A8FFD4F85C3810BD00BF502000209B
:100C400090F84820531C0244DBB280F8483082F808
:100C5000341090F849200AB1132B03D9002280F8F0
:100C6000482003B9704710B5084CD4F8082802B9D9
:100C700010BDD4F80828052AFAD119463430D4F822
:100C80005C38FFF77FFFD4F85C3810BD502000209F
:100C900090F848100023A0F8483001B9704710B50B
:100CA000084CD4F808381BB1D4F80838052B00D00C
:100CB00010BD3430D4F85C38FFF764FFD4F85C38EA
:100CC00010BD00BF502000202DE9F0475D4E1F46AB
:100CD00006EB80039C68002C00F0AD8004F13E031D
:100CE000A36104F59F73E3614FF48073C4E9043397
:100CF0002836236866600546E16094F83D00A363EA
:100D0000904608F081FB814694F8440294F83CA098
:100D1000261D00284FD194F8450268BBD4F8403214
:100D200083BB390734D418F0020F60D118F0010FDB
:100D300044D194F9472294F84712D4F84832002A53
:100D400010DB41481B018418DBB284F800335209E0
:100D5000012301F01F0103FA01F140F8221030468F
:100D6000BDE8F087394A01F00F010A441B01DBB2EC
:100D700013763046BDE8F08764F080FED4F8403248
:100D8000002BCED0324A116B0B4339071363CAD5FF
:100D90000135EDB2B9F1000FCBD040F20673FA067F
:100DA00089F80850A9F8063036D4BB0694F84622D4
:100DB00045D4322133E064F061FEACE7504608F0E0
:100DC00023FB0135EDB20028B3D040F20662057274
:100DD000C28094F84622022108F03EFB94F9472293
:100DE00094F84712D4F84832002AAADABAE76B1C02
:100DF000DBB2B9F1000F99D089F8083040F2065300
:100E0000A9F8063094F846224846022108F024FB4F
:100E100018F0010F8DD0D1E794F846220221484600
:100E200008F01AFB94F9472294F84712D4F8483294
:100E3000002A86DA96E726463046BDE8F08712217A
:100E4000EDE700BF0CF6060800E100E0FCEC00E076
:100E5000003802402DE9F047038A8489A4B21C407F
:100E600082B045D0814688464FF0004501F14C07DD
:100E700001F13406B4FA84F325FA03F2D24391B2B5
:100E8000A9F8101014401B3BB8F1000F5DD0042BE3
:100E90002CD8DFE803F050463B300300D8F80C3084
:100EA000D9F82CA033B19B6823B11FFA8AF108F15D
:100EB00004009847D8F8243033B19B6823B11FFA57
:100EC0008AF108F11C009847D8F83C302BB19B6898
:100ED0001BB11FFA8AF130469847D8F854302BB12D
:100EE0009B681BB11FFA8AF138469847002CC1D184
:100EF00002B0BDE8F087D8F80C30D9F834105B6840
:100F000008F104009847002CB4D1F1E7D8F8243058
:100F1000D9F838105B6808F11C009847002CA9D15B
:100F2000E6E7D8F83C30D9F83C105B683046984783
:100F3000002C9FD1DCE7D8F85430D9F840105B681A
:100F400038469847002C95D1D2E7042B07D8DFE824
:100F500003F00319140F0A00D9F840300193019BE4
:100F6000002C87D1C4E7D9F82C300193019BF7E717
:100F7000D9F834300193019BF2E7D9F83830019366
:100F8000019BEDE7D9F83C300193019BE8E700BFF6
:100F900038B5284C94F87028012A034603D0022A59
:100FA00009D0002038BD244951F8842CA2B984F816
:100FB0007028002038BD002540F20112C0E95455C8
:100FC000C0E95655A0F8442100F5A27166F076FDFF
:100FD00084F87058002038BD402AD4F80C0819D97C
:100FE000403A41F8842C40228118C4F80C1880B291
:100FF000124940F2011401440020C3E95411C3E92D
:101000005620A3F84441184603F5A27166F056FD38
:10101000002038BD4FF0000541F8845C02EB000170
:10102000C4F80C1808BF022180B208BF84F87018F9
:10103000DEE700BF5020002048310020C4280020F7
:1010400001EB810138B500EBC1010E4DB1F88C13F5
:1010500004462846FFF7B8FAE378C4F8A8534021BD
:101060000022C4E9EC12012293422046A4F89C23FA
:1010700004F5677108BFC4F8AC5366F01FFD00208B
:1010800038BD00BFC830002038B52A4B53F8402C7B
:101090000F2A04D0511C43F8401C002038BD264ABA
:1010A00092F87058002143F8401C002DF5D1D2F879
:1010B0000C18D2F81048B1F5006F30D0A14235D0ED
:1010C00002F6740594BF641AC1F5006415FA81F53F
:1010D000402C19D82144C2F80C184FF0000143F8F5
:1010E000841C0CBF0223012382F8703840F20112E5
:1010F0000023C0E95455C0E95643A0F8442100F547
:10110000A27166F0DBFCC8E7403C43F8844C4031F8
:101110000123C2F80C1882F870384024E6E7C2F8C0
:101120000C581CB1294602F67405D1E7002382F859
:101130007038B2E7483100205020002070B590F898
:10114000CF2590F8D13590F8CE5590F8D0C590F8CD
:10115000CC1590F8CD6505EB02250CEB032C90F82F
:10116000D32590F8D23503EB0223012284B080F816
:10117000112101F01F029BB2ADB21FFA8CFC012AB3
:1011800004468DF80810ADF80A50ADF80CC0ADF863
:101190000E30C0F840318DF809600AD0022A57D0CD
:1011A000002A3CD001F0800164F002FC002004B071
:1011B00070BD90F81231032B2BD15FFA8CFCBCF17F
:1011C000010F26D8D0F8E43502A99B689847BDF8EE
:1011D0000E30002BEAD1C4E94A33C4E94C33042170
:1011E0004FF4807284F81111A4F81C2104F58E715B
:1011F000204666F0F5FB636DC44A1A61E278012A65
:10120000D4D104F2CC545C614FF0802219681A608A
:10121000CCE7204664F094FB002004B070BD092E9A
:10122000F7D801A252F826F0D3120008E313000801
:10123000131200081D140008131200084B140008B4
:10124000F712000813120008611300089113000838
:1012500001F0600120295FFA8CF334D0012E00F0F8
:101260006181032E00F09581002E9FD190F812210C
:10127000022A00F01B81032ACBD11CF0800F40F022
:10128000A48103EB830300EBC30393F87633002BB5
:1012900000F0A6819E4B012243F82C2C9D4A02238C
:1012A000C4E94E334FF48070002184F81131A4F862
:1012B0001C01C4E94C31C4E94A2204F58E71204670
:1012C00066F08EFB72E7D0F8E43502A99B68984778
:1012D0006CE790F81231023B012B9AD88C4BD0F876
:1012E0001821002143F8341C12B1022243F8342C97
:1012F000894A0223D4E72E0A022EADF8063000F008
:10130000CD81032E00F09181012E82D1D0F8EC35F1
:1013100080781B680DF106019847BDF80630002B58
:101320003FF444AFBDF80E20002A3FF43FAF934294
:1013300028BF13464FF480720221A4F81C2100221A
:10134000C4E94A0084F81111C4E94E33C4E94C32AF
:1013500004F58E712046ADF8063066F041FB25E7B6
:10136000012B7FF456AF90F81221022A00F0498138
:10137000032A7FF44EAF4FF4807100F5887202208B
:10138000A4F81C11C4E94E3384F81101002190E740
:10139000EDB25F4E012D06F83C5C3FF63AAF90F897
:1013A0001231022B00F02181032B7FF432AF002D8C
:1013B00000F07F8190F81011012910D0D0F8E435A9
:1013C0005B68984716F83C1CD4F8E43584F8101193
:1013D0001B6820469847D4F8E8359B689847002357
:1013E000F9E690F81231023B012B3FF612AF012DC6
:1013F0007FF4DCAED0F8E43500259B68C0F81851C6
:1014000002A9984704224FF48073C4E94A55C4E9FD
:101410004C5584F81121A4F81C31E7E6012D00F0A9
:10142000CC80022D7FF4C2AE5FFA8CF3002B7FF4E8
:10143000BDAE02694FEA1C23023B5268032B00F247
:101440005681DFE803F05B426B5F5CEA03037FF4E5
:10145000E0AE90F81221032A3FF4DBAE016905F0FB
:101460007F0680F8146108681A4665F30A12024381
:101470000A604FF480720421C4E94A33C4E94C3352
:1014800084F81111A4F81C2104F58E71204666F031
:10149000A7FA636D1D4A1A61E278012A0DD0002E69
:1014A00000F01281022384F812317FE65A063FF4DD
:1014B0007DAE194664F07CFA78E604F2CC525A61AB
:1014C0004FF0802219681A60E9E7032363F30612DC
:1014D00001210F4D84F816110421002384F8111105
:1014E0004FF48071A4F81C11C4E94A33C4E94C33A9
:1014F00004F58E71204645F8302C7AE6022363F31A
:101500000612E5E7052363F30612E1E71800086019
:10151000483100201C31002014310020042363F3E3
:101520000612D5E790F81221022ABFD0032A7FF4D1
:1015300070AE002D7FF43AAE13F07F023FF44FAF50
:101540001CF0800F40F0C48003EB830100EBC1016D
:1015500081F8742381F8765381F87553282101FBB3
:10156000030300EB820293F87713506D03688A1E21
:10157000012A6FF35553D4F8E4258CBFC3F30071EF
:10158000012161F31C739268036002A92046904711
:1015900025E790F81221022A88D0032A7FF439AE79
:1015A00025B9590602D0194664F002FAD4F8E43598
:1015B00002A99B682046984711E7D0F8E43502A9B4
:1015C0009B68C0F81851984709E703F07F0303EBC5
:1015D000830300EBC30393F81E31002B7FF45AAE54
:1015E000454B002243F82C2C58E6002D3FF40AAF5F
:1015F00001210322D0F8E43580F8101180F812217F
:10160000E6E63E4984F811214FF480700022C4E9D7
:101610004A11A4F81C01C4E94E33C4E94C3204F564
:101620008E71204666F0DCF9C0E5EDB2052D3FF67F
:10163000F0ADDFE805F02B231B130B03D0F8EC35DE
:1016400080789B690DF10601984766E6D0F8EC3585
:1016500080785B690DF1060198475EE6D0F8EC35BD
:1016600080781B690DF10601984756E6D0F8EC35F5
:101670008078DB680DF1060198474EE6D0F8EC352E
:1016800080789B680DF10601984746E6D0F8EC3566
:1016900080785B680DF1060198473EE6D0F8E435A6
:1016A00080789B6A0DF1060198474670C4F8F005F2
:1016B00033E60222D0F8E43580F8122180F8105188
:1016C0005B68294698479DE6012384F812316DE551
:1016D000282303FB020181F81C2100EB820281F820
:1016E0001E5181F81D61906991F81F113EE7012399
:1016F00063F30612ECE600BF4831002010310020F1
:1017000010B5044629B990F81121032A0DD0002004
:1017100010BDD0F8E4359B69002BF8D090F8122169
:10172000032AF4D19847002010BDD0F890230B462F
:10173000D0F87C138A4213D9C078521A0128C4F811
:10174000902336D08A4228BF0A4692B2C4E9E223E7
:1017500004F55D71A4F87433204666F041F9D6E7CC
:10176000D0F8E4351B691BB190F81221032A1ED072
:1017700000234FF480720421C4E94A33C4E94C3396
:1017800084F81111A4F81C2104F58E71204666F02E
:1017900027F9636D104A1A61E278012AB7D104F281
:1017A000CC545C614FF0802219681A60AFE798470B
:1017B000DEE78A42D4F88003A4F8743328BF0A46CF
:1017C000084492B2C4E9E22304F55D71C4F88003D1
:1017D000C4F88403C0E700BF1800086038B50446A9
:1017E00049B990F81131022B11D094F81631012B20
:1017F00040D0002038BDD0F8E4355B69002BF8D02C
:1018000090F81221032AF4D19847002038BDD0F86F
:101810003831D0F82421934236D9C178012908BF44
:10182000D0F82811A3EB020318BFD0F82821C0F884
:10183000383108BF52189BB24FF480710025C0E9BF
:101840004C35A0F81C11C0E94A2200F58E7166F0F3
:10185000C7F8E378C4F88053012BC4E9E255A4F833
:10186000745308BFC4F8845304F55D71204666F0D4
:10187000B7F8BAE72A4B226953F8301C51600023AD
:1018800084F81631002038BDD0F83C31B3FBF2F5B6
:1018900002FB1535ADB99A4213D8D0F840219342D6
:1018A0000FD24FF48073A0F81C31C0E94A55C0E94B
:1018B0004C5500F58E7166F093F8E378C4F840510A
:1018C000C8E7D4F8E435DB681BB194F81221032A89
:1018D00023D0E2780023012A4FF0050108BFC4F8A5
:1018E0008433C4E9E23384F81111C4F88033A4F8D6
:1018F000743304F55D71204666F072F8636D094A31
:101900001A61E278012A7FF470AF04F2CC525A6176
:101910004FF0802219681A6067E720469847D8E799
:101920004831002018000860F8B50B7813F0600605
:101930000D46044620D0202E25D1CE884EB31B065E
:1019400049D5384F687832463946FEF7F9FDEB88BD
:101950000222002684F811214FF48072C4E94E332C
:10196000C4E94A77C4E94C36A4F81C2104F58E7109
:10197000204666F035F80AE04B780A2B17D00B2B7F
:101980000ED0062B03D1204663F0DAFF0226304644
:10199000F8BD022248781144FEF7D2FD3046F8BD6A
:1019A0008B78002B3AD1204B43F8286CEFE70222CA
:1019B00080F811214FF48072A0F81C211B4A0123EA
:1019C000C0E94E33C0E94A22C0E94C3600F58E71B9
:1019D00066F006F8DBE7164B164A4978116003F605
:1019E00018020321C0E9E46680F81111C0F8886389
:1019F000C0F88023C078C3F8146801284FF00003B2
:101A0000C4F88C33A4F8743304F55D7108BFC4F8CE
:101A10008423204665F0E4FF0026B8E763F090FFDA
:101A2000B5E700BF682800204831002020310020A1
:101A3000502000200000002070B5002540260446FC
:101A400000F55D71A0F87453C0F87C6380F877539B
:101A500066F0FEF84FF4807304F58E71A4F81C3123
:101A60002046C4F8246184F81F51A4F8225166F07E
:101A7000EFF8D4F8E835A078012284F812215B68E9
:101A80009847284670BD00BF2DE9F843044602255B
:101A900001264FF0400840F201130027A0F844311E
:101AA000C0F84C8180F84751A0F84A6180F848712D
:101AB00000F5A27104F5677966F0CAF84946204638
:101AC000A4F89C63C4F8A48384F89F5384F8A0739B
:101AD00066F0BEF84FF48173A4F86C310823C4F8A3
:101AE0007431032384F86F31204604F5B671A4F8ED
:101AF000725166F0ADF80D4BA3F84C50FEF70CFD9B
:101B0000E2780B4BC4F8B083B2422046C4F8B473F9
:101B1000A4F89C63C4F8A83308BFC4F8AC334946A2
:101B200065F0CCFF0020BDE8F88300BF0000002076
:101B3000C830002038B50122044640F20113A0F855
:101B400044310125114666F06BF8294620460022F3
:101B5000A4F89C5366F064F84FF481732046A4F80F
:101B60006C312A46022166F05BF8FEF7E1FC0020AA
:101B700038BD00BF08B5024863F0B4FE014808BD97
:101B8000A89107082431002008B5024863F0AAFE96
:101B9000014808BDB09107082431002008B502486B
:101BA00063F0A0FE014808BDB89107082431002069
:101BB00008B5024863F096FE014808BDC4910708C5
:101BC0002431002008B5024863F08CFE014808BDAE
:101BD000D0910708243100201049114BD1F88820FA
:101BE00042F4700210B4C1F888201A680D4C00202D
:101BF00042F001021A6098601A6822F0847222F49E
:101C000080321A605C601A68074C22F480221A60E5
:101C1000D8608C605DF8044B704700BF00ED00E0B9
:101C2000003802401030002400000008704700BF58
:101C30000148FEF7EFBA00BF640000200148FEF73C
:101C4000E9BA00BFB00200200148FEF7E3BA00BFC6
:101C5000FC0400200148FEF7DDBA00BF4807002061
:101C60000148FEF7D7BA00BF940900200148FEF7EB
:101C7000D1BA00BFE00B0020704700BF30B40C4C5D
:101C80000022234604E001320A2A03F114030CD097
:101C900093F804C08445F6D1DD68294201D10029BA
:101CA000F1D1142000FB024000E0002030BC70475E
:101CB000280E002038B5D0E9004307EE902A1B68B3
:101CC000354A20680139934204688DB216D002F576
:101CD0008062934212D002F5705293420ED002F508
:101CE000806293420AD002F58062934206D02B4B69
:101CF000D3F8F03E5B0807EE103A04E0274B03F5FB
:101D00006F6393ED007ADFED266AB8EE477AF8EE5E
:101D1000677A87EE270A30EE260A67F0A3FC1E4A90
:101D200023880138944280B29BB212D002F58062BF
:101D300094420ED0B4F1804F0BD0A2F58032944281
:101D400007D002F58062944203D002F5806294428B
:101D500002D123F070039BB2124A944212D002F5D2
:101D6000806294420ED023F4407302F56C429BB221
:101D700094422380E56220850AD100232386012333
:101D8000A38238BD2380E56220850123A38238BD6C
:101D9000054B9C42F1D0F8E7000001400000002014
:101DA0000AD7233C001000400004014070B5406891
:101DB000837903F0020213F0040300F0C9804FF0AE
:101DC000000E134604247246754690F805C0BCF117
:101DD000030F30D8DFE80CF08E5F30020368188CF8
:101DE00020F480500004000C1884188C9C8820F487
:101DF000005000042A43000C40EA0232988B6C4DDC
:101E000020F4E6400004000CAB42A4B240F4C04011
:101E100000F0B08005F58065AB4200F0AB809C809F
:101E2000988319641A849A8B22F400621204120CAB
:101E300042F400629A8370BD2A4305685C4E288C88
:101E400020F480700004000C2884288CB5F804C0AD
:101E500020F400700004000C40EA0222A88B20F05D
:101E600073000004000CB5421FFA8CFC40F06000C7
:101E700073D006F58066B5426FD0A5F804C0A8837C
:101E8000E9632A84AB8B23F008031B041B0C43F08B
:101E90000803AB8370BD2A430568454E288C20F0AB
:101EA00010000004000C2884288CB5F804C020F031
:101EB00020000004000C40EA0212288B20F4E640C7
:101EC0000004000CB5421FFA8CFC40F4C04061D005
:101ED00006F58066B5425DD0A5F804C02883A963E5
:101EE0002A842B8B23F400631B041B0C43F4006334
:101EF0002B8370BD00682E4E2A43058C25F001050A
:101F00002D042D0C0584058CB0F804C025F00205C5
:101F10002D042D0C2A43058B25F073052D042D0C63
:101F2000B0421FFA8CFC45F0600528D006F58066AB
:101F3000B04224D0A0F804C0058341630284038B1F
:101F400023F008031B041B0C43F00803038370BD3C
:101F50004FF4807E1C46012537E722F4006242EAF6
:101F6000032222F480622CF4405C42EA04224CEA10
:101F70000E1C82E724F4804444EA8E144FE74FF6A7
:101F8000F37616402CF4407C46EA03024EEA0C0C31
:101F90002243CFE722F0800242EA031222F04002FD
:101FA0002CF4406C42EA04124CEA8E0C94E700BF19
:101FB0000000014042685379032B0FD8DFE803F09B
:101FC0000B08050210684030704710683C307047BD
:101FD0001068383070471068343070470020704700
:101FE000024B0348D3F8DC10FEF734BF4831002021
:101FF0000000014010B5064C0648D4F8DC10FEF78E
:1020000029FFD4F8FC100448BDE81040FEF722BFB9
:1020100048310020000001400040014010B5064C4E
:102020000648D4F8DC10FEF715FFD4F80011044878
:10203000BDE81040FEF70EBF48310020000001400F
:102040000044014010B5064C0648D4F8DC10FEF7F9
:1020500001FFD4F804110448BDE81040FEF7FABEB1
:10206000483100200000014000480140034B4FF080
:102070008040D3F8E010FEF7EDBE00BF48310020ED
:10208000024B0348D3F8E410FEF7E4BE48310020C9
:1020900000040040024B0348D3F8E810FEF7DABE14
:1020A0004831002000080040024B0348D3F8EC10F0
:1020B000FEF7D0BE48310020000C0040024B034820
:1020C000D3F8F810FEF7C6BE4831002000040140E6
:1020D00010B5064C0648D4F8F810FEF7BBFED4F84D
:1020E00008110448BDE81040FEF7B4BE4831002096
:1020F000000401400018004010B5064C0648D4F812
:10210000F810FEF7A7FED4F80C110448BDE8104003
:10211000FEF7A0BE4831002000040140001C004032
:1021200010B5064C0648D4F8F810FEF793FED4F824
:1021300010110448BDE81040FEF78CBE4831002065
:1021400000040140002000400348D0F8003F13B1D4
:1021500000F6F46018477047000000200348D0F8EC
:10216000203F13B100F6147018477047000000209C
:102170000348D0F8403F13B100F634701847704759
:10218000000000200348D0F8603F13B100F65470FF
:1021900018477047000000200348D0F8803F13B173
:1021A00000F6747018477047000000200348D0F80C
:1021B000A03F13B100F6947018477047000000204C
:1021C0000348D0F8C03F13B100F6B4701847704709
:1021D000000000200348D0F8E03F13B100F6D470AF
:1021E0001847704700000020024803680BB10C3804
:1021F00018477047001000200248036A0BB11430E2
:1022000018477047001000200248036C0BB13430AF
:1022100018477047001000200248036E0BB154307D
:1022200018477047001000200348D0F880300BB1E9
:1022300074301847704700BF001000200348D0F8E2
:10224000A0300BB194301847704700BF0010002039
:102250000348D0F8C0300BB1B4301847704700BF06
:10226000001000200348D0F8E0300BB1D4301847FC
:10227000704700BF0010002002683649002310B4E8
:1022800022F00102212488420260036043608360DF
:10229000C3600361446138D02F4B98422ED02F4B3E
:1022A00098423CD02E4B984240D02E4B984232D090
:1022B0002D4B984241D02D4B984246D02C4B984202
:1022C00017D02C4B98423CD02B4B984216D02B4B1E
:1022D000984224D02A4B984228D02A4B98421AD0B0
:1022E000294B984229D0294B98422ED0284B98420E
:1022F00008D14FF03D5243F8AC2C03E04FF4746228
:1023000043F8202C5DF8044B7047224B5DF8044BDA
:102310003D229A607047204A43F8642CF2E74FF45C
:1023200074125DF8044B43F8382C70474FF0746218
:102330005DF8044B43F8502C7047184A43F87C2C46
:10234000E0E73D2243F8082CDCE7154A43F8942CDB
:10235000D8E700BF106002402860024040600240A1
:10236000586002407060024088600240A0600240F5
:10237000B860024010640240286402404064024099
:10238000586402407064024088640240A0640240C5
:10239000B8640240006002403D000020400F002071
:1023A00000003D2000222DE9F04713460D684FF054
:1023B000010E032604E00133102B02F1020239D092
:1023C0000EFA03FC3CEA0504F5D1076806FA02F4AC
:1023D00027EA040707600F79D0F800A007FA02F98E
:1023E000013F49EA0A09012FA046C0F800906FEAB0
:1023F000040411D887683C4084604C798768944015
:102400003C438460446824EA0C0444608C79476847
:102410009C40A4B23C434460C46824EA0804C460FD
:10242000CC79C768944001333C43102BC46002F15F
:102430000202C5D1BDE8F0872DE9F0412348244FC1
:10244000244E254C82B0382200216CF0BFF80025C4
:1024500057F825103246002301E054F8332091420A
:102460002ED001330E2BF8D10020053563F006FB8A
:10247000322DEDD1DFF85880184F08F1C8054FF024
:10248000007698F8040006F0BFFF08F1140804462F
:1024900088B1036803F13F4303F57E0307EB932301
:1024A00093F8C80063F0EAFAA388019620680093C5
:1024B0006946FFF777FFA845E3D102B0BDE8F08198
:1024C000064A02EBC30393F85C00CEE724320020F7
:1024D000280E00200000014064F606080CF60608ED
:1024E000224A936803F00C03042B10B421D0082B6C
:1024F00022D01F4B03601D4C1E4AA168C1F303117B
:10250000114411F8041CCB404360A168C1F382213F
:10251000114411F8041C23FA01F18160A1685DF8EF
:10252000044BC1F342310A4412F8042CD340C36077
:102530007047114B0360DEE75368516813F4800F56
:1025400001F03F01536814BF0B4A094AB2FBF1F195
:10255000064A5268C2F30142C3F38813013201FBF9
:1025600003F35200B3FBF2F30360C4E70038024008
:102570000024F400F810002000127A0070B5446BBB
:102580008668A38923F400531B041B0CA381827962
:102590000546407912F0040F14BF4FF4805C4FF0F1
:1025A000000C110310F0010F4FEA02220CBF0023B0
:1025B000042302F48062800748BF43F0080342EA24
:1025C0000C021343228A92B201F4005122F44052C9
:1025D0000A432282A28922F4B05222F00C02120491
:1025E000120C1A43A281A38A23F440731B041B0C10
:1025F00084B0A3826846FFF773FF2F4B9C4205D03F
:1026000003F580639C4201D0029A00E0039AA389FB
:102610002A491B0402EB82024CBF7300B30002EB99
:102620008202B2FBF3F3A1FB0302A08952096426E4
:10263000000406FB12334FEA021228D41B01323386
:10264000A1FB0313C3F3431313439BB223816A79A2
:102650006B6BA879960702F00101174A48BF41F059
:10266000020193421BD001079A8A0AD592B242F026
:1026700008029A829A8992B242F400529A8104B076
:1026800070BD22F008021204120C9A82F2E7DB00FD
:102690003233A1FB0313C3F342131343D5E7CD0732
:1026A000E1D5074AD2F8B812B2F8BC22C4074CBF31
:1026B0000A834A83D7E700BF001001401F85EB5112
:1026C000483100202DE9F843394C9DF820509DF801
:1026D0002490A0420F4690461E4649D0354B984262
:1026E0004ED0354B984253D0344B98422BD0344B7C
:1026F000984255D0334B984221D14B462A46314619
:102700000520FEF7E1FA04460023C4E90B78C4E98A
:102710000733C4E909336571A66084F80690204642
:10272000FFF72CFFEA07616B1AD4AB0713D48B8930
:102730009BB243F400538B812046BDE8F88300240C
:102740002046BDE8F8834B462A4631460320FEF773
:10275000BBFA0446D8E7CB6843F08003CB60E6E7DA
:102760004FF6DF730B80CB6843F02003CB60DCE7D0
:102770004B462A4631460020FEF7A6FA0446C3E738
:102780004B462A4631460120FEF79EFA0446BBE737
:102790004B462A4631460220FEF796FA0446B3E736
:1027A0004B462A4631460420FEF78EFA0446ABE734
:1027B000001001400044004000480040004C004030
:1027C00000500040001401408160D7E64171D5E619
:1027D0002DE9F043DFF8108208EBC00985B005460B
:1027E000C70099F8100006F00FFE044699F8110092
:1027F00006F00AFE064699F8120063F03FF96B1CDA
:10280000DBB2002C00F0AB8040F60C122372E280A9
:10281000002E00F0C180337240F60C232046F38076
:1028200004223A2106F018FE042230463A2106F02E
:1028300013FE08EB0703614ADC68944200F09780BE
:102840005F4B9C4200F09D805E4B9C4200F0AA8052
:102850004744FA7C022A5CD0032A7ED05A4B5B4E56
:10286000012A18BF1E46A7886846FFF739FE27F0E1
:102870003F07029B564AB3FBF6F63F04A2FB032335
:102880003F0C47EA9347A780228822F001021204F6
:10289000120C2280B2B2C6F30B069B0C002E59D04C
:1028A0004FF4967101FB03F34A49A1FB03139B0903
:1028B00001339BB242F400422384A2832388464A18
:1028C0009BB243F001032380238823F4816323F028
:1028D00002031B041B0C4FF4804143F480632380EC
:1028E0002181238823F080031B041B0C2380238871
:1028F0009BB202EB451243F0010323800121002328
:1029000082F8185482F8191482F81A3405B0BDE818
:10291000F083A6886846FFF7E3FD26F03F06029A9B
:102920002B4B3604A3FB0213360C46EA9346A680D3
:10293000218821F001010904090C21809B0C274901
:10294000013392092384A1FB02329209042A38BF81
:102950000422B2E742F00102A2E7214E83E7002EF3
:102960003FF467AF337240F60C23F3805CE71D4BF6
:102970001A6A42F400121A621A6A22F400121A62E7
:1029800066E703F5F0331A6A42F480021A621A6AA3
:1029900022F480021A625BE7042220463A2106F004
:1029A0005BFD46E703F5EE331A6A42F400021A6251
:1029B0001A6A22F400021A624AE700BF005400407B
:1029C00000580040005C0040804F1200009F24002F
:1029D00083DE1B43D34D621048310020632D3E053A
:1029E000C027090000380240F81000202DE9F04708
:1029F000954D90F900108046807805EBC1060138AE
:102A0000CC0090B0F16814282ED8DFE810F0540103
:102A10002701150057006100A200AA00CA01BC01ED
:102A20007D00870044020C02DF01C500D5003000A4
:102A30003800A9019B015C01888A0C8B81B2834814
:102A400041EA044130EA010100F02781D8E902108F
:102A5000521A42F2107163EB00038A4273F10003D1
:102A600002D3152388F8023010B0BDE8F08798F83B
:102A700013000882C8E90223122088F80200888A1D
:102A80000C8B80B240EA0440714C34EA000000F044
:102A9000B68000200E900F9001200F910E900E999D
:102AA000002900F01D820F9914310F910F990968C8
:102AB0004905CBD5142388F80230D5E798F81100E2
:102AC00000F0FE000882C8E90223052088F8020011
:102AD000888A0C8B80B240EA04405E4C34EA0000E5
:102AE00000F0A4800020009001900120019100904E
:102AF0000099002900F00082019914310191019997
:102B000009684F05D6D4A1E798F8110040F00100FC
:102B10000882C8E902230B2088F80200888A0C8BFF
:102B200080B240EA04404C4C34EA00006FD00020F0
:102B3000049005900120059104900499002900F06B
:102B4000D581059914310591059909684D05B1D4D0
:102B50007CE798F813000882C8E90223072088F868
:102B60000200888A0C8B80B240EA0440384C34EA78
:102B700000005FD00020029003900120039102909A
:102B80000299002900F0C48103991431039103993B
:102B900009684E058ED459E7088820F48060000447
:102BA000000C088098F8110000F0FE000882C8E9C7
:102BB0000223102088F80200888A0C8B80B240EA39
:102BC0000440244C34EA000012D000200C900D90F8
:102BD00001200D910C900C99002900F093810D9922
:102BE00014310D910D99096848053FF563AF2DE744
:102BF00098F81330FF2B06D198F810301BB113232F
:102C000088F8023030E7112388F802302CE7D8F832
:102C10001400012800F09281022800F048820E2062
:102C2000098B88F80200C8E902231DE7062388F80B
:102C3000023019E7D8F81400002800F06F8108234B
:102C400088F8023010E700BFF810002001000300F0
:102C5000840007008200070002000300088820F4B7
:102C600000600004000C0880088880B240F4806096
:102C70000880088880B240F480700880032088F8BB
:102C80000200888A0C8B81B2AA4841EA0441C8E953
:102C9000022330EA01037FF4E7AE98F81230002BEC
:102CA00040F0D18198F81330FF2B00F044820423C8
:102CB00088F80230D8E6098889053FF5C7AE0023B9
:102CC00088F80230D0E62C44207C06F09DFB0646B6
:102CD000607C06F099FB984AB2F8783401339BB2D5
:102CE0008246A2F8783416B13368B2881A83BAF1F2
:102CF000000F04D0DAF80030BAF804201A8311214A
:102D0000304606F057FB1121504606F053FB4FF0BA
:102D1000090965272EB13368B28819690A4240F063
:102D20002881013F00F0228108F048FB04460D464F
:102D300008F044FB001B61EB0501052871F100035D
:102D4000F6D3E7E7088880B240F4007008804FF6B9
:102D5000FF3088820121C8E9022388F8021083E647
:102D6000D8F81400002800F07281D8F8184014F840
:102D7000016B0E8201381225C8E90504C8E9022357
:102D800088F8025070E6888A0C8B81B2694841EA63
:102D9000044130EA01017FF459AE0A2388F8023079
:102DA00062E6088880B240F480700880092088F8C4
:102DB0000200888A0C8B81B25E4841EA0441C8E96E
:102DC000022330EA01037FF44FAEE6E70024012539
:102DD0000A940B940B910A950A98002800F04A81F6
:102DE0000B9814300B900B98006846077FF52EAEB9
:102DF000D8F81400032800F07281022800F24681FE
:102E0000088820F480600004000C0880088880B2E4
:102E100040F400700880098A88F81C40C8E9022341
:102E200088F8025020E600200124089009900991BA
:102E300008940898002800F0178109981430099028
:102E40000998006847077FF501AEEFF31185102060
:102E500080F31288088880B240F400700880D8F8A7
:102E600018000E8A471CC8F81870EDB2067085F37A
:102E700011880D8AD8F818106FF001004E1CC8F8A0
:102E800018600D70C8E90223C8F8140088F81C40C7
:102E900088F80240E8E5002006900790012007919D
:102EA0000690069C002C00F0EB80079C14340794DD
:102EB000079C246864067FF5C9AD0C8AD8F8181001
:102EC0004D1CC8F818500C70D8F8141088F81C0065
:102ED0000139C8E90223C8F8141088F80200C3E5D4
:102EE0000F9918310F910F990968AFE505991831BD
:102EF000059105990968A9E5019918310191019990
:102F00000968A3E50D9918310D910D9909689DE5A2
:102F10000399183103910399096897E5088880B2ED
:102F200040F4007008800121C8E9022388F80210EB
:102F30009AE500BF0100030048310020088820F412
:102F400080600004000C0880EFF31184102080F3EF
:102F50001288088B088880B240F40070E4B20880C0
:102F600084F311880C2188F802105CE616B13368EE
:102F7000B2885A8308F022FA04460D4608F01EFA79
:102F8000031B61EB0501052B71F10003F6D316B1AC
:102F90003368B2881A8308F011FA04460D4608F027
:102FA0000DFA031B61EB0501052B71F10003F6D34C
:102FB000B9F101097FF4ADAE16B13368B2885A8316
:102FC00008F0FCF904460D4608F0F8F9031B61EB24
:102FD0000501052B71F10003F6D3BAF1000F04D0FF
:102FE000DAF80030BAF804205A8308F0E7F904460A
:102FF0000D4608F0E3F9031B61EB0501052B71F1A8
:103000000003F6D316B13368B2881A8308F0D6F9F4
:1030100004460D4608F0D2F9031B61EB0502052BAF
:1030200072F10003F6D3BAF1000F04D0DAF80030E1
:10303000BAF804201A8398F90000441C3FF43FAE0C
:10304000FFF7C6FB3BE60F2388F802300CE5088843
:1030500080B240F4007008800121C8E9022388F89A
:103060001C1088F80210FFE4099918310991099998
:103070000968EBE40B9918310B910B990968E5E4A9
:1030800007991831079107990968DFE4D8F8180003
:10309000098A441CC8F818400170D8F81410C8F800
:1030A00008200139C8F81410C8F80C30DCE408888E
:1030B00080B240F400600880EFF31184102080F3A8
:1030C0001288088B088820F480600004000CE4B2A9
:1030D000088084F311880D2188F80210A3E5088880
:1030E00020F480600004000C0880EFF311841020AD
:1030F00080F31288D8F818000D8A461CC8F81860AA
:103100000570088880B240F40070E4B2088084F34F
:103110001188D8F81800098A441CC8F818400170B2
:10312000D8F814100C200239C8E90223C8F814108A
:1031300088F8020098E498F81030002B3FF4B7ADFF
:103140002BE600BF38B5184D9DF814E005EB401490
:103150004FEA401C94F8190400B938BD490084F8BE
:103160002B24C4F82C3484F829140023049984F8FF
:1031700028E4022205F5836584F82A34C4F8301463
:1031800084F8343484F81A24654408F017F90246A8
:103190000B462846FFF72AFC94F81A34002BF4D18A
:1031A00094F8340438BD00BF4831002038B5184DBC
:1031B0009DF814E005EB40144FEA401C94F8190404
:1031C00000B938BD84F82B24C4F82C340122002324
:1031D000490005F5836584F82A2484F83434049A78
:1031E00084F828E4022384F82914C4F8302484F8ED
:1031F0001A34654408F0E2F802460B462846FFF709
:10320000F5FB94F81A34002BF4D194F8340438BD4B
:1032100048310020F0B587B00023834A0093019322
:10322000136843F48033136003E0009BB3F5A04FB1
:1032300009D0136803F400330193009B013300931A
:10324000019B002BF1D0784B1B6813F4003318BF9F
:1032500001230193019B012B01D000BFFDE7724BBD
:1032600072491A6C724842F080521A640A6842F439
:1032700040420A609A689A609A6842F400429A60F2
:103280009A6842F4A0529A6058601A6842F08072BC
:103290001A601A689201FCD5664A40F20571116005
:1032A000996821F003019960996841F00201A2F543
:1032B00080629960936803F00C03082BFAD193683D
:1032C00003F00C03042B00F08D80082B00F08F809E
:1032D000594D5A4BC5F8F03E534B59499868D5F8AB
:1032E000F02E584CC0F303100144574891F82410B5
:1032F000CA405649C5F8F02EE160554A596FA260A0
:10330000596B544A21F080015963596F41F0807123
:103310005967196B0A431A635A6B5A639A6B9A631B
:103320001A6C4D490A431A64596C4C4A0A435A6450
:1033300002A948F2FF73002602934FF6FF77039627
:10334000FFF730F800F580600297FFF72BF800F5E3
:1033500080600297FFF726F800F58060FFF722F8FB
:1033600000F58060FFF71EF800F58060FFF71AF89F
:1033700000F58060FFF716F800F58060FFF712F89F
:1033800000F58060FFF70EF80846FFF7A9F8D4F8BB
:10339000FC30029A3249334843F08073C4F8FC3061
:1033A000314BC3F8B01F5E60196841F0010119602C
:1033B000D5F8F03E4FF47A71B3FBF1F3013BB3F172
:1033C000807F2A49B2FBF1F2C0F87C2408D24FF08A
:1033D000E022F0215361072384F8231096611361E2
:1033E00007B0F0BD144D224BC5F8F03E74E75368AA
:1033F0005168114D13F4800F01F03F01536814BF61
:103400001B4A0E4AB2FBF1F1074A5268C2F301426D
:10341000C3F38813013201FB03F35200B3FBF2F351
:10342000C5F8F03E58E700BF003802400070004089
:1034300008544007003C0240000000200024F40033
:10344000F810002000ED00E0000002400003FA0543
:1034500000000008FF916700FFC9FE103357070006
:1034600055CEACC548310020001000E040420F00AE
:1034700000127A002DE9F04F1C2085B005F0C4FF42
:103480001121044605F096FF002C00F019822368F4
:10349000A2885A83C82007F0BFFF2368A2881A8336
:1034A0001B2005F0B1FF20B140F20F120023C280B3
:1034B000037240F20F220023E2802372AA4B5021B4
:1034C000082283F84313C3F88820BFF34F8FBFF35C
:1034D0006F8FA64DA6482B6BA64CA74EA74FDFF8C3
:1034E000CCA2DFF8CC92DFF8CC8243F001032B634F
:1034F0004FF4C05240F2023302A9CDE90223FEF795
:1035000051FF436A9E49DFF8B0E2DFF8B0C223F40E
:1035100070434362436A43F420434362436A23F4A3
:1035200070234362436A43F4202343626B6C43F489
:1035300080436B646B6BC4F8641A012201F12C00A8
:1035400043F0800348316B637261C4F86C1A8D4993
:10355000C4F8680A8C48C4F88004C4F890148B48F6
:10356000C4F8840401F580718948C4F898142031A6
:10357000C4F89C142031C4F8D404C4F8A01420303A
:103580002031C4F8D804C4F8A4142030A1F5AC61EB
:103590000225C4F8DC04C4F89414203040314FF004
:1035A000A04B84F88854C4F8E004C4F84C1584F89F
:1035B0008B24C4F88CB4C4F810A5C4F82475203743
:1035C000C4F828752037C4F82C7507F52267C4F8AD
:1035D000507507F580576F4DC4F8547501F51C619F
:1035E00007F580576C4E6D48C4F85875002307F5F1
:1035F0008057C4F86855C4F88C1504F590654FF0F1
:103600005021C4F86465C4F86C05C4F86015C4F8AA
:103610001495C4F81885C4F81CE5C4F820C5C4F88E
:103620005C7584F8922584F894352946184640261E
:1036300081F81C31A1F822310133042BC1E9496022
:1036400081F81D2181F81F01C1F8300101F1280125
:10365000EED100222B461146402083F87423A3F8B4
:103660007A230132042AC3E9DF0183F8751383F852
:103670007713C3F8881303F12803EED14FF0A0436A
:1036800000269A6822F001029A60DA6842F040024D
:10369000DA6062F091FA94F88924D4F88C34921BA1
:1036A00018BF0122120142F0210262F317469E6305
:1036B00094F88364012E07D19A6822F03E0141F00C
:1036C0002A0161F307029A60DA68D4F88C75D4F89D
:1036D0009004C2F3076121F0600141F0400161F301
:1036E0001F620021DA603960026861F3CC22026057
:1036F00094F88B24012A12D10268294F294942F0FB
:10370000030202604FF0800C4FF4A072C3F824C093
:103710009F62C3F80411C3F80821C3F80C210022EA
:103720000292029A42F020020292029A102161F360
:103730008A120292029A1A611A6902921A4A03E0E4
:1037400019690291013A02D002998F06F8D4002239
:103750000192019A42F010020192019A1A611A69CB
:103760000192114A30E000BF00E100E00038024061
:103770000000024048310020003C0140A0050050FC
:103780002C110020000800500804010040004001F6
:10379000000B00500070005000600050008000508E
:1037A00080004000C0008000400D03000005005074
:1037B0002005005040050050600500508005005075
:1037C00019690191013A02D00199C906F8D494F817
:1037D00081244FF0000C4FF0FF31C0F810C0C0F84A
:1037E00014C08161C0F81CC06AB305F1140E3B49D6
:1037F0000EEB820E4FEA82094FF0FF0851F8042FBA
:103800001768002FACBF00274FF090477145176035
:10381000C2F810C0C2F80880F0D1503530494D448C
:103820004FF0000E4FF0FF0C51F8042F1768002FD7
:10383000ACBF00274FF09047A9421760C2F810E0D4
:10384000C2F808C0F0D10269012E42F48072026110
:1038500028D000229A6196426FF080414FF0FF32EB
:10386000204859615A60596114BF002210229861A2
:1038700042F47012996942F4605242F008020A431D
:103880009A619A68D4F8681A42F0010209689A604D
:103890008847154B5021082283F843139A6005B0DE
:1038A000BDE8F08F114A02636FF080414FF0FF30A6
:1038B00000229A61596158600A4859619861D7E7B6
:1038C000C82007F0A9FD1B2005F09EFD00283FF44D
:1038D000F5AD40F20F13C3800472EFE5DC35002034
:1038E000183600200008008000E100E0030181009C
:1038F000704700BF704700BF704700BF10B5124C43
:1039000094F88A3423B9114B4FF480225A6110BDC8
:103910004FF0E022D2F8103D23F00603C2F8103D2C
:10392000FEF75AF994F88A34002BECD0D4F890348E
:103930009B68DB07E7D5D4F88C25136823F00301D7
:1039400061F307031360DEE748310020003C0140CB
:103950002DE9F04FB34CD4F88C345A69D2078BB0B0
:1039600002D50BB0BDE8F08F5A699B6912EA0309D2
:10397000F7D0C9F3074319F4002F009340F0E28019
:10398000009B590743D419F0020F5FFA89F603D060
:10399000D4F88C3402225A61B9F1000FC0F2EE81E2
:1039A00019F4006FC9F3072540F04A81330708D5A1
:1039B0009D4B9E48D3F8A4309847D4F88C34082205
:1039C0005A61F70600F1C481EE0600F16F81A90685
:1039D00000F1E980009BDA0609D5934B9348D3F8B0
:1039E000B4309847D4F88C344FF480125A61009B5D
:1039F0009B06B6D58C4B8D48D3F8B8309847D4F891
:103A00008C344FF400125A610BB0BDE8F08FD4F83B
:103A100090249369D26913401FFA83FABAF1000F18
:103A2000B1D0DFF81882CDF80C900023A8F118056A
:103A30001F461AF0010F78D0FEB2D4F8902404EBA0
:103A400086031069D3F89814536B8968F340DB013F
:103A5000DBB203430B4013F00109D9B240F0AA8155
:103A60000A0740F1C781D8F80020082393609946DF
:103A700019F0800F59D0D5E94CC0D5F82431D8F8C9
:103A800000E0ACEB00018B42DEF8182028BF0B46AB
:103A900092B20333B2EB930F47D9D4F8902494F841
:103AA0008394323604EB8603CDE901786746984665
:103AB0009446874237D9D5F82431391A994228BF1C
:103AC000194601F1030BD5F828314FEA9B0BB9F1E8
:103AD000000F10D18AB203329210D8F888640AD04D
:103AE0004846013053F8047B37608242F9D1D5E96A
:103AF0004C70D5F8283108440B44B842C5F8283139
:103B0000C5F83401DEF818300AD195F81C110122ED
:103B100002FA01F1DCF8342022EA0102CCF8342068
:103B20009BB29B45C5D3DDE901785FEA5A0A07F1EC
:103B3000010708F1040805F128057FF47AAFDDF8E4
:103B40000C9020E7D4F890349D69DB691D402D0C62
:103B50003FF416AF04F59068DFF8CCB004F2D44619
:103B60000027C24608E06D0807F1010706F10406C8
:103B700008F128083FF404AFEB07F4D5F9B204EBE1
:103B80008103D4F89024D3F8D4349B68526913404D
:103B9000D807DAB200F13E81930740F166813368BD
:103BA00002229A60DFE7D4F89034D4F898149A6827
:103BB0000868C2F34102022A06BF032262F30A0028
:103BC0006FF30A0008605A6842F480725A6006A8CF
:103BD000FEF786FCD4F88C24D4F89014D368079DA3
:103BE0006FF38D23D36088681149C0F3410001440D
:103BF00091F8D010032900F05E810E490E4801268D
:103C0000294484F8826481424FF04006A4F8846419
:103C100000F2AB810E2161F38D234FF40051D3608C
:103C20005161D7E648310020F8100020C835002047
:103C30000CF60608401E1BFF3F420F00E035002037
:103C400000238DF8133094F892358DF81330B64B6D
:103C5000B648D3F8AC309847D4F89034D4F88C24D4
:103C6000986894F88A344FF400615161002B3FF456
:103C70009DAEC2077FF59AAE94F89535012B7FF47F
:103C800095AE9DF81330032B7FF490AED4F88C35AD
:103C9000A7491A6842F001021A601A6842F003024A
:103CA0001A600B6943F006030B617FE6D4F8906459
:103CB000D4F88C147368002723F001037360059710
:103CC000059B43F020030593059B67F38A13059337
:103CD000059B0B610B690593BC46964B03E00A6993
:103CE0000592013B02D0059A9006F8D494F88124FD
:103CF00052B1914B03EB820EFF2253F8040F826006
:103D0000D86B73458260F8D10B2363F3070763F325
:103D1000070C4FF0FF33B3614FF00113F36177618C
:103D2000C6F810C0336885486FF30A13336094F8FF
:103D30008324D4F8D434012A186100F0B5804FF4FC
:103D400080534B61784B7948D3F8A83098473EE6CA
:103D5000D4F88C349A6922F010029A611A6AC2F37C
:103D60004340022802F00F0100F0B080062800F066
:103D700087809A6942F010029A6125E694F88A34A5
:103D80003BB1D4F88C25136823F0030161F30703DA
:103D90001360D4F89024644B6448D3F8B01053688F
:103DA00023F0010353608847D4F88C344FF000426D
:103DB0005A61F5E5516BD8F800005B4B4FF0010CF0
:103DC0000CFA07FC21EA0C0151630122D3F89C3064
:103DD000826031465548984794F88334012B00F0AF
:103DE000B18019F0020F3FF443AED8F80030022240
:103DF0009A609AE6CB0604D5D8F8003010229A6073
:103E000093E6480658BF8946EBD5D8F800304022E3
:103E10009A608AE694F8832433680120824298608D
:103E200007D11A69D8F87C33C2F312029B1AC8F87A
:103E30008C33DBF898305046984794F88334012B44
:103E40007FF491AE002F7FF48EAE94F89135052B60
:103E50007FF489AED4F8D434384A1A61384A5A61AA
:103E60001A684FF080221A607DE610077FF57BAE5E
:103E7000DBF8A03050469847336808229A6072E613
:103E800001EB810104EBC101D4F85065D1F80C08B5
:103E9000C2F30A1202443068C4F84C0A3068C4F80D
:103EA000500AC1F80C2864E7254A5A611A684FF095
:103EB00080221A6043E7002184F882144FF40071D5
:103EC000A4F88414092161F38D23A6E647F6F07067
:103ED00010423FF44EAFC2F30A1201EB810004EB33
:103EE000C00002F1030C5FEAAC0CD0F80068D4F813
:103EF00050E54FEA810818BF002006D00130DEF8F7
:103F0000007046F8047B8445F8D1414404EBC101BC
:103F1000D1F800081044C1F80008D1F80C08024498
:103F2000C1F80C2825E700BFF8100020C835002094
:103F300000ED00E0400D0300DC35002018000860B3
:103F4000943B0020002F7FF44CAF94F89135042B64
:103F50007FF447AFD4F8D4342B4A1A612B4A5A6104
:103F60001A684FF080221A603BE72948A5F57401D2
:103F7000A1F51051814203D80D2161F38D234CE648
:103F8000244925482944814203D20C2161F38D2321
:103F900043E62248A5F18C71A1F54341814203D843
:103FA0000B2161F38D2338E61D491E4829448142C7
:103FB00003D20A2161F38D232FE61B491B482944B4
:103FC000814203D2092161F38D2326E61848A5F129
:103FD000B771A1F55851814203D2082161F38D23B5
:103FE0001BE6144914482944814203D2072161F396
:103FF0008D2312E6114912482944814234BF06211B
:10400000052161F38D2308E618000860943B002029
:10401000DFC810002013FBFE20D61300FF69180034
:1040200000D3CEFE40771B00C05BB3FEC0912100E1
:1040300040AC2700C01D6AFE40E13300803C36FEE4
:10404000E09C410030B503694268494D83B00BB92B
:10405000002A65D0D0ED067AC46A013377EE807A03
:104060000361631C012BC0ED067AC36247D0D0ED1B
:10407000075A90ED097AD5F85C1807EE903A30EEC1
:10408000656AF8EEE76A8A1AC6EE267A81688A427D
:1040900077EEA57A30EE670AC0ED087AA6EE007AD0
:1040A000C0ED077A80ED0A7A80ED097A01D803B075
:1040B00030BD012B4EDD07EE904AF8EEE77A87EE31
:1040C000270AB5EEC00AF1EE10FA46DBB5EE400A5B
:1040D000F1EE10FA44D4F1EEC07AF4EE677AF1EE24
:1040E00010FA3AD690ED057AB4EEE77AF1EE10FACE
:1040F0001AD5037B33B30323037003B030BDD5F867
:104100005C388168DFED1B7A80ED080A9A1A8A42D2
:1041100080ED070AC0ED097AC9D9B0EE670ADAE77F
:10412000D5F85C28426095E7D0ED047AD0ED066AB8
:10413000F8EE677A022386EEA77A037080ED067A9E
:1041400003B030BDD5F85C18416000220361826184
:10415000C362ACE79FED070ABDE7DFED067AC1E772
:10416000019065F005FC0198F0EE407AB5E700BFDC
:10417000502000200000000070B52DED028B044699
:1041800082B000F1480503460026B1EC017AD3ED78
:10419000067ADA6A77EE877A0132012AC3ED067A67
:1041A000DA626ED093ED075A93ED096A07EE902A12
:1041B00077EE455AF8EEE77AC5EEA76A76EE857A8D
:1041C000F0EE466A37EE677AC3ED087AE5EE876A65
:1041D000C3ED077AC3ED0A6AC3ED096A1833AB422F
:1041E000D3D103693A4E426801330361D6F85C3893
:1041F0009B1A8268934240D99FED368AE36A012B6D
:104200004DDD013B07EE903A94ED0A7AF8EEE77A3D
:1042100087EE270AB5EEC00AF1EE10FA4EDBB5EED6
:10422000400AF1EE10FA4CD4F1EEC07AF4EE677A5F
:10423000F1EE10FA42D690ED057AB4EEE77AF1EE9F
:1042400010FA24D41834AC42D8D1D0ED047AD0ED91
:10425000066A90ED0C7AD0ED125AF8EE677A0223D6
:1042600086EEA76A0370C7EE276A85EEA77A80ED0F
:10427000066AC0ED0C6A80ED127A02B0BDEC028BCA
:1042800070BD83ED087A83ED077A5E62A6E7037B53
:1042900043B10323037002B0BDEC028B70BDB0EEDE
:1042A000480AC1E70022D6F85C18416003618261C8
:1042B000C362026343648264C365DEE7F0EE487A5A
:1042C000B9E7019065F054FB0198F0EE407AADE754
:1042D0005020002000000000F0EEC07AB0EEE07A3E
:1042E000B4EEE77AF1EE10FAD4BFB0EE676AB0EE42
:1042F000476AB5EE406AF1EE10FA48D0B4EEE77ABC
:10430000F1EE10FA54BFF0EE675AF0EE475AC5EEE0
:10431000866ADFED202ADFED203ADFED204A9FEDAF
:10432000205A9FED203A9FED204A9FED206AE6EE4D
:10433000A23AA6EE834AE6EEA34AF7EE005AA6EEAC
:10434000A45AE6EE845AA6EE856AB1EE466AC6EE37
:10435000256AB4EEE77AF1EE10FA48BFDFED147A81
:10436000F5EEC00A48BF77EEE66AF1EE10FA48BFF4
:10437000DFED107AB5EEC00A48BF77EEE66AF1EEDF
:1043800010FA48BFF1EE666AB0EE660A7047DFEDDC
:104390000A6ADEE739094E3DE3B59EBE88FA16BECD
:1043A00045FE7FBF99FB243F69A2163EA7DFA8B454
:1043B000DB0FC93FDB0F4940A7DFA83491ED007A3E
:1043C000D0ED047AD0ED055A90ED064AD0ED074ABB
:1043D00090ED085A90ED096AD0ED0A6AE7EE077A87
:1043E000F7EE003AC0ED047A91ED007AD1ED017A52
:1043F000E7EE275A90ED0B7AC0ED055AD1ED025A3F
:1044000091ED003AD0ED0C7AA3EE254A80ED064AF4
:10441000D1ED005A74EEA54AC0ED074AD1ED014A2C
:10442000D1ED005AA4EEA55A80ED085A91ED015A3B
:10443000A5EE056A80ED096AD1ED015A91ED026A97
:10444000E5EE866AC0ED0A6AD1ED016A37EE267A9A
:1044500080ED0B7AD1ED026A91ED007AE6EE877A73
:10446000C0ED0C7A91ED026AD1ED016AD0ED0D7AC2
:1044700090ED0E7A90ED0F4AD0ED104A90ED115A62
:10448000D0ED135AE6EE267A75EEA35AC0ED0D7AFA
:10449000D1ED026AD0ED127A90ED006AA6EEA67A0E
:1044A000D0ED016A80ED0E7A91ED027A34EE074A82
:1044B00090ED027A80ED0F4A91ED004A74EE844A45
:1044C000C0ED104AD1ED014A35EE245A80ED115A63
:1044D00091ED025AC0ED135A77EE857AC0ED127A4B
:1044E000D1ED017AD1ED005A91ED025A67EEA77A2B
:1044F000E5EEA57AE5EE057AA5EEA76A80ED006AFD
:1045000091ED016AE6EE276AC0ED016AD1ED026A1B
:10451000A6EEA77A80ED027A90ED037A77EE277AFD
:10452000C0ED037A704700BF2DE9F04F89B0CDE9A7
:10453000011200F11009834600F13008CE4607460B
:104540004E46054684460024CDF80C906246284627
:1045500084B1D2ED007A01463B468946F3EC016A0C
:1045600099ED007AE6EEC77A634501F11001C2EDDC
:10457000007AF2D10432724500F10400E8D1032C34
:1045800004F1010A30D062463046ABEB05099CB11C
:10459000D2ED047A009409EB000329460C46F3ECB3
:1045A000016A94ED007AE6EEC77A834201F11001C8
:1045B000C2ED047AF2D1009CD2ED046A16ED047AC1
:1045C000C6EE877A1032424500F11000C2ED007A43
:1045D000DDD10CF1140C08F10408043514360EF189
:1045E000100E10375446B1E7DDE9022900250023FB
:1045F0000135059306930793042D52F8043B049369
:1046000005A80BF1140418D0F2EC017A04A9C0ED4E
:10461000007A4B46B1EC017AF3EC016AE6EEC77A18
:10462000A342C0ED007AF5D10135042D09F110093E
:1046300000F1040004F11404E6D1019A08AE76ED0D
:10464000017A022510320BF14004022D2046A2F11E
:10465000040142ED017A20D02346F3EC016AB2EC6A
:10466000017AE6EEC77A9842C1ED007AF5D154EDB1
:10467000016A87EEA67A6B1C81ED007A14D076ED84
:10468000017A013D0A46022DA4F11404A0F11000A4
:10469000A2F1040142ED017ADED154ED016A87EE08
:1046A000A67A02ED017AEAE709B0BDE8F08F00BF13
:1046B00010B584B00C46024669461030FFF734FF4F
:1046C000DDED007A9DED017ADDED026AB6EE006A5D
:1046D00067EE867A27EE067A66EE866AF4EE677AE9
:1046E000F1EE10FAC4ED007A84ED017AC4ED026AAD
:1046F0000DD6B4EE477AF1EE10FA13D6F4EE666AF0
:10470000F1EE10FA78BF012016D604B010BD9FED6F
:10471000106AF0EEE77AF4EE467AF1EE10FAE8DD90
:104720000020F2E7DFED0A7AB0EEC77AB4EE677ADE
:10473000F1EE10FAE2DDF3E7DFED057AF0EEE66A7E
:10474000F4EE676AF1EE10FAD4BF01200020DCE736
:10475000FFFF7F7FDFED257AB4EEE70AF1EE10FA76
:1047600008DD9FED237A30EE470AB4EEE70AF1EE5A
:1047700010FAF8DCDFED1F7AB4EEE70AF1EE10FA7A
:1047800008D59FED1B7A30EE070AB4EEE70AF1EE8A
:1047900010FAF8D4DFED187AB4EEE70AF1EE10FA69
:1047A00018DD30EE670A37EEC00A60EE007A9FED42
:1047B000137A9FED136ADFED136AA7EE876A9FED08
:1047C000127AE7EE866A60EE275AA7EEA67AA5EE81
:1047D000870A70479FED0D7AB4EEC70AF1EE10FA22
:1047E00044BF30EE270A37EE400ADEE7DB0F4940D0
:1047F000DB0FC940DB0F49C0DB0FC93F9A7C2E3667
:10480000FAAF4FB93587083CA4AA2ABEDB0FC9BF4F
:1048100010B53E4CB4FBF2F4A1420DD300234FF08F
:104820007E52026043608360C36003610023836142
:1048300043610362C36110BD07EE902AB8EE677A48
:10484000DFED337A27EE277AB7EE006AC6EE076A05
:1048500007EE901A9FED2F7AF8EE677AB0EE405A85
:1048600067EE877AC7EEA64AFDEEE47A17EE902A45
:104870002032402A47D8B0EE640AFFF76BFFB0EE53
:10488000404A9FED250A34EE800AFDEEC07A17EE0D
:10489000902A2032402A31D8FFF75CFFF8EE006AF8
:1048A00060EE266A012B24D0F7EE007A37EEC00ABC
:1048B000F6EE005A60EE255A35EE055AB7EE007A4C
:1048C00084EE056A76EE077A37EE467A80EE275A4E
:1048D00085EEA76AC6EEA75AC7EE276A80ED006A82
:1048E00080ED015A80ED026AC0ED035AC0ED046A02
:1048F0009CE7B0EE660AF7EE005ADDE7DFED076AE7
:104900009FED070ACEE79FED064ABAE720A1070010
:10491000BD378635DB0FC940DB0FC93F0000008083
:1049200000000000DFED077A30EE270AFDEEC07AC6
:1049300017EE903A2033402B00D80BE79FED020A88
:10494000704700BFDB0FC93F0000000091ED005A27
:104950009FED520A35EE000A08B5FDEEC07A17EE5B
:10496000903A2033402B7DD8FFF7F4FEFDEEC57A58
:10497000B0EE403A17EE903A2033402B7BD8B0EEA1
:10498000450AFFF7E7FEB0EE405AF1EE402A91EDFE
:10499000014A9FED420A34EE000AFDEEC07A17EE9E
:1049A000903A2033402B74D8FFF7D4FEF0EE404A03
:1049B000B1EE402AFDEEC47A17EE903A2033402B38
:1049C00064D8B0EE440AFFF7C5FEB0EE404AD1ED20
:1049D000021A9FED320A31EE800AFDEEC07A17EE20
:1049E000903A2033402B4ED8FFF7B4FEF0EE403A19
:1049F000FDEEE17A17EE903A2033402B40D8B0EE2E
:104A0000610AFFF7A7FE63EE836A20EE037A63EE86
:104A1000857A20EE055AF0EE475AB0EE666AE7EE68
:104A2000845AA5EE446AE7EE047AA6EEC45A63EE11
:104A3000A43A62EEA42A22EE000A64EE834AC0ED94
:104A4000003A80ED010A80ED024AC0ED035A80ED84
:104A5000046AC0ED052A80ED065AC0ED077AC0ED64
:104A6000084A08BDFDEEC57A9FED0D3A17EE903A63
:104A70002033402B83D9DFED0B2A9FED095A86E7BF
:104A80009FED070ABFE7DFED063AB1E79FED044A65
:104A90009DE79FED042ADFED024A8BE7DB0FC93F5C
:104AA00000000000000000802DE9F04F83B00546B3
:104AB0009DF830400D9E0192002C14BF4FF030093C
:104AC0004FF020091C1E88464ADB16F8010B0146F0
:104AD00000286CD0002C65D04FF0000A324601E06F
:104AE000002C34D012F8013B2746013C002BF7D1B3
:104AF000BAF1000F3CD1023F002C65D0BA464545C3
:104B00000AF1FF3A4946284601D2019B9847BAF17B
:104B1000FF3FF4D10D9A107823463C1B01469B467B
:104B200088B14FF0000A01339F1B454506EB070B88
:104B3000284601D2019B984716F8011B0029F4D1A1
:104B4000BAF1000F18D1584603B0BDE8F08FBAF1A2
:104B5000000F31D0014683460028F4D02346E2E717
:104B600016F8010B634258B31C464FF0010AB5E733
:104B7000014683460028D6D1002C04F1FF36E2DD41
:104B80003446454506F1FF364946284601D2019B89
:104B90009847731CF5D10BF1010BA344584603B0A1
:104BA000BDE8F08F2346A2464FF0FF34BBE7671EF7
:104BB000A346002CA2D1C6E723464FF0FF34ADE751
:104BC000E64383463446DCE723463C46A6E700BF7F
:104BD0000FB430B583B006AB0C4853F8042BD0F8B3
:104BE000781AD0F8740A019363F0FCF8084C054673
:104BF000D4F8300803685B6998470028F8D0284645
:104C000003B0BDE8304004B0704700BF4831002019
:104C1000502000200EB410B583B005AB044653F805
:104C2000042B0749009301A8019463F0DBF8019B72
:104C300000221A7003B0BDE8104003B0704700BFF7
:104C40006D0700080CB4F0B53C4CD4F87C3AADF5D7
:104C5000277D002B4DD094F8843A994241D8384BA7
:104C6000384AD3F85C38A2FB031292094FF47A71E8
:104C700001FB123306A83449FFF7CCFF06AB03440F
:104C80003249AC9A01930646ADAB01A8009363F09C
:104C9000A9F8019BD4F87C5A0A210246581C0190BD
:104CA0001970019B591C01910021197035B32B68B3
:104CB0001B6A1BB128469847D4F87C5A9DF81810F7
:104CC00049B10DF119042B6828461B68984714F860
:104CD000011B0029F7D10DF5277DBDE8F04002B09A
:104CE0007047D4F8882A012303FA00F01042B6D1A5
:104CF000F1E7D4F8803A002BADD1ECE7D4F8807A14
:104D0000002FE8D0901926AB841CFD20CDE9045576
:104D100006A92246ADF81000184667F0B7FA02223D
:104D20000346044402A93846CDE9023432F0AAF819
:104D30000DF5277DBDE8F04002B0704748310020F6
:104D400050200020D34D6210E09107086107000851
:104D500030B54FF4004087B02FF0CEFD58B14FF47E
:104D60000041044630F07EF9022806D1226848F25C
:104D700001039A4224D007B030BD00234FF46121D3
:104D8000022294F904008DE80E001A464FF4004107
:104D900030F072F91C4BC3F87C0A0028EBD01B4A98
:104DA0001B4B1C4C1C481D490091CDE90332CDE939
:104DB00001041B4B1B4A02210020FFF743FFDAE7E7
:104DC000114C00254FF4004084F8205D5FF03CFD5D
:104DD0000028D0D0D4F88C3A83420AD0D4F8683B6B
:104DE00083420BD0D4F8443C98420AD0C4F8805A8D
:104DF000C1E704F68C23C4F8803AD0E704F66833A0
:104E0000F9E704F64443F6E7483100200492070826
:104E1000109207081C92070828920708309207088A
:104E2000B0910708EC91070838B5194CD4F8245D07
:104E3000033005EB9003B3F5007F19D820F003028F
:104E40001448C4F8243D00EB8101C3F50073D1F888
:104E5000300404F628541044C1F830040E4A04EB20
:104E600085049B0004210020FFF7ECFE204638BD9E
:104E700000210846094AFFF7E5FE094AD2F89430B6
:104E8000002443F00073C2F89430204638BD00BFC0
:104E90004831002040420020389207085C92070801
:104EA00000000010F0B5254B0268254983B0064686
:104EB000002401E051F834309A4209D001340E2C1C
:104EC000F8D100211F4A0520FFF7BCFE002113E0A6
:104ED0001D4F07EB8407D7F8DC5085B1717901EBE2
:104EE000410305EBC30300221820C3E9032200FBA2
:104EF00001559E601A75291D084603B0F0BD0721B3
:104F00006420FFF791FF0146C7F8DC0070B1294625
:104F1000642269F05BFB0A4BD7F8DC5003EBC40456
:104F2000C5E90045ED616D63ED64D7E70190074A7F
:104F30000520FFF787FE0199DEE700BF0000014072
:104F400064F606086C92070848310020949207081E
:104F500038B50568EB690446E3B1987800B938BD07
:104F60009A88D2BA07EE902AF8EEE77A0120C4EDCB
:104F7000047ADA88D2BA07EE902AF8EEE77AC4ED1E
:104F8000057A1B89DBBA07EE903AF8EEE77AC4EDB2
:104F9000067A38BD09211420FFF746FF0346E86171
:104FA000DBE700BF38B50468E3690D467BB198784C
:104FB00000B938BD5B89094ADBBA82FB0312DB17F3
:104FC000C3EB221303F26D132B80012038BD09219E
:104FD0001420FFF729FF0346E061E8E77978787845
:104FE00003681A46591C016012F8021B02605878C7
:104FF00041EA0020704700BF02681146531C03605D
:1050000011F802CB0160D31C5178036093781B0424
:1050100043EA0123111D0160D07843EA0C0343EAFF
:105020000060704712B370B50446864604E0981BD2
:1050300017D114EB0C0C15D01EF8013BA3F1410065
:10504000192811F8010BA0F1410598BF2033192D43
:10505000A2EB0E0C00F12006E9D91B1A04D100289E
:10506000E7D170BD604670BD184670BD10467047F0
:1050700010B40288C378184CA2F5FA6202F003015A
:1050800040F2B55C9208013B0CFB0233827801EBE5
:105090004101013A02EB810204EB42010279B1F8CD
:1050A000D4404179234403EB430302EBC3038479E7
:1050B0000A4A0089C3EB031301EB8303C3EB031319
:1050C000224402EB830200214FF47A73C2FB0301F6
:1050D0005DF8044B704700BF0CF6060880436D383E
:1050E0002DE9F04117461E4605464FF47A7200231B
:1050F0003846314663F0DEFE4449454A014482FBAE
:105100000143C8170B44C0EB631382FB03021A442C
:10511000D817404CC0EB621284FB02044FEAE27CD9
:105120003D48CCEBA40C80FB0C404FEAEC74C4EB84
:10513000E010C3EB0314A1EB8401A971C2EB0211CF
:10514000A3EB81036B710CEB4C03A2EBC30240F2A7
:10515000B55303FB10CCBCF5896F2A714FEA800070
:1051600045DA40F2DA239C4548DCBCF5B77FB4BF92
:1051700000220122294B02EB420103EBC1034FEA5B
:105180004208B3F8EA3091B2254C08EB020E04EB6A
:10519000CE0416344FF00B0E01E034F8023D6345A7
:1051A00020DDBEF1010EF8D11C4B424403EBC202DC
:1051B0004FF0010EB2F8D43085F802E000F5FA6045
:1051C0000CF1010C0844ACEB030C288085F803C0FB
:1051D0004FF47A7200233846314663F06BFE2A8121
:1051E000BDE8F0810EF1010E5FFA8EFEE4E70321C7
:1051F00040F296530A464FF00608C5E7022140F2F6
:1052000029430A464FF00408BEE700BF80BC92C79E
:1052100089888888ABAAAA2A73B06D160CF606088E
:10522000E0F6060830B52E4D84468E460FCD8DB083
:105230006C460FC40FCD0FC495E80F001CF0030F90
:1052400084E80F000DD1274B274A03FB0CF3B2EB88
:10525000B30F43D3254AB2EB331F2CBF1D241C24AC
:1052600000E01C240CF1FF33002B40F26D121946B4
:1052700002FB0CF2B8BF0CF1020102EBA1021C49C7
:105280001C4D019481FB0301DB17A3EB6110024469
:10529000C3EBE1131A44253285FB02301044D317C7
:1052A000C3EBA000C0EBC000ADF10403101A0DF178
:1052B000040C03EB8E0E01E05CF8044F031985FB30
:1052C0000320C218D817C0EBA200C0EBC000E6450F
:1052D000A3EB0000F0D1201A0DB030BD1D24C1E7B2
:1052E00040F70608295C8FC2285C8F020AD7A3000A
:1052F0001F85EB519324499208B50D4B53E90223C6
:1053000052EA030C09D1002340F20112428083804B
:10531000837103800381184608BD0649D1F85C18E3
:105320008A1843F10003FFF7DBFE012008BD00BF30
:10533000004700205020002088422DE9F0414FF026
:1053400001043DD301FB04F4B0FBF4FC8C45F9D21D
:105350003CB3002616E0BCF1090F274698462C46C0
:1053600023DD002A14BF4FF0370E4FF0570EF444E0
:10537000B94288F800C003F1010306F1010610D814
:10538000B0FBF5FCB4FBF1F504FB1C00002EE2D1F0
:10539000BCF1000FDFDCA1420AD90CF1300C03F89C
:1053A00001CB00221A70BDE8F0814FF0300EDEE72D
:1053B000B0FBF5FC2C4605FB1C00B5FBF1F5E7E75F
:1053C0008446C6E790422DE9F0410B460446154657
:1053D0000AD2B0FBF5F6134A05FB16441846135DD6
:1053E00000F8013BBDE8F081B0FBF2F69642B6FB57
:1053F000F2F706D20B4A05FB1767D15D03F8011BD4
:10540000EAE7BA42B7FBF2F807D9064A05FB187873
:1054100012F8081003F8011BEDE74046FFF7D2FF32
:105420000346F2E7B0920708B5EEC00ADFED347A22
:10543000F1EE10FACCBF30EE270A30EE670ADFED4E
:10544000317A20EE270A70B5FDEEC07A86B017EEED
:10545000904A054684EAE470002303A9A0EBE470B7
:10546000CDE90033029360F02DFB002CACBF20236C
:105470002D2303A88DF8003062F0F4FE01286E465B
:1054800028D0022832D003281CD003A9304669F066
:10549000EDFF304662F0E6FE0338C4B222463146E4
:1054A000284666F0F3FE00232B55284662F0DAFE0C
:1054B0002E232B5401303119284469F0F3FF28467C
:1054C00006B070BD302303A930468DF8013069F075
:1054D000CDFFDEE7302303A930468DF801308DF88B
:1054E00002308DF8033069F0C1FFD2E7302303A901
:1054F00030468DF801308DF8023069F0B7FFC8E70B
:105500006F12033A00007A440278202A034600F121
:105510000100F9D0092AF7D02D2A29D02B2A03BF60
:105520005A78B7EE000A0346B7EE000AA2F130013E
:10553000C8B20928DFED4C7A10D8F2EE046A07EE03
:10554000101AB8EEC77A13F8012FA7EEA67AA2F1C7
:105550003001C8B20928F0EE477AF0D92E2A49D096
:10556000197801F0DF01452907D020EE270A70479E
:105570005A78BFEE000A0346D8E710B459782D29AF
:1055800062D02B2954D0A1F13002092A03F1010382
:1055900055D80024002202EB820201EB420213F8EC
:1055A000011FA1F130000928A2F13002F3D9B2F5B0
:1055B0009A7F134628BF4FF49A73072A50D9DFED1C
:1055C0002B6A1A46B7EE007A083A072A27EE267A9F
:1055D000FAD803F007032BB1F2EE046A013B27EE81
:1055E000267AFBD16CB3C7EE877A5DF8044B20EEC8
:1055F000270A70475978A1F13002D0B2092803F187
:105600000103AED8F2EE046AF0EE665A07EE102AF5
:10561000B8EEC77A13F8011F87EE266AA1F13002AF
:10562000D0B2092866EEA56A77EE867AEED998E7B9
:105630009978A1F13002092A03F10203A9D9B7EE42
:10564000007A67EE877AD0E79978A1F13002092ACB
:1056500003F1020388BFB7EE007AC4D8012499E7AA
:10566000B7EE007AB7E700BF0000000020BCBE4CD8
:1056700000B50378202B014600F10100F9D0092B79
:10568000F7D02D2B03BF4B784FF0FF3E01464FF074
:10569000010E0022A3F1300C5FFA8CF3092B03D921
:1056A0000EFB02F05DF804FB02EB820211F8013FF1
:1056B0000CEB4202EEE700BFF0B5384D2B78082125
:1056C00041F221008B4002E0013993B209D013F47A
:1056D000004F4FEA4302F7D080EA430301399BB2FF
:1056E000F5D1B5F80120002A55D0DFF8C0C02C4E06
:1056F000B4452DD2ACF1060C0CEB0204B44227D217
:10570000052A41F2210022D9A44514D00CF1FF3C16
:1057100004F1FF3E1CF8011F082283EA012313F461
:10572000004F80EA43010ABF5B008BB29BB2013A93
:10573000F5D1E645EED1228862B1A11DB14206D273
:10574000A118B142A44602D2052A0C46DCD8002199
:105750000846F0BDA71C264641F2210016F8011BA1
:10576000082283EA012313F4004F80EA43010ABFB1
:105770005B008BB29BB2013AF5D1B742EED16188A2
:10578000084AC91AB1FA81F1231D49095B1BA2F825
:10579000C0340846F0BD044FBC1EDCE700000E0814
:1057A000000010084042002003000E0807000E0809
:1057B0002DE9F04F9B4B9C4A8FB09A1ACDE90132EC
:1057C00003230393984B0793029B0993019B089330
:1057D0000023CDE90A33CDE90C33944A1369002B39
:1057E000C0F2A181914B9249F322DA6000220C921F
:1057F000019A01238A428DF83430C0F08C810B93DA
:105800007E238DF8283008224FF4FC4341F2210119
:1058100003E05B00013A9BB206D01804F9D581EA97
:105820004303013A9BB2F8D1824AADF81230824B61
:10583000934280F08E8103F1140801997A4B41F272
:10584000210538F8120C38F8142CC0F30B06B41DDF
:10585000ADF81440C2F30B04120B8DF8182000278A
:105860000204ADF816408DF819705DD406338B42F2
:1058700000F251810DF114090DF11A0A4C4601E0B4
:10588000A24513D00B9B14F8011B03F138026A44A4
:105890000133042B02F8101C0B93F1D10AA907A8BD
:1058A000FBF794F8A245CDE90B70EBD10C9B002BD4
:1058B000C0F23181BDF8124019F8013B84EA03249B
:1058C000082327044CBF85EA44046400013BA4B2CA
:1058D000F7D1CA45F0D158F8101C324607A8FBF79B
:1058E00027F90028C0F2178158F8102C91198A4224
:1058F00010D0013A013912F8013F84EA0324082349
:1059000020044CBF85EA44046400013BA4B2F7D1F3
:105910009142F0D1474BADF81240984574D2DDE981
:10592000073108F114088CE7B946CDF8008009F179
:10593000010906335FFA89F98B428DF8199000F25C
:10594000EA800DF1140A0DF11A0BD046002401E093
:10595000C34513D00B9B18F8011B03F138026A44AE
:105960000133042B02F8101C0B93F1D10AA907A8EC
:10597000FBF72CF8C345CDE90B40EBD10C9B002B7A
:10598000C0F2C980BDF812401AF8013B84EA032432
:10599000082322044CBF85EA44046400013BA4B2FE
:1059A000F7D1D345F0D1009B53F8102C02EB070A36
:1059B0005146324607A8FBF7BBF80028C0F2AB807F
:1059C0000AEB06018A4511D00AF1FF32013912F8BB
:1059D000013F84EA0324082320044CBF85EA4404E1
:1059E0006400013BA4B2F7D18A42F0D1B9F1030FB0
:1059F000ADF81240374402D0DDE9073197E7DDF812
:105A000000800C4B98458AD3DDE907310233002230
:105A10009942ADF814207ED30DF115040DF1160551
:105A200016460FE00000100800000E08003C02407F
:105A300001000E08100C08084C070808A54213D0F6
:105A400014F8012B0B9B03F1380169440133042B3B
:105A500001F8102C0B93F1D10AA907A8FAF7B6FFA9
:105A6000A542CDE90B60EBD10C9B002B53DBBDF8BD
:105A70001230082241F221011C0454BF5B0081EA6C
:105A80004303013A9BB2F7D1082241F221011804E5
:105A90004CBF81EA43035B00013A9BB2F7D1ADF8FA
:105AA0001230079B089902338B4234D814460DF10B
:105AB000120505AE01E0B54213D00B9B15F8011B92
:105AC00003F138026A440133042B02F8101C0B93D3
:105AD000F1D10AA907A8FAF779FFB542CDE90B4041
