:020000040800F2
:1000000000000110057B0608A918000861D001084E
:10001000A57B0608A57B0608A57B06080000000056
:10002000000000000000000000000000D12B0008CC
:10003000D52B000800000000D92B000821B30008D0
:10004000A57B0608A57B0608A57B0608A57B0608F8
:10005000A57B0608A57B0608657F0008697F000868
:10006000A57B06086D7F0008717F0008A91E0008A7
:10007000BD1E0008D11E0008E51E0008F91E00087C
:100080000D1F0008211F0008A57B0608A57B060898
:10009000A57B0608A57B0608A57B0608757F0008DA
:1000A000551D00087D1D0008A51D0008411D000804
:1000B000CD1D0008E11D0008F51D0008A57B060800
:1000C000A57B0608A57B0608A57B0608A57B060878
:1000D000A57B0608111A0008A57B06081D1A000852
:1000E000797F0008A57B0608DD2B0008311E00087B
:1000F000591E0008811E00081D1E0008351F00083B
:10010000A57B0608A57B0608091E0008A57B060836
:10011000291A0008A57B0608A57B0608A57B06080A
:10012000491F00085D1F0008711F0008851F000897
:10013000991F0008A57B0608A57B0608A57B060875
:10014000A57B0608A57B0608A57B0608312C0008C0
:10015000AD1F0008C11F0008D51F0008351A000890
:10016000A57B0608A57B0608A57B0608A57B0608D7
:10017000A57B0608A57B0608A57B0608A57B0608C7
:08018000A57B0608A57B06081B
:10019000D0E907239A422FBFD01AC0688018C01A2E
:1001A000704700BFD0E9092300699A4238BF12188E
:1001B000D31A0138C01A7047D0E90902101AB0FAF0
:1001C00080F04009704700BF0246036A4069D16869
:1001D000C05C01338B4228BF00231362704700BF0D
:1001E000436A8269D154436A0169426B01338B428D
:1001F00028BF00234362D36843F08003D360704775
:10020000436B188810F0100002D01A889B880120D8
:10021000704700BF436B99891A88890610B5044658
:100220000AD592B2900607D5E26A002A29D09888AA
:10023000216B80B29047636B99891A88090692B244
:100240000FD510060DD5D4E909128A4214D0A16940
:100250002069895C99800132B2FBF0F100FB112228
:10026000A262998A1A88C90592B204D5D20744BFFE
:100270004FF6F7721A8010BDDA6822F08002DA6059
:10028000EFE79B88E2696169DBB28B54E269E16860
:10029000636B0132B2FBF1F001FB1022E261CBE7AC
:1002A000704700BF704700BF036942681F2B10B43E
:1002B0000AD95468A3F1200C202101FA0CF1214243
:1002C00007D15DF8044B7047146820219940214202
:1002D000F7D081690024C8680C7480684C68016894
:1002E00021F001010160206894F805C00C4C81895F
:1002F00034F81C4089B221EA04011F2B818107D9FF
:10030000A3F1200120238B405DF8044BD36070479C
:10031000202101FA03F35DF8044B9360704700BF9E
:1003200028D4060882B00922274B8DF80720DA6806
:10033000D00319D4DA68D10640D4DA68D20541D4A2
:10034000DA6812F0E00F3BD1DB6813F0020F14BF44
:10035000082309238DF807309DF80730012B0AD0B8
:100360009DF8070002B0704701238DF807309DF813
:100370000730012BF4D1144A12E0D368DB0519D4FD
:10038000D36813F0E00F17D1D36813F0020F14BF36
:10039000082309238DF807309DF80730012BDFD1A2
:1003A000D168C8034FF00103F4D4D368D906E4D56B
:1003B0000623EFE70223EDE70723EBE70623D4E765
:1003C0000723D2E70223D0E7003C0240704700BF7A
:1003D000704700BF01207047044BD3E900039842E7
:1003E00088BF03F50063181A704700BFC8170020C4
:1003F000054AD2E900318B42FDD0D1180133C3F355
:100400000A03087A13607047C8170020064BD3F818
:10041000080800B97047D3F80808A0F10500B0FA41
:1004200080F04009704700BFC8170020012380F802
:1004300049307047064BD3F80C08D3F81028431EF8
:1004400090428CBF002001209B1A03EBC020704714
:10045000C817002010B5D0F8E83504461B69984746
:10046000032384F81231002010BD00BF08B5042218
:1004700090F81211D0F8E83580F8131180F81221A5
:10048000DB689847002008BD08B5D0F8E435DB6983
:1004900003B19847002008BD08B5D0F8E4351B6AC1
:1004A0009847002008BD00BF08B5D0F8E4355B6A66
:1004B0009847002008BD00BF10B5074C2068FF28F2
:1004C00008D00649D1F8142801F6180100F03AF8CE
:1004D000FF232360002010BD00000020C81700206B
:1004E000432301480B807047040000201223014879
:1004F0000B80704748000020042301480B807047A0
:100500005C000020704700BF704700BF704700BF0D
:10051000704700BF704700BF704700BF044B00200A
:100520000522C3F80828C3F82008C3F82408704738
:10053000C8170020024B0020C3F80808704700BF0E
:10054000C8170020212838B50C4605D022282DD008
:10055000202813D0002038BD0029FBD0072AF9D16C
:10056000194BD3F8280893F82C1893F82D2893F8F2
:100570002E38206021716271A371EBE70029E9D068
:10058000072AE7D1104DD5F8243813B109680020A7
:100590009847206821796279A379C5F8280885F8F9
:1005A0002C1885F82D2885F82E38D3E70029D1D0CE
:1005B000022ACFD1044BD3F82038002BCAD00988A7
:1005C00000209847C6E700BFC817002010B4144C9D
:1005D000D4E900239A4286BF03F5006CACEB02021B
:1005E0009A1A0A44B2F5006F13D8B1B101444A1EF9
:1005F000013810F801CFE118824203F1010381F8BC
:1006000008C0C3F30A03F4D1636000205DF8044B13
:10061000704702205DF8044B70470846F6E700BFBC
:10062000C8170020704700BF704700BFD0ED007AA8
:10063000D0ED036A30EE677AE6EE877AB0EE670AAD
:10064000C0ED007A704700BFD0ED017AF5EE407A38
:10065000F1EE10FA05D19FED0C7AC7EE207AC0EDCD
:10066000017A31EE277AD0ED007A80ED021AC1EEE0
:10067000076A30EE677AC0ED036AE6EE877AB0EE7D
:10068000670AC0ED007A704783F9223E9FED047A35
:10069000C7EE007A77EEA07A80EEA70A704700BF17
:1006A00072C7D13D00230360436080ED020A7047AA
:1006B00090ED017AD0ED036AD0ED027A30EE470A70
:1006C000A6EE807A90ED000A80ED017A37EE676A37
:1006D000E6EE867A37EEC07AC0ED027AA6EE870A99
:1006E00080ED000A704700BFD0ED056AD0ED017AB9
:1006F00090ED007A90ED066AD0ED025A90ED035A23
:1007000080ED050A66EEA77AC0ED066AE7EE007A8C
:1007100090ED077AE5EE867A90ED086AD0ED045AFE
:1007200080ED087AE5EE477AE5EEC67AB0EE670A24
:10073000C0ED077A704700BFD0ED057A90ED006AF2
:1007400090ED067AD0ED035AE6EE007A90ED016A5C
:10075000F0EE406AA6EE267AB0EE670AD0ED047A93
:1007600090ED026A67EEC07AA5EEC07AE6EE267AD0
:1007700080ED057AC0ED067A704700BF03685A1C09
:1007800002601970704700BF03690133012B0361D8
:100790001CD0D0ED005AD0ED026A07EE903A30EE50
:1007A000656AF8EEE77A86EE277A77EE257AB0EE7C
:1007B000667A30EE670AC0ED017AA6EE007AC0EDE7
:1007C000007A80ED037A80ED027A7047002380ED95
:1007D000010A80ED000A8360704700BF03685A1C5D
:1007E00002601970704700BF024BD3F830080368ED
:1007F0001B681847C81700202DE9F0475D4E1F46BB
:1008000006EB80039C68002C00F0B08004F13E03EE
:10081000A36104F59F73E3614FF48073C4E904336B
:100820002836236866600546E16094F83D00A363BE
:10083000914607F041FE804694F8440294F83CA0AB
:10084000261D00285CD194F8450268BBD4F84032DC
:1008500083BB3A0734D419F0020F54D119F0010FB9
:1008600065D194F9472294F84712D4F84832002A07
:1008700010DB41481B018418DBB284F800335209B5
:10088000012301F01F0103FA01F140F82210304664
:10089000BDE8F087394A01F00F010A441B01DBB2C1
:1008A00013763046BDE8F08763F094FAD4F840320E
:1008B000002BCED0324A116B0B4313633A07CAD5D3
:1008C0000135EDB2B8F1000F05D040F2067388F89B
:1008D0000850A8F80630FB0641D417F0200F14BFCB
:1008E0001221322194F84622404607F047FB94F942
:1008F000472294F84712D4F84832002AB9DAC9E7F7
:1009000063F068FA9FE76B1CDBB2B8F1000F05D00B
:1009100088F8083040F20653A8F8063094F84622CA
:100920004046022107F02AFB19F0010F99D05046EA
:1009300007F0C2FD0135EDB218B140F20663C38085
:10094000057294F84622022107F018FB94F9472219
:1009500094F84712D4F84832002A8ADA9AE794F8D1
:1009600046220221404607F009FB7AE72646304638
:10097000BDE8F08728D4060800E100E0FCEC00E0C8
:10098000003802402DE9F047038A8489A4B21C4054
:1009900082B045D0814688464FF0004501F14C07B2
:1009A00001F13406B4FA84F325FA03F2D24391B28A
:1009B000A9F8101014401B3BB8F1000F5DD0042BB8
:1009C0002CD8DFE803F050463B300300D8F80C3059
:1009D000D9F82CA033B19B6823B11FFA8AF108F132
:1009E00004009847D8F8243033B19B6823B11FFA2C
:1009F0008AF108F11C009847D8F83C302BB19B686D
:100A00001BB11FFA8AF130469847D8F854302BB101
:100A10009B681BB11FFA8AF138469847002CC1D158
:100A200002B0BDE8F087D8F80C30D9F834105B6814
:100A300008F104009847002CB4D1F1E7D8F824302D
:100A4000D9F838105B6808F11C009847002CA9D130
:100A5000E6E7D8F83C30D9F83C105B683046984758
:100A6000002C9FD1DCE7D8F85430D9F840105B68EF
:100A700038469847002C95D1D2E7042B07D8DFE8F9
:100A800003F00319140F0A00D9F840300193019BB9
:100A9000002C87D1C4E7D9F82C300193019BF7E7EC
:100AA000D9F834300193019BF2E7D9F8383001933B
:100AB000019BEDE7D9F83C300193019BE8E700BFCB
:100AC00038B5274C94F83428012A034603D0022A6B
:100AD00008D0002038BDD4F83828A2B984F83428CA
:100AE000002038BD002540F20112C0E95455C0E98C
:100AF0005655A0F8442100F5A27165F0C7FD84F8B1
:100B00003458002038BD402AD4F80C0819D9403A8E
:100B100085B24030C4F83828C4F80C084022114986
:100B200040F201102944A3F844010020C3E9541104
:100B3000C3E9562003F5A271184665F0A7FD002011
:100B400038BD4FF0000185B2C4F83818104408BF12
:100B50000221C4F80C0808BF84F83418DFE700BF8E
:100B6000C81700200420002001EB810138B500EBFC
:100B7000C1010E4DB1F88C1304462846FFF726FD3F
:100B8000E378C4F8A85340210022C4E9EC12012202
:100B900093422046A4F89C2304F5677108BFC4F86B
:100BA000AC5365F073FD002038BD00BF0428002061
:100BB0002A4A38B552F87C3C0F2B04D0591C42F815
:100BC0007C1C002038BD264B93F83448002142F8A5
:100BD0007C1C002CF5D1D3F80C28D3F81018B2F5F2
:100BE000006F30D08A4235D003F63C0594BF891A95
:100BF000C2F5006115FA82F5402919D80A44C3F8F4
:100C00000C284FF00002C3F838280CBF0222012242
:100C100083F8342840F201120023C0E95613C0E9DA
:100C20005455A0F8442100F5A27165F02FFDC8E7E6
:100C300040324039C3F80C280122C3F8381883F831
:100C400034284021E6E7C3F80C4819B103F63C0507
:100C50002246D1E7002283F83428B2E7C0280020DA
:100C6000C817002070B590F8CF2590F8D13590F8CE
:100C7000CE5590F8D0C590F8CC1590F8CD6505EB21
:100C800002250CEB032C90F8D32590F8D23503EB1A
:100C90000223012284B080F8112101F01F029BB2CF
:100CA000ADB21FFA8CFC012A04468DF80810ADF88D
:100CB0000A50ADF80CC0ADF80E30C0F840318DF8D8
:100CC00009600AD0022A57D0002A3CD001F08001E6
:100CD00062F0D8FE002004B070BD90F81231032BF2
:100CE0002BD15FFA8CFCBCF1010F26D8D0F8E4358B
:100CF00002A99B689847BDF80E30002BEAD1C4E9E1
:100D00004A33C4E94C3304214FF4807284F8111142
:100D1000A4F81C2104F58E71204665F049FC636D32
:100D2000C44A1A61E278012AD4D104F2CC545C613D
:100D30004FF0802219681A60CCE7204662F06AFE04
:100D4000002004B070BD092EF7D801A252F826F099
:100D5000FB0D00080B0F00083B0D0008450F0008B5
:100D60003B0D0008730F00081F0E00083B0D000824
:100D7000890E0008B90E000801F0600120295FFA11
:100D80008CF334D0012E00F06181032E00F09581A8
:100D9000002E9FD190F81221022A00F01B81032A15
:100DA000CBD11CF0800F40F0A48103EB830300EB58
:100DB000C30393F87633002B00F0A6819E4B0122EB
:100DC00043F8682C9D4A0223C4E94E334FF48070E7
:100DD000002184F81131A4F81C01C4E94C31C4E9A4
:100DE0004A2204F58E71204665F0E2FB72E7D0F8E6
:100DF000E43502A99B6898476CE790F81231023BF2
:100E0000012B9AD88C4BD0F81821002143F8701C84
:100E100012B1022243F8702C894A0223D4E72E0A29
:100E2000022EADF8063000F0CD81032E00F0918146
:100E3000012E82D1D0F8EC3580781B680DF10601C7
:100E40009847BDF80630002B3FF444AFBDF80E20A4
:100E5000002A3FF43FAF934228BF13464FF48072FD
:100E60000221A4F81C210022C4E94A0084F81111CF
:100E7000C4E94E33C4E94C3204F58E712046ADF816
:100E8000063065F095FB25E7012B7FF456AF90F80F
:100E90001221022A00F04981032A7FF44EAF4FF459
:100EA000807100F588720220A4F81C11C4E94E3349
:100EB00084F81101002190E7EDB25F4E012D06F894
:100EC000785C3FF63AAF90F81231022B00F02181A6
:100ED000032B7FF432AF002D00F07F8190F81011CA
:100EE000012910D0D0F8E4355B68984716F8781CD3
:100EF000D4F8E43584F810111B6820469847D4F8DC
:100F0000E8359B6898470023F9E690F81231023BD8
:100F1000012B3FF612AF012D7FF4DCAED0F8E435A3
:100F200000259B68C0F8185102A9984704224FF485
:100F30008073C4E94A55C4E94C5584F81121A4F8DA
:100F40001C31E7E6012D00F0CC80022D7FF4C2AE0B
:100F50005FFA8CF3002B7FF4BDAE02694FEA1C23CD
:100F6000023B5268032B00F25681DFE803F05B423C
:100F70006B5F5CEA03037FF4E0AE90F81221032A72
:100F80003FF4DBAE016905F07F0680F81461086864
:100F90001A4665F30A1202430A604FF48072042174
:100FA000C4E94A33C4E94C3384F81111A4F81C2174
:100FB00004F58E71204665F0FBFA636D1D4A1A61D7
:100FC000E278012A0DD0002E00F01281022384F86D
:100FD00012317FE65A063FF47DAE194662F052FDAB
:100FE00078E604F2CC525A614FF0802219681A60F8
:100FF000E9E7032363F3061201210F4D84F816116C
:101000000421002384F811114FF48071A4F81C11FD
:10101000C4E94A33C4E94C3304F58E71204645F8DF
:101020006C2C7AE6022363F30612E5E7052363F3EB
:101030000612E1E718000860C028002058280020A8
:1010400050280020042363F30612D5E790F81221FC
:10105000022ABFD0032A7FF470AE002D7FF43AAE8F
:1010600013F07F023FF44FAF1CF0800F40F0C480BC
:1010700003EB830100EBC10181F8742381F87653FF
:1010800081F87553282101FB030300EB820293F8DA
:101090007713506D03688A1E012A6FF35553D4F8F5
:1010A000E4258CBFC3F30071012161F31C739268C6
:1010B000036002A92046904725E790F81221022AF2
:1010C00088D0032A7FF439AE25B9590602D01946D3
:1010D00062F0D8FCD4F8E43502A99B682046984712
:1010E00011E7D0F8E43502A99B68C0F81851984779
:1010F00009E703F07F0303EB830300EBC30393F8DB
:101100001E31002B7FF45AAE454B002243F8682C69
:1011100058E6002D3FF40AAF01210322D0F8E43550
:1011200080F8101180F81221E6E63E4984F811217A
:101130004FF480700022C4E94A11A4F81C01C4E9EC
:101140004E33C4E94C3204F58E71204665F030FA16
:10115000C0E5EDB2052D3FF6F0ADDFE805F02B233D
:101160001B130B03D0F8EC3580789B690DF1060159
:10117000984766E6D0F8EC3580785B690DF106019A
:1011800098475EE6D0F8EC3580781B690DF10601D2
:10119000984756E6D0F8EC358078DB680DF106010B
:1011A00098474EE6D0F8EC3580789B680DF1060143
:1011B000984746E6D0F8EC3580785B680DF106017B
:1011C00098473EE6D0F8E43580789B6A0DF1060139
:1011D00098474670C4F8F00533E60222D0F8E435AB
:1011E00080F8122180F810515B68294698479DE6E7
:1011F000012384F812316DE5282303FB020181F8F5
:101200001C2100EB820281F81E5181F81D6190695A
:1012100091F81F113EE7012363F30612ECE600BFCD
:10122000C02800204C28002010B5044629B990F8A9
:101230001121032A0DD0002010BDD0F8E4359B69A0
:10124000002BF8D090F81221032AF4D198470020FF
:1012500010BDD0F890230B46D0F87C138A4213D9E6
:10126000C078521A0128C4F8902336D08A4228BF89
:101270000A4692B2C4E9E22304F55D71A4F874331E
:10128000204665F095F9D6E7D0F8E4351B691BB127
:1012900090F81221032A1ED000234FF480720421FB
:1012A000C4E94A33C4E94C3384F81111A4F81C2171
:1012B00004F58E71204665F07BF9636D104A1A6162
:1012C000E278012AB7D104F2CC545C614FF080225D
:1012D00019681A60AFE79847DEE78A42D4F88003BE
:1012E000A4F8743328BF0A46084492B2C4E9E22342
:1012F00004F55D71C4F88003C4F88403C0E700BF3F
:101300001800086038B5044649B990F81131022B2D
:1013100011D094F81631012B40D0002038BDD0F800
:10132000E4355B69002BF8D090F81221032AF4D140
:101330009847002038BDD0F83831D0F824219342A6
:1013400036D9C178012908BFD0F82811A3EB0203D0
:1013500018BFD0F82821C0F8383108BF52189BB206
:101360004FF480710025C0E94C35A0F81C11C0E98C
:101370004A2200F58E7165F01BF9E378C4F88053BA
:10138000012BC4E9E255A4F8745308BFC4F8845390
:1013900004F55D71204665F00BF9BAE72A4B226926
:1013A00053F86C1C5160002384F81631002038BDBE
:1013B000D0F83C31B3FBF2F502FB1535ADB99A42DA
:1013C00013D8D0F8402193420FD24FF48073A0F885
:1013D0001C31C0E94A55C0E94C5500F58E7165F0E5
:1013E000E7F8E378C4F84051C8E7D4F8E435DB689F
:1013F0001BB194F81221032A23D0E2780023012A9A
:101400004FF0050108BFC4F88433C4E9E23384F81F
:101410001111C4F88033A4F8743304F55D712046CB
:1014200065F0C6F8636D094A1A61E278012A7FF413
:1014300070AF04F2CC525A614FF0802219681A60E2
:1014400067E720469847D8E7C028002018000860C2
:10145000F8B50B7813F060060D46044620D0202E18
:1014600025D1CE884EB31B0649D5384F6878324611
:101470003946FFF767F8EB880222002684F811212D
:101480004FF48072C4E94E33C4E94A77C4E94C365C
:10149000A4F81C2104F58E71204665F089F80AE055
:1014A0004B780A2B17D00B2B0ED0062B03D12046DE
:1014B00062F0B0FA02263046F8BD022248781144A4
:1014C000FFF740F83046F8BD8B78002B3AD1204B1F
:1014D00043F8646CEFE7022280F811214FF4807228
:1014E000A0F81C211B4A0123C0E94E33C0E94A225F
:1014F000C0E94C3600F58E7165F05AF8DBE7164B03
:10150000164A4978116003F618020321C0E9E4661F
:1015100080F81111C0F88863C0F88023C078C3F840
:10152000146801284FF00003C4F88C33A4F8743316
:1015300004F55D7108BFC4F88423204665F038F8CF
:101540000026B8E762F066FAB5E700BFE01F0020AA
:10155000C02800205C280020C817002000000020C0
:1015600070B500254026044600F55D71A0F874535F
:10157000C0F87C6380F8775365F052F94FF48073BC
:1015800004F58E71A4F81C312046C4F8246184F857
:101590001F51A4F8225165F043F9D4F8E835A0783A
:1015A000012284F812215B689847284670BD00BF6D
:1015B0002DE9F8430446022501264FF0400840F289
:1015C00001130027A0F84431C0F84C8180F847513E
:1015D000A0F84A6180F8487100F5A27104F56779B6
:1015E00065F01EF949462046A4F89C63C4F8A4831C
:1015F00084F89F5384F8A07365F012F94FF4817357
:10160000A4F86C310823C4F87431032384F86F31D3
:10161000204604F5B671A4F8725165F001F90D4B3E
:10162000A3F84C50FEF77AFFE2780B4BC4F8B08376
:10163000B2422046C4F8B473A4F89C63C4F8A8333B
:1016400008BFC4F8AC33494665F020F80020BDE877
:10165000F88300BF000000200428002038B50122D4
:10166000044640F20113A0F844310125114665F00B
:10167000BFF8294620460022A4F89C5365F0B8F82C
:101680004FF481732046A4F86C312A46022165F09C
:10169000AFF8FEF74FFF002038BD00BF08B5024885
:1016A00062F08AF9014808BD7862070860280020C6
:1016B00008B5024862F080F9014808BD8862070851
:1016C0006028002008B5024862F076F9014808BD9C
:1016D000906207086028002008B5024862F06CF9A3
:1016E000014808BD9C6207086028002008B5024830
:1016F00062F062F9014808BDA8620708602800206E
:101700002DE9F041204E96F83438002BFBD1B9B3C7
:10171000014400F1FF384F1ED6F81018D6F80C38E7
:1017200018F8010F4A1CC2F30A029A4234BF00247F
:1017300001249B1A314403EBC423012B81F83C089C
:10174000C6F810281AD109F037FE04460D4609F0F4
:1017500033FE031B61EB0501B3F57A7F71F10003E2
:10176000F5D3D6F80C38D6F8102893428CBF002158
:1017700001219B1A03EBC123012BE4D0B845CBD147
:101780000020BDE8F08100BFC81700200A4B10B54B
:10179000D3F8084804B910BDD3F80838052BFAD19E
:1017A000064C002A0846D4F8A0301146F3DDFFF7B6
:1017B000A7FFD4F8A03010BDC8170020C028002013
:1017C00090F84820531C0244DBB280F8483082F87D
:1017D000341090F849200AB1132B03D9002280F865
:1017E000482003B970470A4AD2F808180029F9D0EE
:1017F000D2F80828052AF5D110B5064C1946343020
:10180000D4F8A030FFF77CFFD4F8A03010BD00BFA3
:10181000C8170020C028002090F848100023A0F826
:10182000483001B97047094BD3F80828002AF9D08D
:10183000D3F80838052BF5D110B5054C3430D4F861
:10184000A030FFF75DFFD4F8A03010BDC81700200E
:10185000C02800201049114BD1F8882042F47002B2
:1018600010B4C1F888201A680D4C002042F0010223
:101870001A6098601A6822F0847222F480321A602A
:101880005C601A68074C22F480221A60D8608C6071
:101890005DF8044B704700BF00ED00E000380240E7
:1018A0001030002400000008704700BF2DE9F84305
:1018B00046697EB9D0F80080C8F30D0904460F468A
:1018C000B9F1000F26D03F68FEF72CFD092804D09F
:1018D0006FF001063046BDE8F8834A4D2B6923F4CA
:1018E00040732B612B6943F400732B612B6943F028
:1018F00001032B61C8F80070FEF714FD2B6909285D
:1019000023F001032B61E3D12368043323603046C5
:10191000BDE8F8833C4B98452AD303F580439845AE
:1019200024D303F58043984554D3384B984554D974
:1019300003F58033984553D903F50033984552D9C0
:1019400003F50033984551D903F5003398453ED946
:1019500003F5003398454CD903F5802398454BD9BE
:10196000B8F1016F4BD305200AF02AF94FF00809AE
:10197000FEF7D8FC092804D04FF0FF363046BDE80A
:10198000F883204D2B6923F440732B612B6943F4BA
:1019900000732B612B6923F0F8032B612B6943EA59
:1019A000090343F002032B612B6943F480332B615D
:1019B000FEF7B8FC2B6923F002032B612B69092881
:1019C00023F0F8032B61D7D1D4F800807BE74FF0E8
:1019D0003809CDE74FF01009CAE74FF01809C7E7FB
:1019E0004FF02009C4E74FF02809C1E74FF0300954
:1019F000BEE74FF04009BBE74FF04809B8E74FF0AA
:101A00005809B5E7003C024000400008FFFF00080D
:101A10000148FEF7FFBB00BF640000200148FEF74D
:101A2000F9BB00BFB00200200148FEF7F3BB00BFC6
:101A3000FC0400200148FEF7EDBB00BF4807002072
:101A400038B5D0E9004307EE902A1B68354A206874
:101A50000139934204688DB216D002F58062934238
:101A600012D002F5705293420ED002F5806293427A
:101A70000AD002F58062934206D02B4BD3F89039FE
:101A80005B0807EE103A04E0274B03F5196393ED6A
:101A9000007ADFED266AB8EE477AF8EE677A87EECD
:101AA000270A30EE260A68F0EFFA1E4A238801382A
:101AB000944280B29BB212D002F5806294420ED062
:101AC000B4F1804F0BD0A2F58032944207D002F5DA
:101AD0008062944203D002F58062944202D123F0E6
:101AE00070039BB2124A944212D002F58062944273
:101AF0000ED023F4407302F56C429BB294422380D3
:101B0000E56220850AD1002323860123A38238BD04
:101B10002380E56220850123A38238BD054B9C42CA
:101B2000F1D0F8E700000140000000200AD7233C74
:101B3000001000400004014070B54068837903F054
:101B4000020213F0040300F0C9804FF0000E1346A8
:101B500004247246754690F805C0BCF1030F30D8D6
:101B6000DFE80CF08E5F30020368188C20F48050A0
:101B70000004000C1884188C9C8820F40050000489
:101B80002A43000C40EA0232988B6C4D20F4E64068
:101B90000004000CAB42A4B240F4C04000F0B0809E
:101BA00005F58065AB4200F0AB809C80988319649A
:101BB0001A849A8B22F400621204120C42F400621E
:101BC0009A8370BD2A4305685C4E288C20F480708F
:101BD0000004000C2884288CB5F804C020F40070A0
:101BE0000004000C40EA0222A88B20F073000004DD
:101BF000000CB5421FFA8CFC40F0600073D006F573
:101C00008066B5426FD0A5F804C0A883E9632A8432
:101C1000AB8B23F008031B041B0C43F00803AB83BE
:101C200070BD2A430568454E288C20F01000000442
:101C3000000C2884288CB5F804C020F02000000493
:101C4000000C40EA0212288B20F4E6400004000C4D
:101C5000B5421FFA8CFC40F4C04061D006F58066A6
:101C6000B5425DD0A5F804C02883A9632A842B8BD4
:101C700023F400631B041B0C43F400632B8370BD2F
:101C800000682E4E2A43058C25F001052D042D0CED
:101C90000584058CB0F804C025F002052D042D0C38
:101CA0002A43058B25F073052D042D0CB0421FFA35
:101CB0008CFC45F0600528D006F58066B04224D043
:101CC000A0F804C0058341630284038B23F008035A
:101CD0001B041B0C43F00803038370BD4FF4807E8C
:101CE0001C46012537E722F4006242EA032222F46F
:101CF00080622CF4405C42EA04224CEA0E1C82E72B
:101D000024F4804444EA8E144FE74FF6F3761640ED
:101D10002CF4407C46EA03024EEA0C0C2243CFE747
:101D200022F0800242EA031222F040022CF4406CBE
:101D300042EA04124CEA8E0C94E700BF0000014016
:101D4000024B0348D3F8A410FEF71CBEC0280020A5
:101D50000000014010B5064C0648D4F8A410FEF768
:101D600011FED4F8C4100448BDE81040FEF70ABEC6
:101D7000C0280020000001400040014010B5064C82
:101D80000648D4F8A410FEF7FDFDD4F8C8100448A6
:101D9000BDE81040FEF7F6BDC0280020000001405D
:101DA0000044014010B5064C0648D4F8A410FEF7D4
:101DB000E9FDD4F8CC100448BDE81040FEF7E2BDC0
:101DC000C02800200000014000480140034B4FF0B4
:101DD0008040D3F8A810FEF7D5BD00BFC028002072
:101DE000024B0348D3F8AC10FEF7CCBDC02800204E
:101DF00000040040024B0348D3F8B010FEF7C2BD08
:101E0000C028002000080040024B0348D3F8B4105B
:101E1000FEF7B8BDC0280020000C0040024B03486C
:101E2000D3F8C010FEF7AEBDC0280020000401406A
:101E300010B5064C0648D4F8C010FEF7A3FDD4F840
:101E4000D0100448BDE81040FEF79CBDC02800201B
:101E5000000401400018004010B5064C0648D4F8B4
:101E6000C010FEF78FFDD4F8D4100448BDE8104030
:101E7000FEF788BDC028002000040140001C00407F
:101E800010B5064C0648D4F8C010FEF77BFDD4F818
:101E9000D8100448BDE81040FEF774BDC0280020EB
:101EA00000040140002000400348D0F8A03913B1DD
:101EB00000F6941018477047000000200348D0F83F
:101EC000C03913B100F6B410184770470000002065
:101ED0000348D0F8E03913B100F6D4101847704722
:101EE000000000200348D0F8003A13B100F6F410C7
:101EF00018477047000000200348D0F8203A13B17B
:101F000000F6142018477047000000200348D0F85E
:101F1000403A13B100F63420184770470000002003
:101F20000348D0F8603A13B100F6542018477047C0
:101F3000000000200348D0F8803A13B100F6742066
:101F400018477047000000200348D0F8A03A13B1AA
:101F500000F6942018477047000000200348D0F88E
:101F6000C03A13B100F6B4201847704700000020B3
:101F70000348D0F8E03A13B100F6D4201847704770
:101F8000000000200348D0F8003B13B100F6F42015
:101F900018477047000000200348D0F8203B13B1D9
:101FA00000F6143018477047000000200348D0F8AE
:101FB000403B13B100F63430184770470000002052
:101FC0000348D0F8603B13B100F65430184770470F
:101FD000000000200348D0F8803B13B100F67430B5
:101FE000184770470000002002683649002310B4EB
:101FF00022F0010221248842026003604360836072
:10200000C3600361446138D02F4B98422ED02F4BD0
:1020100098423CD02E4B984240D02E4B984232D022
:102020002D4B984241D02D4B984246D02C4B984294
:1020300017D02C4B98423CD02B4B984216D02B4BB0
:10204000984224D02A4B984228D02A4B98421AD042
:10205000294B984229D0294B98422ED0284B9842A0
:1020600008D14FF03D5243F8AC2C03E04FF47462BA
:1020700043F8202C5DF8044B7047224B5DF8044B6D
:102080003D229A607047204A43F8642CF2E74FF4EF
:1020900074125DF8044B43F8382C70474FF07462AB
:1020A0005DF8044B43F8502C7047184A43F87C2CD9
:1020B000E0E73D2243F8082CDCE7154A43F8942C6E
:1020C000D8E700BF10600240286002404060024034
:1020D000586002407060024088600240A060024088
:1020E000B86002401064024028640240406402402C
:1020F000586402407064024088640240A064024058
:10210000B8640240006002403D000020400F002003
:1021100000003D2000222DE9F04713460D684FF0E6
:10212000010E032604E00133102B02F1020239D024
:102130000EFA03FC3CEA0504F5D1076806FA02F43E
:1021400027EA040707600F79D0F800A007FA02F920
:10215000013F49EA0A09012FA046C0F800906FEA42
:10216000040411D887683C4084604C7987689440A7
:102170003C438460446824EA0C0444608C794768DA
:102180009C40A4B23C434460C46824EA0804C46090
:10219000CC79C768944001333C43102BC46002F1F2
:1021A0000202C5D1BDE8F0872DE9F0412348244F54
:1021B000244E254C82B0382200216BF098F800257F
:1021C00057F825103246002301E054F8332091429D
:1021D0002ED001330E2BF8D10020053561F0FAFD29
:1021E000282DEDD1DFF85880184F08F1A0054FF0E9
:1021F000007698F8040006F05FF908F11408044628
:1022000088B1036803F13F4303F57E0307EB932393
:1022100093F8C80061F0DEFDA38801962068009362
:102220006946FFF777FFA845E3D102B0BDE8F0812A
:10223000064A02EBC30393F85C00CEE76429002052
:10224000940B00200000014080D4060828D4060822
:102250002DE9F04F1C2085B006F02EF9112104461F
:1022600004F04EFA002C00F011822368A2885A83F1
:10227000C82009F0CFF82368A2881A831B2006F033
:102280001BF920B14FF487720023C280037240F221
:102290000E220023E2802372A64B5021082283F8ED
:1022A0004313C3F88820BFF34F8FBFF36F8FA24D46
:1022B000A2482B6BA24CA34EA34FDFF8BCA2DFF8C1
:1022C000BC92DFF8BC8243F001032B634FF4C05291
:1022D00040F2023302A9CDE90223FFF71BFF436A54
:1022E0009A49DFF8A0C2DFF8A0E223F4704343620A
:1022F000436A43F420434362436A23F470234362F6
:10230000436A43F4202343626B6C43F480436B6461
:102310006B6BC4F8C016012201F12C0043F080035E
:1023200048316B637261C4F8C8168949C4F8C406A1
:102330008848C4F8DC00C4F8EC108748C4F8E00012
:1023400001F580718548C4F8F4102031C4F8F81004
:102350002031C4F83001C4F8FC1020302031C4F81A
:102360003401C4F800112030A1F5AC610225C4F895
:102370003801C4F8F010203040314FF0A04B84F801
:10238000E450C4F83C01C4F8A81184F8E720C4F86C
:10239000E8B0C4E95BA9C4E95FC72037C4F8847119
:1023A0002037C4F8887107F522676D4E6D4DC4F86B
:1023B000AC7107F5805701F51C61C4F8B071C4E930
:1023C0005D8E07F58057C4E970656748C4F8B4713D
:1023D000002307F5805704F1DC05C4F8E8114FF03D
:1023E0005021C4F8C801C4F8BC11C4F8B87184F80D
:1023F000EE2184F8F03129461846402681F81C3138
:10240000A1F822310133042BC1E9496081F81D2173
:1024100081F81F01C1F8300101F12801EED100223D
:102420002B461146402083F87423A3F87A23013207
:10243000042AC3E9DF0183F8751383F87713C3F81F
:10244000881303F12803EED14FF0A04300269A68C9
:1024500022F001029A60DA6842F04002DA6061F02C
:102460000DFE94F8E520D4F8E830921B18BF012245
:10247000120142F0210262F317469E6394F8DF6076
:10248000012E07D19A6822F03E0141F02A0161F342
:1024900007029A60DA68D4F8E871D4F8EC00C2F365
:1024A000076121F0600141F0400161F31F620021EA
:1024B000DA603960026861F3CC22026094F8E720A8
:1024C000012A12D10268294F294942F00302026011
:1024D0004FF0800C4FF4A072C3F824C09F62C3F881
:1024E0000411C3F80821C3F80C2100220292029AB9
:1024F00042F020020292029A102161F38A120292A3
:10250000029A1A611A6902921A4A03E01969029141
:10251000013A02D002998F06F8D400220192019A62
:1025200042F010020192019A1A611A690192114A4D
:1025300030E000BF00E100E000380240000002404F
:10254000C0280020003C0140A0050050340C0020B1
:10255000000800500804010040004001000B00503A
:10256000006000500070005000800050800040006B
:10257000C0008000400D0300000500502005005001
:102580004005005080050050600500501969019118
:10259000013A02D00199C906F8D494F8DD204FF031
:1025A000000C4FF0FF31C0F810C0C0F814C08161BA
:1025B000C0F81CC06AB305F1140E3B490EEB820E45
:1025C0004FEA82094FF0FF0851F8042F1768002FD7
:1025D000ACBF00274FF0904771451760C2F810C09C
:1025E000C2F80880F0D1503530494D444FF0000E0C
:1025F0004FF0FF0C51F8042F1768002FACBF0027D5
:102600004FF09047A9421760C2F810E0C2F808C026
:10261000F0D10269012E42F48072026128D00022BA
:102620009A6196426FF080414FF0FF322048596125
:102630005A60596114BF00221022986142F470124E
:10264000996942F4605242F008020A439A619A681A
:10265000D4F8C41642F0010209689A608847154B05
:102660005021082283F843139A6005B0BDE8F08F2B
:10267000114A02636FF080414FF0FF3000229A61EF
:10268000596158600A4859619861D7E7C82008F035
:10269000C1FE1B2005F010FF00283FF4FDAD4FF4F4
:1026A0008773C3800472F7E5B0290020EC2900206D
:1026B0000008008000E100E003018100224A9368E5
:1026C00003F00C03042B10B421D0082B22D01F4B95
:1026D00003601D4C1E4AA168C1F30311114491F817
:1026E000981CCB404360A168C1F38221114491F84A
:1026F000981C23FA01F18160A1685DF8044BC1F3D5
:1027000042310A4492F8982CD340C3607047114B71
:102710000360DEE75368516813F4800F01F03F0156
:10272000536814BF0B4A094AB2FBF1F1064A5268DA
:10273000C2F30142C3F38813013201FB03F35200D9
:10274000B3FBF2F30360C4E7003802400024F40056
:102750000000002000127A0070B5446B8668A389DF
:1027600023F400531B041B0CA38182790546407996
:1027700012F0040F14BF4FF4805C4FF0000C1103F3
:1027800010F0010F4FEA02220CBF0023042302F4D1
:102790008062800748BF43F0080342EA0C021343FB
:1027A000228A92B201F4005122F440520A4322825A
:1027B000A28922F4B05222F00C021204120C1A4325
:1027C000A281A38A23F440731B041B0C84B0A38250
:1027D0006846FFF773FF2F4B9C4205D003F58063DB
:1027E0009C4201D0029A00E0039AA3892A491B0463
:1027F00002EB82024CBF7300B30002EB8202B2FB19
:10280000F3F3A1FB0302A08952096426000406FB2E
:1028100012334FEA021228D41B013233A1FB0313F7
:10282000C3F3431313439BB223816A796B6BA8797B
:10283000960702F00101174A48BF41F00201934296
:102840001BD001079A8A0AD592B242F008029A82F6
:102850009A8992B242F400529A8104B070BD22F07B
:1028600008021204120C9A82F2E7DB003233A1FB59
:102870000313C3F342131343D5E7CD07E1D5074A4A
:10288000D2F85018B2F85428C4074CBF0A834A83C0
:10289000D7E700BF001001401F85EB51C028002082
:1028A0002DE9F8431D462E4B9DF820609DF824909D
:1028B0009842884617463BD02A4B984240D02A4B34
:1028C000984245D0294B984221D14B463246294661
:1028D0000520FDF791FF04460023C4E90B87C4E9F6
:1028E0000733C4E909336671A56084F80690204671
:1028F000FFF732FFF107626B12D4B3070BD4938951
:102900009BB243F4005393812046BDE8F883002432
:102910002046BDE8F883D36843F08003D360EEE738
:102920004FF6DF731380D36843F02003D360E4E7EE
:102930004B46324629460020FDF75EFF0446CBE7B2
:102940004B46324629460220FDF756FF0446C3E7B0
:102950004B46324629460320FDF74EFF0446BBE7AF
:102960000010014000480040004C004000140140AD
:102970008160F1E64171EFE6F0B587B00023824A4D
:1029800000930193136843F48033136003E0009BCA
:10299000B3F5A04F09D0136803F400330193009BF3
:1029A00001330093019B002BF1D0774B1B6813F48C
:1029B000003318BF01230193019B012B01D000BFFD
:1029C000FDE7714B71491A6C714842F080521A64EC
:1029D0000A6842F440420A609A689A609A6842F42F
:1029E00000429A609A6842F4A0529A6058601A684D
:1029F00042F080721A601A689201FCD5654A40F272
:102A000005711160996821F003019960996841F09E
:102A10000201A2F580629960936803F00C03082B11
:102A2000FAD1936803F00C03042B00F08C80082B80
:102A300000F08E80584D594BC5F89039524BD5F85F
:102A400090199A68564C5748C2F303122A4400263C
:102A500092F8A82CD140544AC5F89019E260534A24
:102A6000596FA260596B524A21F080015963596F26
:102A700041F080715967196B0A431A635A6B5A63A4
:102A80009A6B9A631A6C4B490A431A64596C4A4A06
:102A90000A435A6402A948F2FF7302934FF6FF7784
:102AA0000396FFF737FB00F580600297FFF732FBD4
:102AB00000F580600297FFF72DFB00F58060FFF7BF
:102AC00029FB00F58060FFF725FB00F58060FFF72C
:102AD00021FB00F58060FFF71DFB00F58060FFF72C
:102AE00019FB00F58060FFF715FB0846FFF7E6FDD0
:102AF000D4F8FC30029A3149314843F08073C4F86D
:102B0000FC30304BC3F8B01F5E60196841F0010122
:102B10001960D5F890394FF47A71B3FBF1F3013BAA
:102B2000B3F1807F2849B2FBF1F2C0F81C2908D22A
:102B30004FF0E022F0215361072384F823109661BF
:102B4000136107B0F0BD144D204BC5F8903975E7FF
:102B500053685168104D13F4800F01F03F01536822
:102B600014BF1A4A0D4AB2FBF1F1074A5268C2F388
:102B70000142C3F38813013201FB03F35200B3FB9C
:102B8000F2F3C5F8903959E7003802400070004070
:102B900008544007003C0240000000200024F400DC
:102BA00000ED00E0000002400003FA05000000080C
:102BB000FF916700FFC9FE103357070055CEACC523
:102BC000C0280020001000E040420F0000127A00F0
:102BD000704700BF704700BF704700BF10B5124C70
:102BE00094F8E63023B9114B4FF480225A6110BD9E
:102BF0004FF0E022D2F8103D23F00603C2F8103D5A
:102C0000FEF728FE94F8E630002BECD0D4F8EC3038
:102C10009B68DB07E7D5D4F8E821136823F00301AC
:102C200061F307031360DEE7C0280020003C014089
:102C30002DE9F04FB24CD4F8E8305A69D2078BB086
:102C400002D50BB0BDE8F08F5A699B6912EA0309FF
:102C5000F7D0C9F3074319F4002F009340F0E28046
:102C6000009B590743D419F0020F5FFA89F603D08D
:102C7000D4F8E83002225A61B9F1000FC0F2EA81BB
:102C800019F4006FC9F3072540F04881330708D5D0
:102C90009C4B9D48D3F8C43C9847D4F8E8300822B0
:102CA0005A61F70600F1C081EE0600F16D81A906B8
:102CB00000F1E980009BDA0609D5924B9248D3F8DF
:102CC000D43C9847D4F8E8304FF480125A61009B06
:102CD0009B06B6D58B4B8C48D3F8D83C9847D4F894
:102CE000E8304FF400125A610BB0BDE8F08FD4F811
:102CF000EC209369D26913401FFA83FABAF1000FEE
:102D0000B1D0DFF81482CDF80C900023A8F118059B
:102D10001F461AF0010F78D0FEB2D4F8EC2004EB75
:102D200086031069D3F8F410536B8968F340DB0114
:102D3000DBB203430B4013F00109D9B240F0A68186
:102D40000A0740F1C381D8F8002008239360994610
:102D500019F0800F59D0D5E94CC0D5F82431D8F8F6
:102D600000E0ACEB00018B42DEF8182028BF0B46D8
:102D700092B20333B2EB930F47D9D4F8EC2094F816
:102D8000DF90323604EB8603CDE90178674698463A
:102D90009446874237D9D5F82431391A994228BF49
:102DA000194601F1030BD5F828314FEA9B0BB9F115
:102DB000000F10D18AB203329210D8F8E4600AD022
:102DC0004846013053F8047B37608242F9D1D5E997
:102DD0004C70D5F8283108440B44B842C5F8283166
:102DE000C5F83401DEF818300AD195F81C1101221B
:102DF00002FA01F1DCF8342022EA0102CCF8342096
:102E00009BB29B45C5D3DDE901785FEA5A0A07F119
:102E1000010708F1040805F128057FF47AAFDDF811
:102E20000C9020E7D4F8EC309D69DB691D402D0C37
:102E30003FF416AF04F1DC08DFF8C8B004F598766B
:102E40000027C24608E06D0807F1010706F10406F5
:102E500008F128083FF404AFEB07F4D5F9B204EB0E
:102E60008103D4F8EC20D3F830319B6852691340C9
:102E7000D807DAB200F13A81930740F162813368F2
:102E800002229A60DFE7D4F8EC30D4F8F4109A68A4
:102E90000868C2F34102022A06BF032262F30A0055
:102EA0006FF30A0008605A6842F480725A6006A8FC
:102EB000FFF704FCD4E93A21D368079D6FF38D2313
:102EC000D36088681149C0F34100014491F8D010E3
:102ED000032900F05C810E490E480126294484F83C
:102EE000DE6081424FF04006A4F8E06000F2A98164
:102EF0000E2161F38D234FF40051D3605161D9E667
:102F0000C0280020000000209C29002028D40608AA
:102F1000401E1BFF3F420F00B429002000238DF804
:102F2000133094F8EE318DF81330B54BB548D3F823
:102F3000CC3C9847D4F8EC30D4F8E820986894F862
:102F4000E6304FF400615161002B3FF49FAEC207A1
:102F50007FF59CAE94F8F131012B7FF497AE9DF88C
:102F60001330032B7FF492AED4F8E831A6491A68E7
:102F700042F001021A601A6842F003021A600B69FB
:102F800043F006030B6181E6D4E93A167368002723
:102F900023F0010373600597059B43F0200305931D
:102FA000059B67F38A130593059B0B610B690593DA
:102FB000BC46964B03E00A690592013B02D0059A94
:102FC0009006F8D494F8DD2052B1914B03EB820EB9
:102FD000FF2253F8040F8260D86B73458260F8D1EA
:102FE0000B2363F3070763F3070C4FF0FF33B36161
:102FF0004FF00113F3617761C6F810C0336885485C
:103000006FF30A13336094F8DF20D4F83031012ACB
:10301000186100F0B5804FF480534B61784B7948CC
:10302000D3F8C83C984742E6D4F8E8309A6922F0D1
:1030300010029A611A6AC2F34340022802F00F019B
:1030400000F0B080062800F087809A6942F01002F4
:103050009A6129E694F8E6303BB1D4F8E821136888
:1030600023F0030161F307031360D4F8EC20644BF1
:103070006448D3F8D01C536823F001035360884799
:10308000D4F8E8304FF000425A61F9E5516BD8F8B6
:1030900000005B4B4FF0010C0CFA07FC21EA0C011D
:1030A00051630122D3F8BC3C8260314655489847B1
:1030B00094F8DF30012B00F0B18019F0020F3FF4DB
:1030C00047AED8F8003002229A609EE6CB0604D5BF
:1030D000D8F8003010229A6097E6480658BF894613
:1030E000EBD5D8F8003040229A608EE694F8DF20C5
:1030F000336801208242986007D11A69D8F87C337E
:10310000C2F312029B1AC8F88C33DBF8B83C504665
:10311000984794F8DF30012B7FF495AE002F7FF4B1
:1031200092AE94F8ED31052B7FF48DAED4F83031AA
:10313000384A1A61384A5A611A684FF080221A6078
:1031400081E610077FF57FAEDBF8C03C504698471C
:10315000336808229A6076E601EB810104EBC10135
:10316000D4F8AC61D1F86804C2F30A1202443068A2
:10317000C4F8A8063068C4F8AC06C1F8682464E74F
:10318000254A5A611A684FF080221A6043E70021ED
:1031900084F8DE104FF40071A4F8E010092161F307
:1031A0008D23A8E647F6F07010423FF44EAFC2F30D
:1031B0000A1201EB810004EBC00002F1030C5FEA8C
:1031C000AC0CD0F85C64D4F8ACE14FEA810818BFCD
:1031D000002006D00130DEF8007046F8047B8445FC
:1031E000F8D1414404EBC101D1F85C041044C1F8AA
:1031F0005C04D1F868040244C1F8682425E700BFE4
:10320000000000209C29002000ED00E0400D03009C
:10321000B029002018000860682F0020002F7FF4DC
:103220004CAF94F8ED31042B7FF447AFD4F8303134
:103230002B4A1A612B4A5A611A684FF080221A6091
:103240003BE72948A5F57401A1F51051814203D847
:103250000D2161F38D234EE62449254829448142FE
:1032600003D20C2161F38D2345E62248A5F18C7130
:10327000A1F54341814203D80B2161F38D233AE646
:103280001D491E482944814203D20A2161F38D233E
:1032900031E61B491B482944814203D2092161F3CD
:1032A0008D2328E61848A5F1B771A1F55851814240
:1032B00003D2082161F38D231DE6144914482944E3
:1032C000814203D2072161F38D2314E6114912488C
:1032D0002944814234BF0621052161F38D230AE68A
:1032E00018000860682F0020DFC810002013FBFEC4
:1032F00020D61300FF69180000D3CEFE40771B00D4
:10330000C05BB3FEC091210040AC2700C01D6AFE27
:1033100040E13300803C36FEE09C410082B08DED00
:10332000010A019802B07047C31783EA4000704752
:103330009FED087AC0ED020AC7EE007A0023036011
:1033400030EEA77AC0ED017AC0EE877AC0ED037A3D
:10335000704700BF83F9223E80ED010A704700BF2D
:1033600090ED017AD0ED007AC0ED020A30EE877A56
:10337000C0EE876A30EE677AE6EE877AB0EE670ACB
:10338000C0ED007A704700BF80ED000A704700BFB3
:103390009FED047AC7EE007A77EEA07A80EEA70A56
:1033A000704700BF4E2DA63D00230360436083603D
:1033B00080ED030A704700BF80ED030A704700BF2D
:1033C000F5EEC00AF1EE10FA06DCF0EE407A80ED80
:1033D000000AB0EE670A704760EE810A90ED007A4D
:1033E00077EE607AF4EEC07AF1EE10FA0ADC77EE4E
:1033F000200AF4EEC00AF1EE10FA8CBFF0EE407A2B
:10340000F0EE607AC0ED007AB0EE670A704700BF58
:10341000B4EEE00AF1EE10FA07D4B4EEC10AF1EE10
:1034200010FA88BFB0EE410A7047B0EE600A7047EC
:10343000894BB3FBF2F399420DD300234FF07E5238
:10344000026043608360C360036100238361436162
:103450000362C361704707EE902ADFED806AB8EE21
:10346000677A07EE901A27EE267AF8EE677A27EE4B
:10347000277AFDEEC77A17EE903A2033402B00F200
:10348000DA80DFED777AB4EEE77AF1EE10FAF0EE5B
:10349000477A0CDDDFED735A9FED736AF0EE676AD1
:1034A000F4EEC66AF1EE10FA77EEE57AF6DCDFEDBF
:1034B0006F6AF4EEE67AF1EE10FA0CD5DFED695A98
:1034C0009FED6B6AF0EE676AF4EEC66AF1EE10FAF1
:1034D00077EEA57AF6D4DFED676AF4EEE67AF1EEE0
:1034E00010FA00F39C80DFED646AF4EEE67AF1EE08
:1034F00010FA44BFDFED5D6A76EEE77A27EEA76A41
:10350000DFED5E5ADFED5E6A9FED5E5ADFED5E4AEB
:10351000E6EE256ADFED5D5AA6EE265A27EE864ACC
:10352000E6EE055AF7EE006AE4EE257AF0EE665A0A
:10353000E7EEA45AE7EEE46A86EEA54ADFED4D6AAF
:1035400077EE267ABDEEE76A16EE103A2033402B6E
:103550006AD8B4EEE67AF1EE10FA0CDD9FED416A1E
:10356000DFED416AB0EE677AB4EEE67AF1EE10FA7A
:1035700077EEC67AF6DC9FED3D7AF4EEC77AF1EE8F
:1035800010FA0CD59FED376ADFED396AB0EE677A35
:10359000B4EEE67AF1EE10FA77EE867AF6D49FED85
:1035A000357AF4EEC77AF1EE10FA49DD9FED2C7A08
:1035B00077EE677A67EEA76A9FED306A9FED307A03
:1035C000DFED304A9FED315AA6EE867A27EEA63A15
:1035D000E6EE874AB7EE006AA6EEA45AB6EE007A87
:1035E000E3EE057AF8EE003A36EE676A67EEA37A04
:1035F00026EE077AB7EE005AC5EE256A80ED044A3A
:1036000026EE877A26EE866A66EEA77A80ED007A45
:1036100080ED016A80ED027AC0ED037A15E7DFEDF7
:10362000106A76EEE77A69E7DFED197AB6EE007A8E
:10363000B7EE006ADEE7B7EE004AF0EE445A7DE7E7
:103640009FED0D7AF4EEC77AF1EE10FA44BF9FEDCC
:10365000077A77EE677AADE720A1070027D4D23644
:10366000DB0F4940DB0FC940E4CB1641DB0F49C0FB
:10367000E4CB16C1DB0FC93FDB0FC9BF9A7C2E36E6
:10368000FAAF4FB93587083CF304353FA4AA2ABEE8
:1036900000000000FDEEC07A17EE903A2033402B78
:1036A00053D8DFED2B7AB4EEE70AF1EE10FA0CDD19
:1036B000DFED286A9FED287AF0EE407AF4EEC77AC3
:1036C000F1EE10FA30EE660AF6DCDFED247AB4EEA5
:1036D000E70AF1EE10FA0CD5DFED1E6A9FED207AB5
:1036E000F0EE407AF4EEC77AF1EE10FA30EE260AE8
:1036F000F6D4DFED1C7AB4EEE70AF1EE10FA1FDC27
:10370000DFED197AB4EEE70AF1EE10FA44BFDFED0F
:10371000137A37EEC00A60EE007A9FED147A9FEDBF
:10372000146ADFED146AA7EE876A9FED137AE7EE5D
:10373000866A60EE275AA7EEA67AA5EE870A70473A
:10374000DFED037A37EEC00AE5E79FED0C0A70471C
:10375000DB0F4940DB0FC940E4CB1641DB0F49C00A
:10376000E4CB16C1DB0FC93FDB0FC9BF9A7C2E36F5
:10377000FAAF4FB93587083CA4AA2ABE0000000062
:103780009FED307A70EE077AFDEEE76A16EE903A1A
:103790002033402B53D8B4EEC70AF1EE10FA0CDDFB
:1037A0009FED296ADFED296AB0EE677AB4EEE67A1A
:1037B000F1EE10FA77EEC67AF6DC9FED257AF4EE9C
:1037C000C77AF1EE10FA0CD59FED1F6ADFED216A82
:1037D000B0EE677AB4EEE67AF1EE10FA77EE867A1A
:1037E000F6D49FED187AF4EEC77AF1EE10FA21DCE8
:1037F0009FED197AF4EEC77AF1EE10FA44BF9FED0F
:10380000147A77EE677A27EEA77ADFED146ADFED98
:10381000145A9FED146AE7EE265ADFED136AA7EEFD
:10382000256A27EE875AE7EE066AE5EE267AB0EEBD
:10383000670A70479FED0D7A77EE677AE3E79FEDB1
:103840000C0A7047DB0FC93FDB0FC940E4CB1641C0
:10385000DB0F49C0E4CB16C1DB0FC9BF9A7C2E3603
:10386000FAAF4FB93587083CA4AA2ABEDB0F4940FE
:1038700000000000B5EE400AF1EE10FA25D007EE88
:10388000902AF8EE670ADFED117A08B5034660EE7C
:10389000A70A0846F0EE406A13B9FFF749FD0CE0AD
:1038A000022B06D0032B08D1FFF772FDBDE80840BC
:1038B0007AE5FCF7EBFEFCF7F5FEFCEEE66A16EEA9
:1038C000903A99B2BDE80840B2E57047BD378635F9
:1038D000B5EE400AF1EE10FA01D1044B03E00328E3
:1038E0000CBF034B034B0B60704700BF250600085D
:1038F000B10600083907000890ED0E7AB5EEC07ADF
:10390000F1EE10FA00F3988030EE607AD0ED015AB3
:10391000037867EE255A002B5BD101F00103D0ED4F
:10392000117A002B61D077EE677AF0EE470A87EEC6
:10393000816AD0ED0F6AC0ED110AF5EEC06AF1EEB2
:1039400010FA57DCD0ED037A26EE276AD0ED056A2F
:1039500090ED105A60EE266A76EE857A77EEA57ABB
:1039600077EE867AF4EEE71AF1EE10FA00F384802F
:10397000B4EEE72AF1EE10FA8CBFB0EE670AB0EEB3
:10398000420A70EE677A90ED044AD0ED024AC0ED2B
:10399000135A67EE847A4A07E7EE247AB0EE457A46
:1039A000A1EE277A80ED125A80ED146AC0ED156AF7
:1039B00080ED160A08D5F0EEC77AF0EEC56AF4EE8F
:1039C000E67AF1EE10FA6BD580ED107A0B0756D43B
:1039D000704711F001034FF000020CBFF0EE607A67
:1039E000F0EE477A0270002B9DD177EEE07A87EEF9
:1039F000816A9EE7D0ED0B7AD0ED034AF5EE407A6E
:103A0000F1EE10FA05D19FED285AC5EE267AC0EDE9
:103A10000B7A71EE276AD0ED0A7A80ED0C1A81EEEE
:103A2000265A36EE676A80ED0D5AE5EE067A24EEE8
:103A3000A76AC0ED0A7A89E7D0ED077AF5EE407AF9
:103A4000F1EE10FA70EE606A05D19FED176AC6EECE
:103A5000077AC0ED077A71EE277A90ED067A80ED4D
:103A6000081A81EE276A76EEC77A80ED096AA6EE1B
:103A7000277A80ED067A49E7B0EE610A81E7F4EE35
:103A8000C71AF1EE10FA08DCB4EEC72AF1EE10FA0C
:103A90008CBFF0EE471AF0EE421AC0ED101A7047D4
:103AA000B0EE457A92E700BF83F9223E002301225F
:103AB0000270C36483640365036443644365836283
:103AC00083657047DFED1B7A80ED010AF4EEE70AAB
:103AD000F1EE10FAC0ED020A80ED031AC0ED051AEE
:103AE00012DC0023836003610023012280ED0F2A92
:103AF000C0ED0E2A0270C3648364036503644364EB
:103B00004365836283657047B4EEE70AF1EE10FA0D
:103B10000CDD81EE007AC0EE207AF0EE006A77EEDE
:103B2000877A86EEA77A80ED047ADDE700230361C9
:103B3000DAE700BFBD378635F0EEC07AB0EEE07A46
:103B4000B4EEE77AF1EE10FAB4BFB0EE676AB0EE09
:103B5000476AB5EE406AF1EE10FA46D0B4EEE77A65
:103B6000F1EE10FA8CBFF0EE675AF0EE475AC5EE50
:103B7000866ADFED1F2ADFED1F3ADFED1F4A9FED5A
:103B80001F5A9FED1F3A9FED1F4ADFED1F5AE6EEC9
:103B9000E23AA6EE834AE6EEA34AB7EE006AA6EE44
:103BA000A45AA6EE846AE6EE855AC5EE866AB4EE9D
:103BB000E77AF1EE10FA48BFDFED147AF5EEC00AAD
:103BC00048BF77EEE66AF1EE10FA48BFDFED107AF3
:103BD000B5EEC00A48BF77EEE66AF1EE10FA48BFCC
:103BE000F1EE666AB0EE660A7047DFED076ADEE75F
:103BF00039094E3DE3B59E3E88FA163E45FE7F3FAD
:103C000099FB243F69A2163EA7DFA834DB0FC93F0A
:103C1000DB0F4940B7EE007AF0EEC07AF4EEC77AD7
:103C2000F1EE10FA77EE676A1DD8B1EEE67ADFEDB5
:103C30000F5ADFED0F6A9FED0F6AE7EEA65ADFED30
:103C40000E6AA7EEA56AE7EE866A67EE266AB5EE0B
:103C5000C00AF1EE10FA44BF9FED087A77EE666A6B
:103C6000B0EE660A7047DFED066AF0E72716983D6A
:103C7000306E99BC843459BEA40DC93FDB0F494056
:103C800000000000B0FBF1F301FB130308463BB159
:103C90001946B0FBF1F301FB13030846002BF7D1E3
:103CA000704700BF44F25063984203DDA0F50C401A
:103CB000A0387047034B9842BCBF00F50C40A030C1
:103CC000704700BFB0B9FFFF48F69F43984203DD3D
:103CD000A0F50C40A03870470028BCBF00F50C4090
:103CE000A030704780EAE073A3EBE0738B4203DB04
:103CF000002803DD401A704700207047FDD00844BB
:103D0000704700BF884203DB9042A8BF104670474F
:103D10000846704700230361704700BF036970B510
:103D20000446ABB1224DD4ED067A77EE807A0133AA
:103D300004F11C062361C4ED067A3046FCF724FD2D
:103D40006268D5F8A0309B1AA268934208D870BD6B
:103D50004268174D002AE6D1D5F8A0204260E2E77C
:103D6000E06A94ED0A0A62F0EFFBD4ED057AB4EE56
:103D7000E70AF1EE10FA04DD237B7BB10323237005
:103D800070BDD4ED047AD4ED066AF8EE677A0223AA
:103D900086EEA77A237084ED067A70BDD5F8A01060
:103DA000616000222361A2613046BDE87040B1E746
:103DB000C02800202DE9F04100F11C0604463246DF
:103DC000054600F1640752ED017AB1EC010A77EE85
:103DD000807A104642ED017A1832FCF7D5FC974202
:103DE000F1D12369274F626801332361D7F8A030EE
:103DF0009B1AA268934229D904F14808E86A95ED14
:103E00000A0A62F0A1FBD4ED057AB4EEE70AF1EEFE
:103E100010FA05F118051BDCA845EFD1D4ED047AA2
:103E2000D4ED066A94ED0C7AD4ED125AF8EE677A66
:103E3000022386EEA76A2370C7EE276A85EEA77A6B
:103E400084ED066AC4ED0C6A84ED127ABDE8F08157
:103E5000237B1BB103232370BDE8F081D7F8A010AA
:103E60002361002230466160A261FFF753FF04F135
:103E700034002263FFF74EFFA26404F14C00BDE85A
:103E8000F04147E7C028002010B4019C401AA4EB81
:103E9000030C00FB0CFC511A5DF8044B9CFBF1FC7D
:103EA0000CEB0300704700BF30EE600A32EE612A6F
:103EB00071EE600A22EE002A82EE200A30EE210A1C
:103EC000704700BFD1ED007ADFEDE36A37EEA67AE6
:103ED000BDEEC76A16EE103A2033402B00F25D8229
:103EE000F4EEE67AF1EE10FA0CDDDFEDDC5A9FED30
:103EF000DC6AF0EE476AF4EEC66AF1EE10FA37EECD
:103F0000657AF6DCDFEDE26AB4EEE67AF1EE10FAFD
:103F10000CD5DFEDD25A9FEDD56AF0EE476AF4EE8C
:103F2000C66AF1EE10FA37EE257AF6D4DFEDCA6AEA
:103F3000B4EEE67AF1EE10FA00F30D82DFEDD36A0B
:103F4000B4EEE67AF1EE10FA44BFDFEDD16A36EE58
:103F5000C77A67EE076A9FEDC76A9FEDC75ADFED24
:103F6000C75AA6EE865A9FEDC66AE6EE855A27EE38
:103F7000264AA6EEA56AA4EE067AF0EE474ABDEE02
:103F8000E77A17EE103A2033402B00F203829FEDC0
:103F9000BD7AF4EEC77AF1EE10FA0CDD9FEDAF6A50
:103FA0009FEDAF7AF0EE676AF4EEC76AF1EE10FAB1
:103FB00077EEC67AF6DC9FEDB67AF4EEC77AF1EECC
:103FC00010FA0CD59FEDA56A9FEDA87AF0EE676A0E
:103FD000F4EEC76AF1EE10FA77EE867AF6D49FED2A
:103FE0009E7AF4EEC77AF1EE10FA40F309829FED63
:103FF000A57A77EE677A27EEA77ADFED9E6ADFED86
:104000009E5A9FED9E6AE7EE265ADFED9D6AA7EE67
:10401000256A27EE874AE7EE066AE4EE267AB0EED6
:10402000675A91ED017ADFED8C7A77EE276ABDEE63
:10403000E66A16EE103A2033402B00F2A481B4EE6B
:10404000E77AF1EE10FA0CDDDFED845ADFED847AC9
:10405000B0EE666AB4EEE76AF1EE10FA76EEE56A63
:10406000F6DCDFED8B7AF4EEE76AF1EE10FA0CD5B0
:10407000DFED7A5ADFED7D7AB0EE666AB4EEE76A7C
:10408000F1EE10FA76EEA56AF6D4DFED737AF4EE6F
:10409000E76AF1EE10FA40F3A781DFED7A7A77EE66
:1040A000E66A66EEA67ADFED735A9FED734A9FEDDE
:1040B000736AA7EEA54ADFED725AA7EE846A66EE30
:1040C000A73AE7EE865AE3EEA56A66EEC52A24EE25
:1040D000A63AB0EE666AFDEEC77A17EE903A203344
:1040E000402B00F24D81DFED677AB4EEE77AF1EE16
:1040F00010FA0CDDDFED595ADFED597AF0EE476A20
:10410000F4EEE76AF1EE10FA37EE657AF6DCDFEDF1
:10411000607AB4EEE77AF1EE10FA0CD5DFED4F5A83
:10412000DFED527AF0EE476AF4EEE76AF1EE10FA4C
:1041300037EE257AF6D4DFED487AB4EEE77AF1EE81
:1041400010FA40F34581DFED4F7A37EEC77A67EE1C
:10415000077ADFED485A9FED484ADFED486AA7EE3F
:10416000A54ADFED475AE7EE846A67EE273AE7EEA5
:10417000A65AA3EEA57AF0EE476AD1ED027ADFEDFA
:10418000365A37EEA57ABDEEC74A14EE103A203300
:10419000402B00F2EA80F4EEE57AF1EE10FA0CDD45
:1041A000DFED2E3A9FED2E4AF0EE475AF4EEC45A58
:1041B000F1EE10FA37EE637AF6DCDFED355AB4EE45
:1041C000E57AF1EE10FA0CD5DFED243A9FED274A9F
:1041D000F0EE475AF4EEC45AF1EE10FA37EE237AB5
:1041E000F6D4DFED1D5AB4EEE57AF1EE10FA40F3A5
:1041F000E380DFED245A35EEC77A67EE075A9FED6C
:104200001D4A9FED1D2ADFED1D3AA5EE842A9FED84
:104210001C4AE5EE823A67EE251AA5EEA34AA1EE06
:10422000847A25EE072A64EE871A26EE821A26EE95
:10423000077A26EEA10AFDEEE75A15EE903A2033F2
:10424000402B00F28D80DFED0F5AF4EEE57AF1EEAF
:1042500010FA2CDD1EE000BFDB0FC93FDB0FC940A9
:10426000E4CB1641E4CB1641DB0FC940E4CB16C1C9
:10427000DB0FC93F9A7C2E36FAAF4FB93587083C21
:10428000A4AA2ABEDB0F494000000000DB0FC9BF13
:10429000DB0F49C05FED0C3A1FED0E4AF0EE675A96
:1042A000F4EEC45AF1EE10FA77EEE37AF6DC5FED45
:1042B000085AF4EEE57AF1EE10FA0CD55FED163AF5
:1042C0001FED164AF0EE675AF4EEC45AF1EE10FAFA
:1042D00077EEA37AF6D45FED1A5AF4EEE57AF1EEB2
:1042E00010FA5DDD5FED195A75EEE77A27EEA74A01
:1042F0005FED205A5FED203A5FED200AE4EE253AAB
:1043000067EE845AE4EE230A5FED233AE4EE203AA6
:10431000E5EEA37A64EEA74A65EE275AA6EEA42A34
:10432000E6EEE51A67EEC67A31EE241A75EEC05A4B
:1043300080ED007AC0ED017AC0ED026A80ED031ACB
:10434000C0ED041AC0ED052AC0ED065A80ED072A1B
:1043500080ED083A70475FED356A36EEC77AF8E5CA
:104360005FED375AF0EE657AE0E71FED392AF0EE9F
:10437000421AB0EE420AB0EE421AB0EE427A5AE762
:104380005FED3F6AF9E61FED403AF0EE432AB0EEEA
:10439000436AA0E61FED445A43E65FED454AEEE569
:1043A0005FED465AF4EEE57AF1EE10FA44BF5FEDA8
:1043B000485A75EEE77A99E75FED4C5AB4EEE57A24
:1043C000F1EE10FA44BF5FED4E5A35EEC77A14E7AE
:1043D0005FED527AB4EEE77AF1EE10FA44BF5FED8A
:1043E000547A37EEC77AB2E65FED587AF4EEE76AB0
:1043F000F1EE10FA44BF5FED5A7A77EEE66A50E6C6
:104400001FED5E7AF4EEC77AF1EE10FA44BF1FEDAD
:10441000607A77EE677AEEE500230361436183619A
:10442000C3610360036243628362C36243600363E8
:1044300043638363C3638360036443648364C364CB
:10444000C3607047D1ED017A91ED007AD0ED044A56
:1044500090ED065AD0ED075A90ED050AD0ED080A06
:10446000D0ED0A1AD0ED0C2A90ED0D3AD0ED0E3AAF
:1044700090ED091A90ED0B2AF8EEE76AD1ED027A79
:10448000B8EEC77AF8EEE77A26EEA64AA7EE275AE4
:10449000E7EE074AB0EE446A75EE875AA7EE076A60
:1044A000E7EE272AE7EEA73AA7EE260AE7EE260A66
:1044B000E6EEA71AA6EEA73A31EE041AC0ED044ABA
:1044C00090ED0F4AD0ED104A80ED065AC0ED075A24
:1044D00090ED115AD0ED125AC0ED0E3AA7EEA76A30
:1044E00034EE274A74EE874A75EEA75A35EE265AFF
:1044F00032EE262A80ED0F4AC0ED104A80ED115AA7
:1045000080ED050AC0ED080A80ED091AC0ED0A1A0F
:1045100080ED0B2AC0ED0C2A80ED0D3AC0ED125A49
:1045200090ED004A90ED025AD0ED014AD0ED133AD9
:10453000D0ED035AA7EE064AB0EE457AA7EE867A8A
:10454000E6EE864AF7EE007A73EEA77A35EE866AD3
:10455000C0ED137A80ED004AC0ED014A80ED027A89
:1045600080ED036A704700BF10B5002403468446FF
:104570008646002C00F00E81DEED006A9CED007A8C
:10458000D3ED007AE6EEC77A012CC3ED007A00F095
:104590001081DEED016A9CED047AE6EEC77A032C09
:1045A000C3ED007A6CD1DEED026A9CED087AE6EE8E
:1045B000C77AC3ED007AD2ED007A90ED085AD0EDBB
:1045C0000C5AD0ED044A92ED017AD2ED026A92EDD6
:1045D000036AA7EEE47AE7EEC56AA7EEE56A90ED16
:1045E000095AD0ED0D5AE7EE456AA5EEC76AD0ED3F
:1045F0000E5AA5EEE66A81ED036A90ED0F5AC1ED01
:10460000026AC6EE055AC1ED035A90ED0B6AE5EE5B
:10461000C66AC1ED026A90ED0A5A81ED017A86EE12
:10462000856A81ED026AD0ED066AA6EE667A81EDB2
:10463000017AD0ED076AA5EEE67A81ED017A90ED78
:10464000055AC1ED007AC7EE056AC1ED016A90ED29
:10465000017AE7EE667AC1ED007A90ED027AE7EE34
:10466000467AC1ED007A90ED037AE7EE657AC1ED06
:10467000007AD0ED006A87EEA67A81ED007A10BD4F
:104680009EED007ADCED016AD3ED017AE7EE667A01
:10469000022CB1EE476AC3ED017ADEED016A9CEDB2
:1046A000057AE6EEC77AC3ED017A40F0B580DEED1B
:1046B000046A9CED007AD3ED047AE6EEC77A012C09
:1046C000C3ED047A40F28880DEED056A9CED047A41
:1046D000E6EEC77A032CC3ED047A40F08480DCED6B
:1046E000086A9EED066A93ED007AE6EE667AC7EEFA
:1046F000876AC3ED046A9EED086ADCED006AD3EDBB
:10470000087AE6EE667A012CC3ED087A74D99EED3C
:10471000096ADCED046AE6EE667A032CC3ED087ADA
:1047200007D19EED0A6ADCED086AE6EE667AC3ED13
:10473000087A93ED086AD3ED0C7AC6EE076A032C6B
:10474000C3ED086A9CED006ADEED0C6AE6EE667A5F
:10475000C3ED0C7A9CED046ADEED0D6AE6EE667A36
:10476000C3ED0C7A07D19EED0E6ADCED086AE6EE29
:10477000667AC3ED0C7AD3ED0C6AC6EE877AC3ED88
:104780000C7A013414330EF1100E0CF1040C002CD1
:104790007FF4F2AED3ED047A93ED007A93ED086ADC
:1047A000C7EE876AC6EE077AC3ED046AC3ED087ADE
:1047B000E1E7DEED006A9CED016A93ED017AD3ED4D
:1047C000027AA6EEC67A83ED017A9CED027AE7EED4
:1047D000667AC3ED027A6AE793ED007AC7EE876ADC
:1047E000C3ED046A87E793ED007AC7EE876A022C6F
:1047F000C3ED046AC5D07EE7C7EE876AC3ED086AD9
:10480000BFD09CED006ADEED0C6AD3ED0C7AE6EECB
:10481000667AC3ED0C7AAEE79CED027AD3ED027AAC
:10482000E6EE077A032CC3ED027ADCED066A9EED14
:10483000017AE6EEC77AC3ED027A7FF438AFDEED97
:10484000026A9CED0A7AE6EEC77AC3ED027AB2E616
:1048500010B584B00C46024669461030FFF784FE5E
:10486000DDED006A9DED017ADDED027AB6EE006ABB
:1048700066EE866A27EE067A67EE867A0120C4ED38
:10488000006A84ED017AC4ED027A04B010BD00BF65
:1048900020EE000AFEEE007A60EE277A60EEA00AB3
:1048A0009FED020AC7EEA00A65F072BD54F82D40D4
:1048B00008B562F0E3FD07EE900AF5EEC07AF1EE7E
:1048C00010FAACBFB1EEE70A9FED010A08BD00BFC8
:1048D0000000000060EEA00AE0EE000AB1EEE00A7F
:1048E000704700BF21EE011AA0EEA01AA0EE001A38
:1048F000B1EEC10A704700BF2DE9F04F83B0054605
:104900009DF830400D9E0192002C14BF4FF03009ED
:104910004FF020091C1E88464ADB16F8010B0146A1
:1049200000286CD0002C65D04FF0000A324601E020
:10493000002C34D012F8013B2746013C002BF7D164
:10494000BAF1000F3CD1023F002C65D0BA46454574
:104950000AF1FF3A4946284601D2019B9847BAF12D
:10496000FF3FF4D10D9A107823463C1B01469B462D
:1049700088B14FF0000A01339F1B454506EB070B3A
:10498000284601D2019B984716F8011B0029F4D153
:10499000BAF1000F18D1584603B0BDE8F08FBAF154
:1049A000000F31D0014683460028F4D02346E2E7C9
:1049B00016F8010B634258B31C464FF0010AB5E7E5
:1049C000014683460028D6D1002C04F1FF36E2DDF3
:1049D0003446454506F1FF364946284601D2019B3B
:1049E0009847731CF5D10BF1010BA344584603B053
:1049F000BDE8F08F2346A2464FF0FF34BBE7671EA9
:104A0000A346002CA2D1C6E723464FF0FF34ADE702
:104A1000E64383463446DCE723463C46A6E700BF30
:104A20000FB430B583B006AB0C4853F8042BD0F864
:104A30002419D0F8200901935FF05EF8084C054670
:104A4000D4F8300803685B6998470028F8D02846F6
:104A500003B0BDE8304004B0704700BFC02800205C
:104A6000C81700200EB410B583B005AB044653F848
:104A7000042B0749009301A801945FF03DF8019BC6
:104A800000221A7003B0BDE8104003B0704700BFA9
:104A9000DD0700080CB4F0B53C4CD4F82839ADF56E
:104AA000277D002B4CD094F83039994240D8D4F867
:104AB000A030374AA2FB031292094FF47A7101FB2E
:104AC000123306A83349FFF7CDFF06AB0344324942
:104AD000AC9A01930646ADAB01A800935FF00CF8C9
:104AE000019BD4F828590A210246581C01901970DC
:104AF000019B591C01910021197035B32B681B6A69
:104B00001BB128469847D4F828599DF8181049B188
:104B10000DF119042B6828461B68984714F8011BEF
:104B20000029F7D10DF5277DBDE8F04002B07047B0
:104B3000D4F83429012303FA00F01042B7D1F1E789
:104B4000D4F82C39002BAED1ECE7D4F82C79002F17
:104B5000E8D0901926AB841CFD20CDE9045506A9A8
:104B60002246ADF81000184668F088F90222034684
:104B7000044402A93846CDE9023430F02FF90DF58E
:104B8000277DBDE8F04002B0704700BFC02800207C
:104B9000D34D6210B86207087D07000830B54FF4A6
:104BA000004087B02BF074FE58B14FF4004104462A
:104BB0002CF024FA022806D1226848F201039A4216
:104BC00024D007B030BD00234FF46121022294F9B4
:104BD00004008DE80E001A464FF400412CF018FA3C
:104BE0001C4BC3F828090028EBD01B4A1B4B1C4C5C
:104BF0001C481D490091CDE90332CDE901041B4B4E
:104C00001B4A02210020FFF745FFDAE7114C00257F
:104C10004FF4004084F8CC5B5EF048F90028D0D017
:104C2000D4F8383983420AD0D4F8143A83420BD0EE
:104C3000D4F8F03A98420AD0C4F82C59C1E704F6E7
:104C40003813C4F82C39D0E704F61423F9E704F537
:104C50002F63F6E7C0280020DC620708E862070837
:104C6000F46207080063070878620708886207088B
:104C7000C462070838B5174CD4F8D854033005EB94
:104C80009003B3F5007F18D804EB810120F00302F4
:104C9000D1F8DC0CC4F8D8341044C3F5007304F226
:104CA000DC44C1F8DC0C0C4A04EB85049B000421B5
:104CB0000020FFF7EFFE204638BD00210846074AD6
:104CC000FFF7E8FE064A9368002443F00073936000
:104CD000204638BDB04A0020206307084463070817
:104CE00000000010F0B5254B0268254983B0064648
:104CF000002401E051F834309A4209D001340E2CDE
:104D0000F8D100211F4A0520FFF7C4FE002113E05F
:104D10001D4F07EB8407D7F8A45085B1717901EBDB
:104D2000410305EBC30300221820C3E9032200FB63
:104D300001559E601A75291D084603B0F0BD072174
:104D40006420FFF797FF0146C7F8A40070B1294619
:104D5000642268F0CCFA0A4BD7F8A45003EBC404E1
:104D6000C5E90045ED616D63ED64D7E70190074A41
:104D70000520FFF78FFE0199DEE700BF000001402C
:104D800080D4060854630708C02800207C63070805
:104D900003681A46591C016012F8021B0260587819
:104DA00041EA0020704700BF02681146531C0360AF
:104DB00011F802CB0160D31C5178036093781B0477
:104DC00043EA0123111D0160D07843EA0C0343EA52
:104DD0000060704712B370B50446864604E0981B25
:104DE00017D114EB0C0C15D01EF8013BA3F14100B8
:104DF000192811F8010BA0F1410598BF2033192D96
:104E0000A2EB0E0C00F12006E9D91B1A04D10028F0
:104E1000E7D170BD604670BD184670BD1046704742
:104E200010B40288C378184CA2F5FA6202F00301AC
:104E300040F2B55C9208013B0CFB0233827801EB37
:104E40004101013A02EB810204EB42010279B1F81F
:104E500094424179234403EB430302EBC303847977
:104E60000A4A0089C3EB031301EB8303C3EB03136B
:104E7000224402EB830200214FF47A73C2FB030148
:104E80005DF8044B704700BF28D4060880436D3896
:104E90002DE9F04117461E4605464FF47A7200236D
:104EA0003846314662F048FC4449454A014482FB99
:104EB0000143C8170B44C0EB631382FB03021A447F
:104EC000D817404CC0EB621284FB02044FEAE27C2C
:104ED0003D48CCEBA40C80FB0C404FEAEC74C4EBD7
:104EE000E010C3EB0314A1EB8401A971C2EB021122
:104EF000A3EB81036B710CEB4C03A2EBC30240F2FA
:104F0000B55303FB10CCBCF5896F2A714FEA8000C2
:104F100045DA40F2DA239C4548DCBCF5B77FB4BFE4
:104F200000220122294B02EB420103EBC1034FEAAD
:104F30004208B3F8AA3291B2254C08EB020E04EBFA
:104F4000CE0416344FF00B0E01E034F8023D6345F9
:104F500020DDBEF1010EF8D11C4B424403EBC2022E
:104F60004FF0010EB2F8943285F802E000F5FA60D5
:104F70000CF1010C0844ACEB030C288085F803C04D
:104F80004FF47A7200233846314662F0D5FB2A810D
:104F9000BDE8F0810EF1010E5FFA8EFEE4E7032119
:104FA00040F296530A464FF00608C5E7022140F248
:104FB00029430A464FF00408BEE700BF80BC92C7F1
:104FC00089888888ABAAAA2A73B06D1628D40608E7
:104FD000BCD6060830B52E4D84468E460FCD8DB01A
:104FE0006C460FC40FCD0FC495E80F001CF0030FE3
:104FF00084E80F000DD1274B274A03FB0CF3B2EBDB
:10500000B30F43D3254AB2EB331F2CBF1D241C24FE
:1050100000E01C240CF1FF33002B40F26D12194606
:1050200002FB0CF2B8BF0CF1020102EBA1021C4919
:105030001C4D019481FB0301DB17A3EB61100244BB
:10504000C3EBE1131A44253285FB02301044D31719
:10505000C3EBA000C0EBC000ADF10403101A0DF1CA
:10506000040C03EB8E0E01E05CF8044F031985FB82
:105070000320C218D817C0EBA200C0EBC000E64561
:10508000A3EB0000F0D1201A0DB030BD1D24C1E704
:105090001CD70608295C8FC2285C8F020AD7A300A0
:1050A0001F85EB519324499208B50E4BD3F8602D20
:1050B000D3F8643D52EA030C09D1002340F20112F7
:1050C00042808380837103800381184608BD0649AE
:1050D000D1F8A0108A1843F10003FFF7D9FE012090
:1050E00008BD00BFB04A0020C02800208842F0B5AB
:1050F0004FF0010461D301FB04F4B0FBF4FC8C45D8
:10510000F9D284B3002A45D0002511E0BCF1090F83
:105110002646CCBF372230229444B14283F800C0E7
:10512000744603F1010305F101051CD8B0FBFEFC38
:10513000B4FBF1FE04FB1C00002DE7D1BCF1000F15
:10514000E4DCA1420BD8B0FBFEFCBCF1000F7446BE
:105150000EFB1C00BEFBF1FED8DCA142F3D90CF122
:10516000300C03F801CB00221A70F0BDBCF1090F1E
:105170002646CCBF4FF0570E4FF0300EF444B142EC
:1051800083F800C02C4603F1010302F10102EAD8C2
:10519000B0FBF5FCB4FBF1F504FB1C00002AE5D1E3
:1051A000BCF1000FE2DCA142D9D8B0FBF5FC2C46E3
:1051B00005FB1C00B5FBF1F5F2E78446002AA3D1FC
:1051C000E8E700BF002870B503DA2D2301F8013BA2
:1051D0004042092804464FF0010307DD03EB830337
:1051E0005B00B0FBF3F2092AF8D83BB3164D4FF041
:1051F000000C0AE0092A8CBF572130210A44092BF0
:105200000EF8012B16D971460346A5FB0320B4FB0B
:10521000F3F25CEA02068E464FEAD00003FB12442A
:105220000CF1010CE6D1092B01D9B446EBE7303281
:105230000EF8012B00238EF8003070BD8E4600233F
:105240008EF8003070BD00BFCDCCCCCC90422DE9A3
:10525000F0410B46044615460AD2B0FBF5F6134A58
:1052600005FB16441846135D00F8013BBDE8F081CC
:10527000B0FBF2F69642B6FBF2F706D20B4A05FBFC
:105280001767D15D03F8011BEAE7BA42B7FBF2F8F2
:1052900007D9064A05FB187812F8081003F8011B15
:1052A000EDE74046FFF7D2FF0346F2E798630708B1
:1052B000007970470079C0F34010704700794009C9
:1052C000704700BF90F83020034602F0FF0012B193
:1052D000002283F8302070474FF4006383817047C9
:1052E00001207047012070472DE9F84F6F4DDFF81E
:1052F000C081B5F80690D8F8000016462A88C2EB9F
:10530000201303FB03F30F46B5F904101C135200DE
:10531000B5F90230C2EBE00201FB04F403FB02F238
:10532000A41304EBE224B5F90A30B5F90820AC6106
:10533000A4F5FA3080FB001E4FEAE37B03FB0EFA74
:1053400082FB002C01FB0BAAA3FB013BDA444FEAD2
:105350000C3C1B0A4CEA125C43EA0A6312039A18DB
:105360004CEB2A2AA2FB09320AF5004A09FB0A2A59
:105370004FEAEA7353EA6A0C00F09680B5F90EC062
:10538000D8F804904FEA6A02B5F910A08CFB000C23
:105390004FEAEA780AFB0EFE4FEA4C4C4CEAD03C4E
:1053A00001FB08EE4004AAFB01A110EB0A008E44A9
:1053B0004FF000014EEB0C0E0818B5F90C10C9F5B2
:1053C00080190EEBC1014FEAC97809F0004EB8EB25
:1053D00000084EEA590E6EEB010E18EB080C4EEB6E
:1053E0000E011CEB080C4EEB01014FEA81194FEA4C
:1053F0008C1049EA9C691CEB000C41EB0901890007
:1054000041EA9C714FEA8C0C1CEB080C4EEB01013D
:105410004FEA8C00890010EB080041EA9C714EEBCA
:10542000010162F089F9B5F91690B5F914E04FEA77
:105430006138430B43EAC1434FEAE97C09FB08F2B8
:1054400003FB0C22B5F912C0A9FB0359914405FBDB
:1054500008F203FB0922A5FB03531A446D0E45EA2B
:10546000C2152B1841EB62654FEAEE720EFB01F19B
:1054700002FB0011AEFB00200144D20C42EA413293
:105480009B1845EBE1411B0A43EA016303EB0C1354
:105490000FB11B0A3B6026B104EB84048034241254
:1054A00034600120BDE8F88F0023F1E7483900207F
:1054B00030770020012070470A4B0B481B6880683A
:1054C0001B1AFA2B09D811B1084B1B680B6032B1BB
:1054D000074B1B68136001207047002070470120B4
:1054E000704700BF6029002030770020804F0020E7
:1054F000844F0020034B0022C3E90322C3E90522A5
:105500000120704730770020094B0A4A1B689169D7
:105510005B1AFA2B0AD810B4D2E903415369C48646
:10552000018743875DF8044B0120704700207047D6
:105530006029002030770020014B1B685B6818470A
:105540008C3C0020024B1B6808309B68184700BF4A
:105550008C3C0020012070470120704701207047DB
:105560000120704731B10C4BD3ED007AF8EEE77AA9
:10557000C1ED007A72B1094BDFED096A1B68A3F532
:10558000D543333B07EE903AF8EEE77A87EEA67AFA
:1055900082ED007A704700BF784F00207C4F0020DA
:1055A0000000C8420120704701207047704700BFCB
:1055B000054A064B91790648064A032998BF0346D7
:1055C00011771362704700BF74370020AD55000893
:1055D0002561000830770020034B03EB8000436A0D
:1055E0000BB19B681960704730770020074A536EF3
:1055F0005BB140B19968B2F86820054BB3FBF2F398
:105600005B100B6070479B68186070473077002014
:1056100040420F000C4A13787BB10C4B93F86A1090
:1056200059B193F86B1059B150680022FA2883F8E9
:105630006B20A8BF4FF0FF3070476FF0010070473C
:105640006FF00200704700BFB80D002030770020D7
:105650000B4B93F86C2082B193F86D2052B109493D
:1056600088680022B0F5967F83F86D20A8BF4FF0C0
:10567000FF3070476FF0020070476FF00100704715
:1056800030770020B80D0020014B1B685B6818477D
:10569000803C0020014B1B689B681847803C002021
:1056A000014B1B68DB681847803C0020014BD86821
:1056B000704700BFB80D0020044B93F86E3013B153
:1056C000034B186970476FF0010070473077002076
:1056D000B80D002038B50568EB6904466BB19878C1
:1056E00000B938BD9A8852BAE281DA8852BA228269
:1056F0001B895BBA0120638238BD09211420FFF7A2
:10570000B9FA0346E861EAE738B50468E3690D468B
:105710007BB1987800B938BD5B89094ADBBA82FB56
:105720000312DB17C3EB221303F26D132B8001204E
:1057300038BD09211420FFF79DFA0346E061E8E730
:105740007978787870B50568E8690C461646A0B394
:10575000D0F80130CCB1D0F805209FED1B7ADFEDF9
:105760001B5ADFED1B6A07EE902AF8EE677AB7EE58
:10577000006A77EEC77A77EEA77A87EEA57A77EE9A
:10578000467A67EEE67AC4ED007AAEB107EE903A5B
:105790009FED107ADFED106A9FED106AF8EEE77A60
:1057A00067EE877A87EEA67ADFED0D6A77EE467AA6
:1057B00077EEA67AC6ED007A70BD09211420FFF7B6
:1057C00059FAE861C4E700BF9AC9CC449AC94C466B
:1057D0000E76D7450000484300E0FF4400004842F1
:1057E000339388432DE9F04FB54D002605F1700C39
:1057F00095F8B410A5B00A243346E64637469BE038
:1058000002EBC70205EB4200C2F30727B0F8B8006D
:1058100010F0040F5FFA82FEC6B24FEA102900F0C2
:10582000C480480614D403F10208B8F18C0F41F08B
:10583000400100F2FC800DF1900A581C53444FF0D7
:10584000040A03F88CAC24AB034403F88C1C4346D5
:1058500003F10208B8F18C0F47F0020B00F2E78069
:1058600024A8184400F88BBC4FF0050B00F88CBC42
:1058700003F1040BBBF18C0F00F2D9800DF1900AFB
:10588000D044B6004FF0060A08F88CAC5FFA86F8F0
:105890009E1D8C2E00F889EC00F2C9800DF1900A53
:1058A000D3444FF0070A0BF88CAC00F8878C03F157
:1058B0000808B8F18C0F00F2BA800DF1900B5E442D
:1058C0004FF0050B06F88CBC03F10A068C2E00F88D
:1058D000857C00F2AC8024AFB8444FF0060A08F88B
:1058E0008CAC00F883EC03F10C008C2800F29F8054
:1058F0000B333B443E444FF0070A06F88CAC03F8E8
:105900008C9C0346570902F01F00012686405CF874
:105910002700013C20EA06004CF8270000F08A80AE
:10592000561CB6F5F07F80F0858072090CEB820E74
:105930009700644A96457DD206F01F024FF0FF3073
:10594000DEF8006000FA02F2324092FAA2F2B2FAF5
:1059500082F2D2B2202A7FF453AF5A4A0EF10400E9
:1059600090421AD2584AA2EB0E0727F003070EF115
:10597000080E774401E0B8420FD006460430326882
:1059800092FAA2F2B2FA82F2D2B2202AF3D0A6EBB5
:105990000C0612EBC6027FF535AF85F8B410184639
:1059A000002B49D125B0BDE8F08F11F0400F03D195
:1059B00001F03808B04513D021F078019E1C014356
:1059C0008C2EC9B233D80DF19008581C43444FF0C7
:1059D000040803F88C8C24AB034403F88C1C334676
:1059E000981C8C2823D824AE06EB03084FF005063C
:1059F00008F88C6C1E1D8C2E08F88B7C17D824AFF1
:105A000038444FF0060700F88C7C981D8C2808F865
:105A100089EC0CD824AF3E444FF0070706F88C7C85
:105A2000053324AE334403F88C9C03466AE76FF0D9
:105A3000004367E785F8B410D5F8AC40234994F9E2
:105A40001020A56802EB820201EB82025069AA07CE
:105A500022D501AA002160F02BFFA3689B0703D584
:105A6000012025B0BDE8F08F194B1A491A681A4B6E
:105A70004FF4FA7000FB02F2A3FB0232486892096D
:105A80004B681B1A9A42FBD26369002BE8D01A6854
:105A90009B881383012085E7626912B1116892889F
:105AA0004A830B4A0B4D11680B4A6E68C900A2FB72
:105AB000012189096A68921B9142FBD2C9E700BFA4
:105AC00030770020DC770020D7770020B80D002049
:105AD000DC310020001000E0D34D621010B5D84C2E
