:020000040800F2
:100000000000011079BC0708612500080D7A02087C
:1000100019BD070819BD070819BD07080000000031
:100020000000000000000000000000003D49000842
:1000300041490008000000004549000885EE00081D
:1000400019BD070819BD070819BD070819BD07081C
:1000500019BD070819BD0708B5B70008B9B70008EA
:1000600019BD0708BDB70008C1B70008552B000827
:10007000692B00087D2B0008912B0008A52B000898
:10008000B92B0008CD2B000819BD070819BD0708BA
:1000900019BD070819BD070819BD0708C5B700082D
:1000A000012A0008292A0008512A0008ED29000821
:1000B000792A00088D2A0008A12A000819BD07081E
:1000C00019BD070819BD070819BD070819BD07089C
:1000D00019BD07086525000819BD07087125000826
:1000E000C9B7000819BD070849490008DD2A0008FA
:1000F000052B00082D2B0008C92A0008E12B000859
:1001000019BD070819BD0708B52A000819BD070859
:1001100019BD070819BD070819BD070819BD07084B
:10012000F52B0008092C00081D2C0008312C0008B4
:10013000452C000819BD070819BD070819BD070897
:1001400019BD070819BD070819BD0708954900081A
:10015000592C00086D2C0008812C00087D25000812
:1001600019BD070819BD070819BD070819BD0708FB
:1001700019BD070819BD070819BD070819BD0708EB
:0801800019BD070819BD0708AD
:10019000D0E907239A423CBFC1685218D01A704771
:1001A000D0E9092300699A4238BF1218D31A0138DE
:1001B000C01A7047D0E90902101AB0FA80F040095D
:1001C000704700BF0246036A4069D168C05C0133D2
:1001D0008B4228BF00231362704700BF436A8269C5
:1001E000D154436A0169426B01338B4228BF00231B
:1001F0004362D36843F08003D3607047436B188831
:1002000010F0100002D01A889B880120704700BFB0
:10021000436B99891A88890610B504460AD592B2AB
:10022000900607D5E26A002A2AD09888216B80B20E
:100230009047636B99891A88090692B210D5100607
:100240000ED5D4E909128A4215D0A1692069895CCA
:100250000132C9B29980B2FBF0F100FB1122A26217
:10026000998A1A88C90592B204D5D20744BF4FF6BD
:10027000F7721A8010BDDA6822F08002DA60EFE7C8
:100280009B88E2696169DBB28B54E269E168636B68
:100290000132B2FBF1F001FB1022E261CAE700BFBC
:1002A000036942681F2B10B40AD95468A3F1200CCB
:1002B000202101FA0CF1214207D15DF8044B70476F
:1002C0001468202199402142F7D081690024C86830
:1002D0000C7480684C68016821F00101016020689D
:1002E00094F805C00C4C818934F81C4089B221EA8D
:1002F00004011F2B818107D9A3F1200120238B400A
:100300005DF8044BD3607047202101FA03F35DF8D8
:10031000044B9360704700BF7C2A080882B0092212
:10032000274B8DF80720DA68D00319D4DA68D10694
:1003300040D4DA68D20541D4DA6812F0E00F3BD13C
:10034000DB6813F0020F0CBF092308238DF8073078
:100350009DF80730012B0AD09DF8070002B07047C6
:1003600001238DF807309DF80730012BF4D1144A92
:1003700012E0D368DB0519D4D36813F0E00F17D16E
:10038000D36813F0020F0CBF092308238DF8073040
:100390009DF80730012BDFD1D168C8034FF001036E
:1003A000F4D4D368D906E4D50623EFE70223EDE7BA
:1003B0000723EBE70623D4E70723D2E70223D0E79E
:1003C000003C0240704700BF704700BF704700BF4D
:1003D00001207047034BD3E90003C01AC0F30A00A1
:1003E000704700BF501D0020054AD2E90013994212
:1003F000FDD0D1180133C3F30A03087A5360704764
:10040000501D0020064BD3F8080800B97047D3F8F8
:100410000808A0F10500B0FA80F04009704700BF5D
:10042000501D0020012380F849307047044BD3E968
:100430000003C01AC0F30A00C0F50060704700BF97
:10044000501D002010B5D0F8E83504461B699847C8
:10045000032384F81231002010BD00BF08B5042228
:1004600090F81211D0F8E83580F8131180F81221B5
:10047000DB689847002008BD08B5D0F8E435DB6993
:1004800003B19847002008BD08B5D0F8E4351B6AD1
:100490009847002008BD00BF08B5D0F8E4355B6A76
:1004A0009847002008BD00BF70B5037805460E468A
:1004B0001446DBB101307AF05BFD431CDBB2013343
:1004C0005B00DAB223800323327073702C7864B13E
:1004D0002846022300215A1CD2B2F454B15410F819
:1004E000014F0233DBB2002CF5D170BD022213465E
:1004F000E8E700BF10B5074C2068FF2808D0064980
:10050000D1F80C2801F5016100F082F8FF23236087
:10051000002010BD00000020501D00204323014892
:100520000B80704704000020122301480B807047A5
:1005300048000020042301480B8070475C00002025
:1005400010B5044C04480A462146FFF7ADFF20468B
:1005500010BD00BF6825002060DD080810B5044C00
:1005600004480A462146FFF79FFF204610BD00BF02
:10057000682500206CDD080810B5044C04480A46C4
:100580002146FFF791FF204610BD00BF68250020DF
:1005900074DD080810B5044C04480A462146FFF7EC
:1005A00083FF204610BD00BF6825002080DD0808BD
:1005B00010B5044C04480A462146FFF775FF204653
:1005C00010BD00BF682500208CDD0808704700BF03
:1005D000704700BF704700BF704700BF704700BF43
:1005E000704700BF704700BF044B00200522C3F8CE
:1005F0000828C3F81809C3F81C097047501D0020CB
:10060000024B0020C3F80808704700BF501D0020AF
:10061000212838B50C4625D0222816D0202812D102
:1006200089B1072A0FD1174DD5F81C3913B10968C4
:10063000002098472168A288A379C5F82019A5F859
:10064000242985F82639002038BD0029FBD0022A4C
:10065000F9D10C4BD3F81839002BF4D009880020BD
:100660009847F0E70029EED0072AECD1054BD3F8E4
:100670002019B3F8242993F826392160A280A371A8
:10068000E1E700BF501D002010B4114CD4E9003246
:100690009A1AC2F30A020A44B2F5006F13D871B174
:1006A00001444A1E013810F801CFE118904203F1CD
:1006B000010381F808C0C3F30A03F4D123600020CA
:1006C0005DF8044B704702205DF8044B704700BF93
:1006D000501D002010B58121044679F03FFA2046D4
:1006E000012179F03BFA2046822179F037FAFFF7B1
:1006F00087FF002010BD00BF034610B4D9691A69F6
:10070000002040F20114A3F844410860D1699C6DB7
:1007100021F002014FF0010CD161A3F89CC32060CD
:10072000D369044923F4003381F827095DF8044BA9
:10073000D3617047501D0020202301480B80704773
:1007400060000020122301480B80704780000020C9
:10075000042301480B807047940000200A4608B526
:10076000054920B90548FFF79FFE034808BD044826
:10077000FFF79AFE004808BD782600209CDD080897
:10078000B4DD080810B5044C04480A462146FFF7BA
:100790008BFE204610BD00BF78260020CCDD080867
:1007A0001C48D0F8E837D0F8EC2710B59B184FF06C
:1007B0001A040C8001D1184810BD174AD0F8EA0776
:1007C00002F1100411464FF0000E4FEA137CB3F112
:1007D000204F34BF0CF1300C0CF1370C81F802C003
:1007E00081F803E002318C424FEA0313EDD102F1AC
:1007F00008040021030FB0F1204F34BF30333733EA
:100800009374D174023294424FEA0010F2D102483C
:1008100010BD00BF00F0FF1F9800002010B5044C71
:1008200004480A462146FFF73FFE204610BD00BFA0
:1008300078260020E0DD080810B5044C04480A467C
:100840002146FFF731FE204610BD00BF782600206C
:10085000ECDD0808034BD3F8242BB3F8283B1383B3
:1008600000207047501D00204FF40070034B1060B3
:10087000D3F8803C0B600020704700BF501D002063
:10088000002070470120704701207047002070470A
:1008900010B41C6994420CD394460A4661448C42BD
:1008A000996938BFA4EB0C0261445DF8044B7EF0FB
:1008B0007FBE5DF8044B7047704700BF704700BFB4
:1008C000D0ED007AD0ED036A30EE677AE6EE877AF3
:1008D000B0EE670AC0ED007A704700BF90ED017A74
:1008E000B5EE407AF1EE10FAF0EE407A09D19FEDC4
:1008F0000D7A60EE870AF7EE006A86EEA07A80ED48
:10090000017A31EE077A90ED000A80ED021AC1EE0D
:10091000076A77EEC07AC0ED036AA6EEA70A80EDFB
:10092000000A7047DB0FC940D0ED056AD0ED017AAF
:1009300090ED066AD0ED025A90ED035AC0ED066ABA
:10094000B0EE407A26EEA70AD0ED007A80ED057A67
:10095000A7EE870AD0ED077AA5EE860A90ED086A21
:10096000D0ED045AC0ED087AA5EE670AA5EEC60AD6
:1009700080ED070A704700BFF0EE406AD0ED007AC4
:1009800090ED050A90ED037A90ED016AD0ED025AE0
:10099000A7EEA60AD0ED047A27EE407A67EEC07A79
:1009A000A6EE267AE5EEA67A90ED066AC0ED067A06
:1009B00036EE076A80ED056A704700BF03685A1C6F
:1009C00002601970704700BF2DE9F04FD0E9003187
:1009D00085684A1C00EB8104F1EE407A92FBF3F645
:1009E000002D03FB1622426089B084ED200AC4ED7D
:1009F000407A40F346815A189FEDA46A0692591E28
:100A00006A1C079200F1800900F5807BF0EE466ACF
:100A100002224FF0010A884606998C1A94FBF3F1E2
:100A200003FB1144611C91FBF3F003FB101101EB7C
:100A30000A0009EB840E0BEB840C924590FBF3F457
:100A40009EED007ADCED007A03FB1400A3EB0206B6
:100A500080F2CD80CDE901ECCDE9032637460C4686
:100A60000546059031E0A34209EB850C0BEB8506AA
:100A700005F1010531DD09EB84000BEB840E224604
:100A8000013490ED006AD6ED005ADEED006AB4EE56
:100A9000C76AF1EE10FA07DD9CED005AB4EEC56AA4
:100AA000F1EE10FA00F38680F4EEE76AF1EE10FA48
:100AB00004DDF4EEE56AF1EE10FA13DC0137474588
:100AC000B0EE467A2EDAF0EE667AAB42CBDCA34289
:100AD0005E46CC464FF00105CDDCDE46484601249B
:100AE0000022CEE7F4EEE75AF1EE10FA58BFF0EE2E
:100AF000657ABAF1010FCEED007A18BF01200CD053
:100B00000132934200F10100CEBF0BEB82065E463C
:100B100000228245C6ED007AF2D101374745B0EE9A
:100B2000677AD0DBDDE901ECDDE903260598DEED2F
:100B3000006A9CED006A30E08B4209EB800C0BEB05
:100B4000800700F1010030DD09EB81050BEB810E20
:100B50000C46013195ED007AD7ED005ADEED007AB2
:100B6000B4EEE67AF1EE10FA06D59CED005AB4EE3A
:100B7000C57AF1EE10FA4DD4F0EE476AF4EEC67A7B
:100B8000F1EE10FA04D5F4EEE57AF1EE10FA5DD448
:100B9000B0EE676A0136B04529DD8342CCDC8B427A
:100BA0005F46CC464FF00100CEDCDE464D460121CB
:100BB0000024CFE7B4EEC75AF1EE10FA58BFB0EEFA
:100BC000457ABAF1010F80ED007A3FF46DAF10461F
:100BD00001260130834206F10106CEBF09EB800CED
:100BE000CC46002056458CED007AF2D15CE707999F
:100BF0000AF1010A8A4502F1020208F1FF387FF486
:100C00000BAF76EEC66AF6EE007A26EEA70A09B0BA
:100C1000BDE8F08FB4EEE65AF1EE10FAD8BFF0EE70
:100C2000456ABAF1010FC5ED006AA7D02546012734
:100C30000135AB4207F10107CEBF09EB850CCC466D
:100C400000255745CCED006AF2D197E7F4EEC65A7D
:100C5000F1EE10FAD8BFB0EE656ABAF1010F8EED71
:100C6000006A97D001250134A34205F10105CEBFEA
:100C70000BEB84075F460024554587ED006AF2D1EF
:100C800088E79FED020A09B0BDE8F08F0000000080
:100C900003685A1C02601970704700BF024BD3F8FA
:100CA000B00C03681B681847501D0020007970477E
:100CB0000079C0F34010704700794009704700BFC9
:100CC00090F83C20034602F0FF0012B1002283F8A6
:100CD0003C2070474FF40063838170472DE9F8434F
:100CE00045697DB90768C7F30D0804460E46B8F19B
:100CF000000F0AD0D6F80080FFF710FB09283BD080
:100D00006FF001052846BDE8F883514B9F422AD376
:100D100003F580439F4224D303F580439F427FD352
:100D20004C4B9F427FD903F580339F427ED903F518
:100D300000339F427DD903F500339F427CD903F5F0
:100D400000339F4269D903F500339F4277D903F5F9
:100D500080239F4276D9B7F1016F76D305200EF03C
:100D600035F94FF00808FFF7D9FA092821D04FF0DC
:100D7000FF352846BDE8F883374E336923F44073C6
:100D80003361336943F400733361336943F0010322
:100D90003361C7F80080FFF7C1FA3369092823F0EF
:100DA00001033361ACD12368043323602846BDE8D6
:100DB000F883DFF8A490D9F8103023F44073C9F811
:100DC0001030D9F8103043F40073C9F81030D9F856
:100DD000103023F0F803C9F81030D9F8103043EA86
:100DE000080343F00203C9F81030D9F8103043F477
:100DF0008033C9F81030FFF791FAD9F8103023F09A
:100E00000203C9F81030D9F81030092823F0F8038C
:100E1000C9F810303FF46EAFA9E74FF03808A2E7E9
:100E20004FF010089FE74FF018089CE74FF020089C
:100E300099E74FF0280896E74FF0300893E74FF016
:100E4000400890E74FF048088DE74FF058088AE7D0
:100E500000400008FFFF0008003C02402DE9F0417F
:100E60000446D0E90030134483421DD80D4601EBFF
:100E70000208B2B104F10C07002601E0A84510D029
:100E800023695A1C2261234415F8011B1973042A93
:100E9000F4D139462046FFF721FFA845C4E9046094
:100EA000EED16069BDE8F0814FF0FF30FAE700BF96
:100EB0002DE9F0411F4E80460B4696F8B42C002ACF
:100EC000FBD19BB343445F1E08F1FF38D6F8B83C12
:100ED000D6F8BC2C0133C3F30A039A4216D10EF0A4
:100EE00019F804460D460EF015F8001B61EB0501DC
:100EF000B0F57A7F71F10001F5D3D6F8B83CD6F899
:100F0000BC2C0133C3F30A039342E8D0D6F8B82CC3
:100F1000D6F8B83C18F8011F32440133C3F30A0372
:100F2000B84582F8C01CC6F8B83CCFD10020BDE857
:100F3000F08100BF501D002090F84820531C02444F
:100F4000DBB280F8483082F8341090F849204AB17A
:100F5000132B06D9002280F848200C4AD2F8081832
:100F600029B9704780F84820002BF6D17047D2F895
:100F70000828052AF5D110B5054C19463430D4F8A7
:100F8000C833FFF795FFD4F8C83310BD501D0020BB
:100F9000482E00200A4B10B5D3F8084804B910BDFC
:100FA000D3F80838052BFAD1064C002A0846D4F8A5
:100FB000C8331146F3DDFFF77BFFD4F8C83310BD0B
:100FC000501D0020482E002090F848100023A0F863
:100FD000483001B97047094BD3F80828002AF9D0E6
:100FE000D3F80838052BF5D110B5054C3430D4F8BA
:100FF000C833FFF75DFFD4F8C83310BD501D002083
:10100000482E00202DE9F047544E1F4606EB800382
:101010009C68002C00F09E8004F13E03A36104F55F
:101020009F73E3614FF48073C4E904332836236867
:1010300066600546E16094F83D00A36391460AF0BE
:1010400085FC804694F8440294F83CA0261D0028B4
:1010500052D194F8450250BBD4F840326BBB3B07E9
:1010600031D419F0020F5BD119F0010F47D1D4F838
:10107000483294F9471294F847221B010029DBB249
:101080000DDB3749881880F800335009012302F03E
:101090001F02934041F820303046BDE8F0873149C7
:1010A00002F00F02114430460B76BDE8F08775F070
:1010B0003BFFD4F84032002BD1D02B4A116B0B43AD
:1010C00013633B07CDD50135EDB207F01003B8F13E
:1010D000000FCCD040F2067288F80850A8F806201D
:1010E00094F846228BBB17F0200F0CBF322112213F
:1010F00040460AF02DFEBAE775F016FFA9E7504604
:101100000AF024FC0135EDB20028B0D040F20662AE
:101110000572C28094F8462202210AF019FEA6E761
:101120006B1CDBB2B8F1000F9ED088F8083040F29B
:101130000653A8F8063094F84622404602210AF0E9
:1011400007FE19F0010F92D0D9E7022140460AF0BC
:10115000FFFD8CE726463046BDE8F0877C2A08086C
:1011600000E100E0FCEC00E0003802402DE9F0472F
:10117000038A8489A4B21C4082B047D08146884645
:101180004FF0004501F14C0701F13406B4FA84F345
:1011900025FA03F2D24391B2A9F8101014401B3B78
:1011A000B8F1000F5FD0042B2ED8DFE803F05248CF
:1011B0003D320300D8F80C30D9F82CA033B19B682D
:1011C00023B11FFA8AF108F104009847D8F82430B7
:1011D00033B19B6823B11FFA8AF108F11C009847CC
:1011E000D8F83C3033B19B6823B11FFA8AF108F17B
:1011F00034009847D8F8543033B19B6823B11FFAB4
:101200008AF108F14C009847002CBFD102B0BDE82C
:10121000F087D8F80C30D9F834105B6808F1040076
:101220009847002CB2D1F1E7D8F82430D9F838101B
:101230005B6808F11C009847002CA7D1E6E7D8F8B6
:101240003C30D9F83C105B6830469847002C9DD163
:10125000DCE7D8F85430D9F840105B683846984736
:10126000002C93D1D2E7042B07D8DFE803F0190351
:10127000140F0A00D9F83C300193019B002C85D152
:10128000C4E7D9F82C300193019BF7E7D9F8343043
:101290000193019BF2E7D9F838300193019BEDE708
:1012A000D9F840300193019BE8E700BFF8B5264C20
:1012B00094F8B42C012A034603D0022A09D0002056
:1012C000F8BD224ED6F8CC538DB984F8B45C00201A
:1012D000F8BD002540F20112C0E95455C0E9565549
:1012E000A0F8442100F5A27178F034FDEDE7402D1F
:1012F00020D94027D4F8BC1C154AC3F858710A44B9
:10130000C3E9542240F20112A3F844210022C3F899
:101310005C2103F5A271184678F01CFDD4F8BC3CA2
:101320003B44ED1BC3F30A03C4F8BC3CC6F8CC53E2
:101330000020F8BDAAB2402A01D02F46DAE70222E7
:1013400084F8B42CD5E700BF501D0020482E0020A3
:10135000102A002001EB810138B500EBC1010F4DCF
:10136000B1F88C1304462846FFF78EF9E378C4F8E9
:10137000A853012083424FF000024FF04001C4E91E
:10138000EC12A4F89C0304F56771204608BFC4F86A
:10139000AC5378F0DFFC002038BD00BF18320020CD
:1013A000F8B52A4CD4F810340F2B04D05A1CC4F8CA
:1013B00010240020F8BD264D95F8B43C0022C4F856
:1013C0001024002BF5D1D5F8BC2CD5F8B83C9A42A6
:1013D000EFD0D5F8BC2CD5F8B83C9A422DD8D5F82A
:1013E000B86CD5F8BC3CF61A402E2BD8B3B2402BC3
:1013F00013BF3746402702230123D5F8BC2C85F8BC
:10140000B43C144BC0F858711344C0E9543340F253
:101410000113A0F844310023C0F85C3100F5A2713B
:1014200078F098FCD5F8BC3C3B44F61BC3F30A03A8
:10143000C5F8BC3CC4F8CC63BBE7D5F8BC6CC6F5BA
:101440000066D1E701234027D7E700BF482E0020E0
:10145000501D0020102A002010B5324B93F8202494
:1014600093F834C4D3F81C34044613B152EA0C0286
:1014700031D00123E06984F8463140F20112A4F82A
:10148000442102682849002AA8BFC2F380739B0345
:1014900001EA124143F020030B4363F31F42BCF106
:1014A000020F026000D010BDE278204BC4F8A833D0
:1014B0001F200021C4E9EC01012A4FF00101A4F82A
:1014C0009C1308BFC4F8AC3304F567712046BDE82F
:1014D000104078F03FBC012178F006FB0122E06962
:1014E00084F8462140F20113A4F844310168002930
:1014F0000A460CDBC1F380730B4C9B0343F02003C3
:1015000004EA11410B4363F31F42026010BD064B16
:1015100003EA114343F4804343F0200363F31F4283
:10152000026010BD482E0020DFBFFFFF5C320020AC
:101530002DE9F041B0F8CC15D0F8CE35B0F8D25541
:10154000B0F8D085C0F84051012284B080F8112154
:1015500001F01F02012A044600F2CC56ADF8081033
:10156000C1F3072ECDF80A30ADF80E504FEA134CF8
:1015700051D0022A7746C9B29BB210D0002A55D169
:10158000BEF1090F4BD8DFE81EF08900AD004A001C
:10159000C8004A005C01DF004A001301330101F07A
:1015A000600120295FFA8CF272D0012F00F0B8811F
:1015B000032F00F0A181AFBB90F81231022B00F095
:1015C000E381032B2BD11CF0800F40F0E98102EB6B
:1015D000820200EBC20393F87623003A18BF01227F
:1015E000C24D02234FF48071C4E94E3384F81131A7
:1015F000C4F83031A4F81C1105F244430021C4F8AA
:101600003411C4E94A3304F58E712046C5F84424E8
:1016100078F03EFB06E090F81231032B0ED0204606
:1016200078F02AFA002004B0BDE8F08101F08001D2
:1016300078F05AFA002004B0BDE8F0815FFA8CFC23
:10164000BCF1010FEBD8D0F8E43502A99B689847AC
:10165000BDF80E30002BE5D1C4E94A33C4E94C3360
:1016600004214FF4807284F81111A4F81C2104F5B0
:101670008E71204678F00CFB636D9D4A1A61E2780A
:10168000012ACFD15E614FF0802219681A60C9E744
:10169000D0F8E43502A99B689847C3E790F8123167
:1016A000023B012BBBD8914BD0F818210021C3F885
:1016B0003C1412B10222C3F83C248E4A02234FF498
:1016C00080700021C4E94C31A4F81C01C4E94E33F8
:1016D000C4E94A2284F8113104F58E71204678F06D
:1016E000D7FA9FE790F81221023A012A97D8012BE6
:1016F00098D1D0F8E43500259B68C0F8185102A9AC
:10170000984704224FF48073C4E94A55C4E94C5504
:1017100084F81121A4F81C31A9E7012B00F03B81CA
:10172000022B7FF47FAF5FFA8CF3002B7FF47AAF4C
:1017300003694FEA1C22023A5B68032A00F2BD816A
:10174000DFE802F0B6CED2D01E0A022EADF8065067
:1017500000F08A81032E00F04E81012E7FF45FAFEE
:10176000D0F8EC3580781B680DF106019847BDF87C
:101770000630002B3FF456AFBDF80E20002A3FF490
:1017800051AF934228BF13464FF480720221A4F850
:101790001C210022C4E94A0084F81111C4E94E3327
:1017A000C4E94C3204F58E71204678F071FA39E7BD
:1017B000012D7FF434AF90F81231022B00F0088134
:1017C000032B7FF42CAF4FF4807200F58873022155
:1017D000A0F81C21002280F81111C0E94E55C0E983
:1017E0004A33C0E94C5200F58E7178F051FA19E78E
:1017F000DDB23E4F012D87F835543FF610AF90F81B
:101800001231022B00F0D880032B7FF408AF002D9B
:1018100000F0358190F81011012910D0D0F8E4358E
:101820005B68984797F83514D4F8E43584F81011BC
:101830001B6820469847D4F8E8359B6898470023F2
:101840000AE758EA05027FF4EAAE90F8121103297C
:101850003FF4E5AE03F07F0580F8145100691146AE
:1018600063F30A11036819430423016084F81131FA
:101870004FF48073C4E94A22C4E94C22A4F81C3115
:1018800004F58E71204678F003FA636D184A1A61E8
:10189000E278012A06D0002D00F0FC80022384F8B3
:1018A0001231BFE65E614FF0802219681A60F2E7DC
:1018B00002210E4861F306130022C0F840340423CD
:1018C000C4E94A22C4E94C2284F8113101224FF4C0
:1018D000807304F58E7184F81621A4F81C31C8E6D3
:1018E0000321E6E70521E4E70421E2E7482E002092
:1018F000180008608432002090F81211022943D0A9
:1019000003297FF48CAE23B9510602D0114678F03A
:10191000EBF8D4F8E4359B6802A9204698478EE797
:1019200090F8121102292FD003297FF478AE002BF2
:101930007FF478AE12F07F0181D01CF0800F40F070
:10194000AD8002EB820100EBC10181F8763381F8B2
:101950007533282381F8742303FB020300EB820113
:1019600093F87723496D0B68023A012A23F4001398
:101970008CBFC3F30072012262F31C73D4F8E42518
:101980000B60936802A9C8E753063FF44BAE1146BB
:1019900078F0AAF846E6D0F8E425C0F81831F0E768
:1019A00002F07F0202EB820200EBC20393F81E21D9
:1019B000003A18BF012213E6002D3FF4A2AE012128
:1019C0000322D0F8E43580F8101180F812212FE7B7
:1019D0003B4A80F811314FF480710023A0F81C11AC
:1019E000C0E94E55C0E94A22C0E94C5300F58E715A
:1019F00078F04EF916E6DBB2052B3FF610AEDFE8C5
:101A000003F02B231B130B03D0F8EC3580789B6974
:101A10000DF106019847AAE6D0F8EC3580785B69AD
:101A20000DF106019847A2E6D0F8EC3580781B69E5
:101A30000DF1060198479AE6D0F8EC358078DB681E
:101A40000DF10601984792E6D0F8EC3580789B6856
:101A50000DF1060198478AE6D0F8EC3580785B688E
:101A60000DF10601984782E6D0F8E43580789B6A4C
:101A70000DF1060198474670C4F8F00577E602229A
:101A8000D0F8E43580F8122180F810515B682946BF
:101A9000984736E6012384F81231C3E5282202FB79
:101AA000010080F81C1104EB810180F81E3180F8E0
:101AB0001DE190F81F21896955E70121F9E600BF72
:101AC0008032002010B5044629B990F81121032A6C
:101AD0000DD0002010BDD0F8E4359B69002BF8D064
:101AE00090F81221032AF4D19847002010BDD0F8B5
:101AF00090230B46D0F87C138A4219D9521AC0F8A9
:101B0000902394F803C0D0F880038A4228BF0A4685
:101B1000BCF1010F92B234D0C4E9E22304F55D7147
:101B2000C4F88003A4F87433204678F0B1F8D0E705
:101B3000D0F8E4351B691BB190F81221032A1ED09E
:101B400000234FF480720421C4E94A33C4E94C33C2
:101B500084F81111A4F81C2104F58E71204678F048
:101B600097F8636D0D4A1A61E278012AB1D104F247
:101B7000CC545C614FF0802219681A60A9E798473D
:101B8000DEE70844C4E9E22304F55D71C4F880038C
:101B9000A4F87433C4F88403C6E700BF18000860D3
:101BA00038B5044649B990F81131022B11D094F898
:101BB0001631012B39D0002038BDD0F8E4355B69EF
:101BC000002BF8D090F81221032AF4D19847002076
:101BD00038BDD0F83831D0F8242193422FD990F86D
:101BE00003C09B1ABCF1010F0D46C0F83831D0F884
:101BF00028116ED09BB2C0F830314FF48073C0E929
:101C00004A11C0F8345100F58E71A0F81C3178F0FB
:101C10003FF8C4E9E255C4F8805304F55D71A4F8B7
:101C20007453204678F034F8C1E73F4B2269D3F86B
:101C300040145160002384F81631002038BDD0F8DC
:101C40003C31B3FBF2F502FB15350DBB9A421FD8B0
:101C5000D0F8402193421BD24FF48073A0F81C317E
:101C600000F58E71C0E94A55C0E94C5578F010F87E
:101C7000E378C4F84051012BC4E9E255C4F880531D
:101C8000A4F8745308BFC4F8845304F55D71C8E721
:101C9000D4F8E435DB681BB194F81221032A15D07F
:101CA000E27800230521012A84F81111C4E9E23306
:101CB000C4F88033A4F8743304F55D7124D0204651
:101CC00077F0E6FF636D194A1A6170E7204698477E
:101CD000E6E79BB21144C0F830314FF48073C0E99D
:101CE0004A11C0F8345100F58E71A0F81C3177F01C
:101CF000CFFFC4E9E255C4F8805304F55D71A4F840
:101D00007453C4F884538CE7C4F88433204677F0C6
:101D1000BFFF636D0548186104F2CC525A614FF061
:101D200080211A68196042E7482E002018000860D8
:101D300070B50B7813F060020D46044624D0202ABB
:101D400004D0204677F098FE022070BDCA884878FB
:101D50001AB31B0640D5324E3146FEF759FCEB88CC
:101D60004FF480720221A4F81C21002284F8111182
:101D7000C4E94E33C4E94A66C4E94C3204F58E71B5
:101D8000204677F085FF06E04B780A2B10D00B2B0E
:101D900008D0062BD5D0002070BD02221144FEF7DA
:101DA00037FCF8E78B78C3BB1E4AC2F84834F2E729
:101DB000022180F811114FF48071A0F81C111A490A
:101DC0000123C0E94A11C0E94E33C0E94C3200F5A5
:101DD0008E7177F05DFFDEE71449154B0860E078FF
:101DE000C3F80C28002103F5016301284FF0030517
:101DF000C4F88C13A4F87413C4E9E42284F81151D4
:101E0000C4F88823C4F8803304F55D7108BFC4F8B2
:101E10008433204677F03CFFBDE777F02DFEBAE72C
:101E200060250020482E0020903200200000002075
:101E3000501D0020002310B519460446402277F0BB
:101E4000BDFE802120460023402277F0B7FED4F863
:101E5000E835A078012284F812215B6898470020B9
:101E600010BD00BF10B5022304464022812177F047
:101E7000A5FE204602234022012177F09FFE204646
:101E800003230822822177F099FE104B0222A3F847
:101E90004C20FEF7A9FBE2780D4BC4F8A833402193
:101EA000C4F8B013012A4FF000004FF00101C4F84C
:101EB000B403A4F89C13204604F5677108BFC4F866
:101EC000AC3377F047FF002010BD00BF00000020BA
:101ED0001832002030B5812183B0044677F03EFEF1
:101EE0000121204677F03AFE2A49002502234022AC
:101EF00081F827592046812177F060FE01210223D5
:101F00004022204677F05AFE234BD3F84C2483F826
:101F100034541268284690470095009AE1681F4B98
:101F200042F010020092009A0A610A690092013B95
:101F300002D0009AD006F8D400230193019B43F00D
:101F400020030193019A154B012060F38A1201923C
:101F5000019A0A610A690192013B02D0019A920634
:101F6000F8D4E2780E4BC4F8A8331F200021C4E94E
:101F7000EC01012A4FF00101A4F89C13204604F55E
:101F8000677108BFC4F8AC3377F0E4FE002003B0FB
:101F900030BD00BF501D0020482E0020410D030021
:101FA0005C3200202DE9F843DDF820800F4615460D
:101FB0000021202204461E467FF070FBB8F1000F7E
:101FC0000CD0D8F80030E3811B0C2382D8F8043001
:101FD000B8F80A20E3821B0C62822383384678F02B
:101FE000C7FFEB0619D4431EB8B107EB000C01E0A4
:101FF000013B12D31CF801EDBEF12E0FF8D1C01A2F
:10200000421E032AA8BF0322082B03F10109A8BF1F
:1020100008239046B9441A4606E008280246B94605
:10202000A8BF08224FF000084FF020333946236044
:10203000636020467DF0BCFA04F10800154B238153
:102040004246494683707DF0B3FA611EE21D11F8E5
:1020500001CFACF16103192B9CBFACF1200C81F8CE
:1020600000C09142F3D104F10A0011F8013FA3F13D
:102070006102192A9CBF203B0B708142F5D11823C5
:102080002373330CA382E572099B6683E361BDE889
:10209000F88300BF202020002DE9F04FDFF858B46E
:1020A000DBF8240B0C46BBF8281B418385B0002BC2
:1020B00063D01344174604F5FE7A99461FE0002FBB
:1020C00069D0DBF88C3CBB4200F0CB80DBF8883C6D
:1020D000BB4200F0FD80DBF8903CDBF8941CBB4277
:1020E00050D8B94200F27581791A204674F0CEFEBC
:1020F00001374F4504F500740AF5007A39D0DBF852
:10210000983CBB42DBD8DBF8A85CFB1A296BDA08E9
:1021100002328A4203F0070602D3AB6B9A420BD914
:1021200029461046029274F081FE029A0546002864
:1021300000F06F81CBF8A80C2B79002B40F02381A5
:10214000D5F82880B8F1000F00F05C812B6BD21A13
:10215000EB6806EBC20203EB422220462B464FF40B
:1021600000710137C0474F4504F500740AF5007A45
:10217000C5D1DBF8240BBBF8281B0183002005B078
:10218000BDE8F08FB942AFD94FF40072002120466C
:102190007FF084FAACE74FF40072394620467FF0B6
:1021A0007DFA802384F8BE310C2384F8C231DBF839
:1021B000881CC54ADBF8803CC4F8C6119142C4F8BB
:1021C000CA3100F30B81C14AC14D82FB010285FB7C
:1021D00001050A44C817C0EB6212C0EB2530BD4DA3
:1021E00084F8C10185FB0265C2EB82168010891B51
:1021F000013120F03F0015440843D117C1EBE51130
:102200000A4484F8BF21B04A84F8C001013B9342DC
:1022100000F3F080AD4AAE4882FB031280FB03104E
:102220001A44D917C1EB6212C1EB2031A94884F8D6
:10223000C51180FB0250C2EB821589105B1B013374
:1022400021F03F0110441943D317C3EBE0131A44A4
:1022500084F8C41184F8C3214AF65523A4F8FE314A
:1022600046E74FF0FF3384F8EC3184F8ED3184F821
:10227000EE3184F8EF315223237063706123A37031
:1022800084F8E7314123E37084F8E63172230025B6
:1022900084F8E43184F8E531DBF8A03CC4F8E83197
:1022A0004FF4F0722946201D7FF0F8F9552384F889
:1022B000FE316FF05503C4F8F051C4F8F451C4F87E
:1022C000F85184F8FC5184F8FD5184F8FF310FE790
:1022D0004FF40072002120467FF0E0F97E4B03CBE3
:1022E00045F6EB0323809023C4F80710A370022265
:1022F0000821F823C4F80300617322746375DBF8C6
:10230000803C2273A27384F82C20DBF8882C9B1A63
:102310002362DBF8902CDBF8943C9B1A6362002369
:10232000E372E3736377A377E37784F82D3084F85F
:102330002E3084F82F3084F83130684BA361684B1D
:10234000C4F842303E232377012384F83030654AB5
:10235000802384F8403084F846104AF65521A4F8CA
:10236000FE1103CA604BC4F84700C4F84B1003CBFE
:102370001388A4F84F309378C4F85200C4F856106C
:1023800084F85130B4E64FF40072002120467FF00B
:1023900085F9002E44D12B6C04F12008002B7BD052
:1023A0002B6B52491122CDE900662046FFF7FAFD5A
:1023B0002B6C1A6C002A7ED01B6B4D49CDE9006650
:1023C00040461122FFF7EEFD04F140084FF4E073A0
:1023D0006DE0F91A204674F059FD89E6FF2284F871
:1023E000C1214FF6FF72A4F8BF21374A013B934247
:1023F0007FF710AFFF2384F8C5314FF6FF73A4F8C1
:10240000C33129E741464FF4007220467FF046F978
:102410006EE6384A231F43F8042F9A45FBD167E63E
:10242000D5E910253301002A43D0023B002D3FF4AB
:102430005FAE013BAD6CF9D1A0464FF40073002DA7
:102440003FF456AECDE9027A08EB0306A24608E057
:102450000024CDE900C4FFF7A5FDAD6CBDB1B045CA
:1024600015D02C7929682B6B404605F11C0C1122E4
:1024700008F12008002CEBD16A792C6942F0210286
:10248000CDE900C4FFF78EFDAD6C002DE7D15446B9
:10249000029FDDF80CA02BE6CDE900663346DBF8A1
:1024A000841C08222046FFF77DFD4FF4F0736D6C0D
:1024B000C5E7013BBAE7CDE900660D493346404622
:1024C0001122FFF76FFD7FE7FF03FB0083200882E7
:1024D0009755454181808080FCDD08083F00FF0062
:1024E00029940E0D08DE080814DE080808E508081F
:1024F0006CE60808DEADBEEF501D00208C4613468A
:102500000146624618464FF02DB900BF1049114BE5
:10251000D1F8882042F4700210B4C1F888201A68FB
:102520000D4C002042F001021A6098601A6822F0F7
:10253000847222F480321A605C601A68074C22F4BC
:1025400080221A60D8608C605DF8044B704700BF31
:1025500000ED00E0003802401030002400000008C8
:10256000704700BF0148FDF753BE00BFB800002010
:102570000148FDF74DBE00BF040300200148FDF7F0
:1025800047BE00BF50050020704700BFB0B130B457
:1025900043688D685A791C68022393404A689BB24D
:1025A0006AB1A2899DB192B213438160A381A389CC
:1025B0009BB243F00103A38130BC70477047A289EE
:1025C00092B222EA0303A38165B18160EFE722F0B2
:1025D00001021204120CA281A289816092B21343FB
:1025E000A381E9E7A38923F001031B041B0CA3814A
:1025F0008160E1E738B5D0E9004007EE902A006835
:10260000324A334B2468D3F8983724680139904212
:102610008DB210D002F5806290420CD002F570525B
:10262000904208D002F58062904204D002F58062A8
:10263000904218BF5B0807EE103AF8EE677AB8EEE2
:10264000477ADFED246A87EE270A30EE260A7AF011
:1026500019FB1E492388421E8C4292B29BB21AD0AB
:102660001D498C4217D0B4F1804F1FD0A1F58031A5
:102670008C421BD001F580618C4217D001F580613E
:102680008C4213D015498C4219D123800123E56275
:102690002285A38238BD23F45C739BB22380002380
:1026A000E562228523860123A38238BD23F45C736F
:1026B0009BB223800123E5622285A38238BD0849AD
:1026C0008C42E2D023F440739BB2DEE7000001406D
:1026D000000000200AD7233C000401400010004005
:1026E0000014004070B54268937903F0020E13F0B5
:1026F00004033AD175469C469E464FF480700123F0
:102700005479032C30D8DFE804F08E620236146866
:10271000704E228C22F480721204120C2284228CBD
:1027200022F4007212042B43120CA58842EA032201
:10273000A38B23F073031B041B0CB442ADB243F014
:10274000600300F09B8006F58066B44200F096803E
:10275000A580A383E1632284A38B23F008031B04D9
:102760001B0C43F00803A38370BD002005464FF007
:10277000040C0346C4E71268564E148C24F48054AB
:102780002404240C1484148C24F4005424042B43B7
:10279000240C958844EA0334938B23F4E6431B040A
:1027A0001B0CB242ADB243F4C04375D006F580664F
:1027B000B24271D09580938311641484938B23F477
:1027C00000631B041B0C43F40063938370BD146807
:1027D000404E228C22F010021204120C2284228C11
:1027E00022F0200212042B43120CA58842EA0312A5
:1027F000238B23F4E6431B041B0CB442ADB243F419
:10280000C04359D006F58066B44255D0A5802383D5
:10281000A1632284238B23F400631B041B0C43F469
:102820000063238370BD1268148C24F00104240417
:10283000240C1484148C968824F0020424042B4362
:10284000240C1C43138B234D23F073031B041B0C1C
:10285000AA42B6B243F0600323D005F58065AA42D0
:102860001FD09680138351631484138B23F00803C5
:102870001B041B0C43F00803138370BD22F4006299
:1028800042EA0E2222F4806292B225F4405542EAD6
:102890000C2245EA00155BE725F4804545EA8015E2
:1028A00088E726F4407606434FF6F370204040EA6E
:1028B0000E0040EA0C04D4E722F0800242EA0E1235
:1028C00022F0400292B225F4406542EA0C1245EA39
:1028D00080059BE70000014042685379032B0FD825
:1028E000DFE803F00B0805021068403070471068FD
:1028F0003C3070471068383070471068343070478B
:102900000020704770B4EFF31182102383F3128814
:10291000C4684668A5682B6823F001032B603568FE
:10292000114B767933F81660AB899BB223EA060324
:10293000AB81236965681F2B11D9203B202404FA41
:1029400003F3EB60D3B283F31188C3689B685960CB
:102950001A68012422431A60047470BC7047202452
:1029600004FA03F3AB60EDE77C2A080803681A7DDC
:10297000012A04BF02221A7593F82C100CBF4FF4E1
:102980000072002201291BD093F84410012905D0C0
:1029900093F85C10012920D02ABB7047022183F8EC
:1029A000441093F85C10012942F4006215D043688A
:1029B0001B6800215962998989B20A439A8170473C
:1029C000022183F82C1093F84410012942F480620C
:1029D000E4D093F85C100129E9D1022183F85C105E
:1029E00042F48052E3E74FF40072E0E7024B034801
:1029F000D3F85014FEF7BABB482E00200000014067
:102A000010B5064C0648D4F85014FEF7AFFBD4F8C6
:102A100070140448BDE81040FEF7A8BB482E002003
:102A2000000001400040014010B5064C0648D4F8B3
:102A30005014FEF79BFBD4F874140448BDE8104012
:102A4000FEF794BB482E00200000014000440140E6
:102A500010B5064C0648D4F85014FEF787FBD4F89E
:102A600078140448BDE81040FEF780BB482E0020D3
:102A70000000014000480140034B4FF08040D3F874
:102A80005414FEF773BB00BF482E0020024B0348CE
:102A9000D3F85814FEF76ABB482E0020000400400B
:102AA000024B0348D3F85C14FEF760BB482E0020AD
:102AB00000080040024B0348D3F86014FEF756BBF1
:102AC000482E0020000C0040024B0348D3F86C1441
:102AD000FEF74CBB482E00200004014010B5064C08
:102AE0000648D4F86C14FEF741FBD4F87C14044873
:102AF000BDE81040FEF73ABB482E0020000401401C
:102B00000018004010B5064C0648D4F86C14FEF7C7
:102B10002DFBD4F880140448BDE81040FEF726BB16
:102B2000482E002000040140001C004010B5064C57
:102B30000648D4F86C14FEF719FBD4F88414044842
:102B4000BDE81040FEF712BB482E002000040140F3
:102B5000002000400348D0F8A83713B100F29C7061
:102B600018477047000000200348D0F8C83713B159
:102B700000F2BC7018477047000000200348D0F8EE
:102B8000E83713B100F2DC701847704700000020EE
:102B90000348D0F8083813B100F2FC7018477047AA
:102BA000000000200348D0F8283813B100F61C00BC
:102BB00018477047000000200348D0F8483813B188
:102BC00000F63C0018477047000000200348D0F88A
:102BD000683813B100F65C00184770470000002009
:102BE0000348D0F8883813B100F67C0018477047C6
:102BF000000000200348D0F8A83813B100F69C006C
:102C000018477047000000200348D0F8C83813B1B7
:102C100000F6BC0018477047000000200348D0F8B9
:102C2000E83813B100F6DC001847704700000020B8
:102C30000348D0F8083913B100F6FC001847704774
:102C4000000000200348D0F8283913B100F61C100A
:102C500018477047000000200348D0F8483913B1E6
:102C600000F63C1018477047000000200348D0F8D9
:102C7000683913B100F65C10184770470000002057
:102C80000348D0F8883913B100F67C101847704714
:102C90000000002002683649002310B422F001022F
:102CA000212488420260036043608360C360036143
:102CB000446138D02F4B98422ED02F4B98423CD0B5
:102CC0002E4B984240D02E4B984232D02D4B9842FA
:102CD00041D02D4B984246D02C4B984217D02C4BCC
:102CE00098423CD02B4B984216D02B4B984224D084
:102CF0002A4B984228D02A4B98421AD0294B984206
:102D000029D0294B98422ED0284B984208D14FF019
:102D10003D5243F8AC2C03E04FF4746243F8202C8E
:102D20005DF8044B7047224B5DF8044B3D229A60DE
:102D30007047204A43F8642CF2E74FF474125DF8B0
:102D4000044B43F8382C70474FF074625DF8044B25
:102D500043F8502C7047184A43F87C2CE0E73D229A
:102D600043F8082CDCE7154A43F8942CD8E700BF59
:102D700010600240286002404060024058600240FB
:102D80007060024088600240A0600240B86002406B
:102D900010640240286402404064024058640240CB
:102DA0007064024088640240A0640240B86402403B
:102DB000006002403D000020400F002000003D2048
:102DC000214A936803F00C03042B10B43AD0082B6B
:102DD0001FD01E4B1C4C0360A1681D4AC1F3031198
:102DE000114491F85C10CB404360A168C1F382218B
:102DF000114491F85C1023FA01F18160A1685DF83B
:102E0000044BC1F342310A4492F85C20D340C360C2
:102E100070475368516813F4800F536814BF0D4A0C
:102E20000A4AC3F3881301F03F01B2FBF1F202FB3F
:102E300003F3054A5268C2F3014201325200B3FB68
:102E4000F2F3C7E7034BC5E7003802400024F40063
:102E50007C2A080800127A0070B5446B8668A38942
:102E600023F400531B0405461B0CA381837995F8BA
:102E700005C0C3F3800019030CF001021B021CF013
:102E8000020F4FEA00304FEA820203F4806318BF5A
:102E900042F0080203431A43238A9BB201F4005113
:102EA00023F440530B432382A38923F4B05323F02C
:102EB0000C031B041B0C1A43A281A38A23F4407346
:102EC0001B041B0C84B0A3826846FFF779FF2E4BCE
:102ED0009C4205D003F580639C4201D0029B00E038
:102EE000039BA2892949120403EB83034CBF76009C
:102EF000B60003EB8303B3FBF6F3A1FB0302A08947
:102F000052096426000406FB12334FEA021227D44A
:102F10001B013233A1FB0313C3F3431313439BB2CF
:102F200023816B79A9799E0703F00102164B48BFF4
:102F300042F002029C421BD00A07A38A0AD59BB228
:102F400043F00803A382A3899BB243F40053A381F7
:102F500004B070BD23F008031B041B0CA382F2E72E
:102F6000DB003233A1FB0313C3F342131343D6E751
:102F7000D507E1D5064BD3F8A82BB3F8AC3BC8076F
:102F80004CBF13835383D7E7001001401F85EB51DB
:102F9000501D00202DE9F8431D462A4B9DF8208046
:102FA0009DF8249098420F4616463BD0264B9842F7
:102FB00040D0264B984224D14B4642462946052014
:102FC000FEF720F804460023C4E90B76C4E9073372
:102FD000C4E9093384F80580A56084F8069020468A
:102FE000FFF73AFF18F0010F626B13D118F0020FD0
:102FF0000BD193899BB243F4005393812046BDE8E3
:10300000F88300242046BDE8F883D36843F08003AA
:10301000D360EEE74FF6DF731380D36843F02003ED
:10302000D360E3E74B46424629460020FDF7EAFF1E
:103030000446C8E74B46424629460220FDF7E2FF18
:103040000446C0E700100140004800400014014061
:10305000816001E74171FFE68171FDE62DE9F043F2
:10306000794F07EBC00985B005464FEAC00899F8CB
:10307000A00908F06BFC044699F8A10908F066FC69
:10308000064699F8A20973F04FFF6B1CDBB2002CC7
:1030900000F0AB8040F60C122372E280002E00F0AC
:1030A000B680337240F60C232046F38004223A2186
:1030B00008F04EFE042230463A2108F049FE07EBA4
:1030C0000803624AD3F89C49944200F09680604B12
:1030D0009C4200F0A2805F4B9C4200F0A9804744D4
:1030E00097F8A339022B32D0032B7CD05A495B4F7F
:1030F000012B08BF0F46A6886846FFF761FE26F041
:103100003F06029B564AB3FBF7F13604A2FB0323AA
:10311000360C46EA9346A680228822F00102120469
:10312000120C22808AB2C1F30B019B0C09B942F048
:1031300001024FF4967101FB03F34A49A1FB03130B
:103140009B0901339BB242F4004223841FE0A6880E
:103150006846FFF735FE26F03F06029A404B3604DC
:10316000A3FB0213360C46EA9346A680218821F081
:1031700001010904090C21803B499209A1FB0212BB
:1031800092099B0C0133042A238438BF0422A283B2
:103190002388364A9BB243F001032380238823F41B
:1031A000816323F002031B041B0C4FF4804143F4A2
:1031B000806323802181238823F080031B041B0C60
:1031C000238023889BB202EB451243F00103238046
:1031D0000121002382F8885482F8891482F88A3405
:1031E00005B0BDE8F083224F85E7002E3FF467AFBE
:1031F000337240F60C23F3805CE71E4B1A6A42F4EC
:1032000000121A621A6A22F400121A6267E7042294
:1032100020463A2108F09CFD51E703F5F0331A6A85
:1032200042F480021A621A6A22F480021A6256E795
:1032300003F5EE331A6A42F400021A621A6A22F4A3
:1032400000021A624BE700BF00000020005400405B
:1032500000580040005C0040009F2400804F120096
:1032600083DE1B43D34D6210632D3E05482E0020A4
:10327000C0270900003802402DE9F047924E90F92E
:1032800000108046807806EBC1050138CC0090B074
:10329000D5F89C1914282DD8DFE810F04C01200136
:1032A000150055005F009E00A600C301B6017A001C
:1032B00084003C020402D701C000D0002F00370078
:1032C000A30195015401888A0C8B81B27F4841EAA1
:1032D0000441884300F02081D8E90201101A42F22B
:1032E000107263EB0101904271F1000102D31523CA
:1032F00088F8023010B0BDE8F08798F81300088213
:10330000C8E90223122088F80200888A0C8B80B258
:1033100040EA04406E4C844300F0B28000200E90DE
:103320000F9001200F910E900E99002900F0178246
:103330000F9914310F910F9909684905CCD51423C1
:1033400088F80230D6E798F8110000F0FE000882F5
:10335000C8E90223052088F80200888A0C8B80B215
:1033600040EA04405B4C844300F0A18000200090C0
:1033700001900120019100900099002900F0FB814B
:10338000019914310191019909684F05D7D4A3E738
:1033900098F8110040F001000882C8E902230B20D0
:1033A00088F80200888A0C8B80B240EA04404A4CBC
:1033B00084436DD000200490059001200591049075
:1033C0000499002900F0D1810599143105910599DE
:1033D00009684D05B3D47FE798F813000882C8E95F
:1033E0000223072088F80200888A0C8B80B240EA0A
:1033F0000440374C84435ED00020029003900120AB
:10340000039102900299002900F0C18103991431BF
:103410000391039909684E0591D45DE7088820F46B
:1034200080600004000C088098F8110000F0FE0095
:103430000882C8E90223102088F80200888A0C8BD1
:1034400080B240EA0440234C844312D000200C9008
:103450000D9001200D910C900C99002900F09181A4
:103460000D9914310D910D99096848053FF567AF25
:1034700032E798F81330FF2B06D198F810301BB1C3
:10348000132388F8023035E7112388F8023031E73A
:10349000D8F81400012800F08F81022800F0438240
:1034A000098B0E21C8E9022388F8021022E70623BF
:1034B00088F802301EE7D8F81400002800F06D816B
:1034C000082388F8023015E70000002001000300FF
:1034D000840007008200070002000300088820F42F
:1034E00000600004000C0880088880B240F480600E
:1034F0000880088880B240F480700880032088F833
:103500000200888A0C8B81B2A94841EA04418843B1
:10351000C8E902237FF4EEAE98F81230002B40F099
:10352000CE8198F81330FF2B00F03F82042388F8F7
:103530000230DFE6098889053FF5CEAE002388F822
:103540000230D7E6344494F8A00908F0FFF90646A3
:1035500094F8A10908F0FAF9964AB2F8E834013370
:103560009BB28246A2F8E83416B13368B2881A8357
:10357000BAF1000F04D0DAF80030BAF804201A8348
:103580001121304605F034FB1121504605F030FB87
:103590004FF0090965272EB13368B28819690A42CC
:1035A00040F02381013F00F01D810BF0B3FC044685
:1035B0000D460BF0AFFC001B61EB0501052871F116
:1035C0000001F6D3E7E7088880B240F40070088075
:1035D0004FF6FF3088820121C8E9022388F80210E3
:1035E00088E6D8F81400002800F06D81D8F818405B
:1035F00014F8016B0E8201381225C8E90504C8E9E8
:10360000022388F8025075E6888A0C8B81B26848DC
:1036100041EA044188437FF45FAE0A2388F8023010
:1036200068E6088880B240F480700880092088F835
:103630000200888A0C8B81B25D4841EA04418843CC
:10364000C8E902237FF456AEE7E7002401250A9477
:103650000B940B910A950A98002800F047810B986B
:1036600014300B900B98006846077FF535AED8F8FC
:103670001400032800F06D81022800F243810888BD
:1036800020F480600004000C0880088880B240F4B8
:1036900000700880098A88F81C40C8E9022388F86D
:1036A000025027E60020012408900990099108940F
:1036B0000898002800F0148109981430099009989E
:1036C000006847077FF508AEEFF31185102080F3FF
:1036D0001288088880B240F400700880D8F818007A
:1036E0000E8A471CC8F81870EDB2067085F3118871
:1036F0000D8AD8F818106FF001004E1CC8F8186039
:103700000D70C8E90223C8F8140088F81C4088F836
:103710000240EFE5002006900790012007910690F7
:10372000069C002C00F0E880079C14340794079C4A
:10373000246864067FF5D0AD0C8AD8F818104D1CAB
:10374000C8F818500C70D8F8141088F81C0001390B
:10375000C8E90223C8F8141088F80200CAE50F99D6
:1037600018310F910F990968B6E50599183105913F
:1037700005990968B0E50199183101910199096825
:10378000AAE50D9918310D910D990968A4E50399E1
:1037900018310391039909689EE5088880B240F4C6
:1037A000007008800121C8E9022388F80210A1E511
:1037B00001000300482E0020088820F480600004E7
:1037C000000C0880EFF31184102080F31288088B1E
:1037D000088880B240F40070E4B2088084F3118855
:1037E0000C215FE616B13368B2885A830BF092FB66
:1037F00004460D460BF08EFB001B61EB050105280E
:1038000071F10001F6D316B13368B2881A830BF058
:1038100081FB04460D460BF07DFB001B61EB0501AF
:10382000052871F10001F6D3B9F101097FF4B2AEB8
:1038300016B13368B2885A830BF06CFB04460D4610
:103840000BF068FB001B61EB0501052871F100011D
:10385000F6D3BAF1000F04D0DAF80030BAF8042039
:103860005A830BF057FB04460D460BF053FB001B2D
:1038700061EB0501052871F10001F6D316B133683B
:10388000B2881A830BF046FB04460D460BF042FB50
:10389000001B61EB0501052871F10001F6D3BAF1B7
:1038A000000F04D0DAF80030BAF804201A8398F92F
:1038B0000000441C3FF442AEFFF7D0FB3EE60F236E
:1038C00088F8023016E5088880B240F4007008805D
:1038D0000121C8E9022388F81C1088F8021009E5C4
:1038E00009991831099109990968F5E40B9918317A
:1038F0000B910B990968EFE4079918310791079923
:103900000968E9E4D8F81800098A441CC8F8184086
:103910000170D8F81410C8F808200139C8F814103C
:10392000C8F80C30E6E4088880B240F400600880F3
:10393000EFF31184102080F31288088B088820F49C
:1039400080600004000CE4B2088084F311880D212B
:10395000A8E5088820F480600004000C0880EFF3DC
:103960001184102080F31288D8F818000D8A461CA4
:10397000C8F818600570088880B240F40070E4B29E
:10398000088084F31188D8F81800098A441CC8F804
:1039900018400170D8F814100C200239C8E902232D
:1039A000C8F8141088F80200A4E498F81030002B2E
:1039B0003FF4BCAD31E600BF38B5184D9DF814E0BA
:1039C00005EB40144FEA401C94F8890400B938BD57
:1039D000490084F89B24C4F89C3484F8991400238B
:1039E000049984F898E4022205F5916584F89A34E4
:1039F000C4F8A01484F8A43484F88A2465440BF035
:103A000089FA02460B462846FFF736FC94F88A34BA
:103A1000002BF4D194F8A40438BD00BF482E002038
:103A2000F0B5044683B00D461746061D206803799D
:103A3000012B1AD0022B02D0002003B0F0BD836806
:103A4000DB0732464FF0FF015CBF3246FF2106F034
:103A500093FC0028F0D015B12379DB07E6D4002FC2
:103A6000EBD023793B7003B0F0BD8268417C90F9C4
:103A7000100002F00102CDE90062FF22FFF79CFF77
:103A8000E7E700BF30B50446051D20680379012B28
:103A900083B017D0022B02D0002003B030BD836862
:103AA000DB072A464FF0FF015CBF2A46FF2106F0E4
:103AB00063FC0028F0D02379DB07EED5206803797A
:103AC000012BE7D18268417C90F9100002F00102DD
:103AD000CDE90052FF22FFF76FFFEAE730B502465B
:103AE000044652F8040B0379012B83B00ED0022B4D
:103AF00001D0002008E0FF2106F03EFC0028F8D0AD
:103B00002079C04300F0010003B030BD8568417CDE
:103B100090F91000009205F001050195FF22FFF7D2
:103B20004BFFEBE730B5B42283B00446FF210068B9
:103B300005F01EF910B9002003B030BD20680379EC
:103B4000012B04F1040514D0022BF4D18368DB07A8
:103B50002A464FF0FF015CBF2A46FF2106F00CFC0D
:103B60000028E8D02379DB07E6D520680379012B0C
:103B7000EAD18268417C90F9100002F00102CDE99F
:103B80000052FF22FFF718FFEAE700BF30B50A46F0
:103B900083B00446A521006805F0EAF810B90020BA
:103BA00003B030BD20680379012B04F1040514D063
:103BB000022BF4D18368DB072A464FF0FF015CBF7C
:103BC0002A46FF2106F0D8FB0028E8D02379DB073E
:103BD000E6D520680379012BEAD18268417C90F90F
:103BE000100002F00102CDE90052FF22FFF7E4FECF
:103BF000EAE700BF70B582B0CDE900230446FFF7C5
:103C000091FF10B9002002B070BD20685522A52197
:103C100005F0AEF80028F5D0251D20682A46FF21C2
:103C200006F0FCFB0028EDD02379DB07F5D40DF17D
:103C3000FF350DF1070615F8011F2046FFF7A6FF17
:103C40000028DFD0B542F6D1DDE700BF002A35D02D
:103C5000F0B5044683B00E468F18051D16F8012BEB
:103C60002068A52105F084F890B9002003B0F0BDCC
:103C70008268417C90F9100002F00102CDE9005207
:103C8000FF22FFF799FE0028EFD02379DB0710D53C
:103C900020680379012BEBD0022BE6D18368DB0788
:103CA0002A464FF0FF015CBF2A46FF2106F064FB65
:103CB000E9E7B742D2D1012003B0F0BD012070473F
:103CC00070B5962282B004460E460068FF2105F0CA
:103CD0004FF810B9002002B070BD251D206803798F
:103CE000012B1FD0022BF5D18368DB072A464FF04A
:103CF000FF015CBF2A46FF2106F03EFB0028E9D009
:103D00002379DB07EAD4E1222068114605F030F878
:103D10000028DFD020683246FF2102B0BDE87040A5
:103D200006F07CBB8268417C90F9100002F0010231
:103D3000CDE90052FF22FFF73FFEDFE7002A43D024
:103D4000F0B5044683B00E468F18051D20689622F4
:103D5000FF2105F00DF890B9002003B0F0BD826896
:103D6000417C90F9100002F00102CDE90052FF22DF
:103D7000FFF722FE0028EFD02379DB0710D520685B
:103D80000379012BEBD0022BE6D18368DB072A46AF
:103D90004FF0FF015CBF2A46FF2106F0EDFAE9E78C
:103DA000E1222068114604F0E3FF0028D4D0206807
:103DB0003246FF2106F032FB0028CDD00136B74253
:103DC000C4D1012003B0F0BD0120704770B5054695
:103DD0000B460446164655F8040B82B087211A4656
:103DE00004F0C6FF20680379012B1AD0022B02D001
:103DF000002002B070BD8368DB072A464FF0FF0148
:103E00005CBF2A46FF2106F0B7FA0028F0D02379DC
:103E1000DA07E7D4002EECD0C3F34013337002B0BE
:103E200070BD8268417C90F9100002F00102CDE97A
:103E30000052FF22FFF7C0FDE7E700BF70B5782111
:103E400082B0044616460068002204F091FF10B9C3
:103E5000002002B070BD251D20680379012B14D00D
:103E6000022BF5D18368DB072A464FF0FF015CBFC8
:103E70002A46FF2106F080FA0028E9D02379DA07E4
:103E8000EAD45B09337002B070BD8268417C90F95E
:103E9000100002F00102CDE90052FF22FFF78CFD75
:103EA000EAE700BF30B5CC2283B00446A521006804
:103EB00004F05EFF10B9002003B030BD2068037924
:103EC000012B04F1040514D0022BF4D18368DB0725
:103ED0002A464FF0FF015CBF2A46FF2106F04CFA4C
:103EE0000028E8D02379DB07E6D520680379012B89
:103EF000EAD18268417C90F9100002F00102CDE91C
:103F00000052FF22FFF758FDEAE700BF30B5B422A8
:103F100083B00446FF21006804F02AFF10B9002096
:103F200003B030BD251D20680379012B22D0022B60
:103F3000F5D18368DB072A464FF0FF015CBF2A46B4
:103F4000FF2106F019FA0028E9D02379DA07EAD42C
:103F5000CC212046FFF71AFE0028E0D002E02379AA
:103F6000DB07DDD520682A46FF2106F057FA002836
:103F7000F5D1D4E78268417C90F9100002F001028B
:103F8000CDE90052FF22FFF717FDDCE72DE9F04FE6
:103F90008BB0CDE907230446002004908A460390A5
:103FA000251D049B079A2046DE0002EBC30BFFF79A
:103FB000B9FD20B935E0237913F0010207D020685C
:103FC0002A46FF2106F02AFA0028F4D129E00592BA
:103FD0009A07099040F1D880F0212046FFF7D6FDDE
:103FE000F8B1079BDDF81480083E334401260693A0
:103FF0003746BAF1000F54D0082F52D807F1FF39D5
:104000004AFA09F909F0010920684FEAC912782132
:1040100004F0AEFE28B120680379012B50D0022BAA
:1040200006D00020089B049A1A700BB0BDE8F08FF0
:104030008368DB072A464FF0FF015CBF2A46FF2159
:1040400006F09AF90028ECD0237913F00102E2D1AE
:10405000C3F3801CD9099B0646D5BCF1000F60D183
:10406000BAF1000F5AD0082F58D8894540F08880FF
:10407000B9F1000F48D01BF8083033430BF8083073
:104080007600013716F0FF06FFB2B2D108F1010841
:104090005FFA88F8B8F1080F43D00126BAF1000F93
:1040A000AAD1049BC3B1039BBB4215D9069B13F84D
:1040B00008301E4214BF4FF001094FF00009A3E77A
:1040C0008268417C90F9100002F00102CDE90052B3
:1040D000FF22FFF771FCB5E7039BA3EB0709B9FAD1
:1040E00089F94FEA59198FE7BAF1000F13D0082F59
:1040F00011D8894596D1B9F1000FBCD1059BBCF10F
:10410000000F08BF3B4605931BF8083023EA06035F
:104110000BF80830B4E70029ADD1EFE70029AAD1A8
:10412000F2E7402F06D8089B049A1B7893423FF68B
:1041300038AF77E79BF807700BF1FF360BF1060BF2
:1041400016F801CF082182EA0C0343F3000301397A
:1041500023F0730383EA520211F0FF01D2B24FEA57
:104160005C0CF0D1B345EBD19742DCD1049B013319
:10417000DBB20493059B002B3FF454AF0393D2E7CB
:10418000DDF8248040464DE7804640464AE700BFC0
:1041900010B5044600680379012B84B02DD0022BA2
:1041A00001D0002027E0836813F0010F02AA4FF02E
:1041B000060314BF1F219F2105F01CFA0028F0D030
:1041C000BDF80810BDF80A20BDF80C30C9BA07EEDA
:1041D000901AD2BAF8EEE76A07EE902ADBBAB8EE88
:1041E000E77A07EE903AF8EEE77AC4ED046A84EDD8
:1041F000057AC4ED067A04B010BD8368417C90F95D
:10420000100003F00103019302AB00931F22062369
:10421000FFF7D2FBD2E700BF38B5184D9DF814E088
:1042200005EB40144FEA401C94F8890400B938BDEE
:1042300084F89B24C4F89C3401220023490005F52E
:10424000916584F89A2484F8A434049A84F898E454
:10425000022384F89914C4F8A02484F88A346544AD
:104260000AF058FE02460B462846FFF705F894F878
:104270008A34002BF4D194F8A40438BD482E0020D1
:1042800000680379012B0BD0022B01D0002070476E
:104290008368DB074FF0F00219D5FF2104F012BD4F
:1042A00000B5826890F910C0417C85B002F001022F
:1042B00001920DF10F0200926046FF224FF0F00CC8
:1042C0008DF80FC0FFF7A8FF05B05DF804FB7F2154
:1042D00004F0F8BC70B505682B79012B84B0044656
:1042E0000E4617D0022B02D0002004B070BDAB6880
:1042F000E122DB074CBF11466121284604F0E2FCB5
:104300000028F1D020683246FF2104B0BDE870409B
:1043100006F084B8AA68697C95F9100002F00102E1
:104320000DF10F0501920095E1228DF80F20FFF7A6
:1043300073FFE5E770B505682B79012B84B004465F
:104340000E4618D0022B02D0002004B070BDAB681E
:10435000DB074FF0C3024CBFE1216121284604F086
:10436000B1FC0028F0D020683246FF2104B0BDE83F
:10437000704006F053B8AA6895F91000697C02F005
:10438000010201920DF10F020092C3228DF80F205D
:10439000E122FFF741FFE4E700680379CA4341EAFD
:1043A0000211012BCAB209D0022B01D000207047A4
:1043B0008368DB0717D5D22104F084BC00B585B033
:1043C00090F910C08DF80F208268417C02F0010244
:1043D0000DF10F00CDE90002D2226046FFF71CFF6D
:1043E00005B05DF804FB522104F06CBC70B50568A3
:1043F0002B79012B84B004460E461CD0022B02D030
:10440000002004B070BDAB68DB074FF0F0024CBF7A
:10441000E1216121284604F055FC0028F0D0224615
:10442000FF2152F8040B05F0F9FF0028E8D02379AA
:10443000337004B070BDAA6895F91000697C02F071
:10444000010201920DF10F020092F0228DF80F206F
:10445000E122FFF7E1FEE0E700680379012B0BD0D2
:10446000022B01D0002070478368DB074FF0B402B5
:1044700019D5FF2104F026BC00B5826890F910C060
:10448000417C85B002F0010201920DF10F02009211
:104490006046FF224FF0B40C8DF80FC0FFF7BCFE52
:1044A00005B05DF804FB7F2104F00CBC00680379C3
:1044B000012B0AD0022B01D0002070478368DB0754
:1044C0000A4617D5A52104F0FDBB00B5826890F916
:1044D00010C085B002F001028DF80F10417C0DF183
:1044E0000F00CDE90002A5226046FFF795FE05B05A
:1044F0005DF804FB252104F0E5BB00BF00680379EB
:10450000012B0BD0022B01D0002070478368DB0702
:104510004FF0960219D5FF2104F0D4BB00B5826894
:1045200090F910C0417C85B002F0010201920DF1BA
:104530000F0200926046FF224FF0960C8DF80FC0DC
:10454000FFF76AFE05B05DF804FB7F2104F0BABBFB
:1045500000680379012B0AD0022B01D0002070479C
:104560008368DB070A4617D5872104F0ABBB00B58B
:10457000826890F910C085B002F001028DF80F102A
:10458000417C0DF10F00CDE9000287226046FFF764
:1045900043FE05B05DF804FB072104F093BB00BFA8
:1045A00000680379C901012BCAB206D0022B01D0E1
:1045B00000207047782104F085BB00B585B090F9E4
:1045C00010C08DF80F208268417C02F001020DF1CD
:1045D0000F00CDE9000278226046FFF71DFE05B00E
:1045E0005DF804FB00680379012B0BD0022B01D08E
:1045F000002070478368DB074FF0550219D5A521CD
:1046000004F060BB00B5826890F910C0417C85B0B1
:1046100002F0010201920DF10F0200926046A52204
:104620004FF0550C8DF80FC0FFF7F6FD05B05DF8A3
:1046300004FB252104F046BBF0B589B00023904A65
:1046400002930393136843F48033136003E0029BE7
:10465000B3F5A04F09D0136803F400330393029B12
:1046600001330293039B002BF1D0854B1B6813F49D
:10467000003318BF01230393039B012B01D000BF1C
:10468000FDE77F4B7F491A6C7F4842F080521A64E5
:104690000A6842F440420A609A689A609A6842F452
:1046A00000429A609A6842F4A0529A6058601A6870
:1046B00042F080721A601A689001FCD5734A40F289
:1046C00005711160996821F003019960996841F0C2
:1046D0000201A2F580629960936803F00C03082B35
:1046E000FAD1936803F00C03042B00F0C680082B6A
:1046F00000F0AB80664A624B66499868664D674E2B
:10470000674FC0F303100144002491F86C10CA40B5
:104710006449E9606449586FA960596BC6F89827E5
:1047200021F080015963596F604A614841F08071FE
:104730005967196B0A431A635A6B5A639A6B9A63E7
:104740001A6C5C490A431A64596C5B4A0A435A64FE
:1047500048F2FF7123462246CDE9004475F096FEEB
:104760005648234622464FF6FF71CDE9004475F0C6
:104770008DFE5348234622464FF6FF71CDE9004493
:1047800075F084FE4F48234622464FF6FF71CDE96F
:10479000004475F07BFE4C48234622464FF6FF71DD
:1047A000CDE9004475F072FE4848234622464FF694
:1047B000FF71CDE9004475F069FE45482346224665
:1047C0004FF6FF71CDE9004475F060FE4148234685
:1047D00022464FF6FF71CDE9004475F057FE23469F
:1047E00022464FF6FF713C48CDE9004475F04EFE7D
:1047F00004A8FEF7E5FAD5F8FC200499D6F8983716
:10480000364842F08072C5F8FC20354AC2F8B00F35
:104810005460106840F0010010604FF47A72B3FBEE
:10482000F2F3013BB3F1807F2E4AB1FBF2F2C7F8FD
:10483000EC2408D24FF0E022F0215361072385F8E1
:1048400023109461136109B0F0BD51685368526838
:104850004902C2F388124CBF23490D4903F03F03BC
:10486000B1FBF3F303FB02F2054B5B68C3F30143B7
:1048700001335B00B2FBF3F23DE71B4A3BE700BFAD
:10488000003802400070004008544007003C0240DD
:104890000024F4007C2A080800ED00E0000000205D
:1048A000482E00200003FA0500000008FF91670071
:1048B00000000240FFC9FE10335707000004024009
:1048C00000080240000C02400010024000140240A8
:1048D00000180240001C02400020024055CEACC52A
:1048E000001000E040420F0000127A0082B0064B38
:1048F000002201920193019B03EB80030193019B32
:10490000196002B0704700BF5028004010B51C204D
:1049100007F01CF81121044604F06AF94CB1236831
:10492000A2885A83C8200AF023FB2368A2881A832E
:1049300010BDBDE81040C8200AF01ABB704700BF88
:10494000704700BF704700BF10B5104C94F8FA34A0
:1049500023B90F4B4FF480225A6110BD4FF0E02273
:10496000D2F8103D23F00603C2F8103DFDF7CEFD4E
:10497000D4F800359B68DB07EBD5D4F8FC25136829
:1049800023F0030161F307031360E2E7482E0020E0
:10499000003C01402DE9F04FA34CD4F8FC345A6997
:1049A000D5078BB002D50BB0BDE8F08F5A699B6973
:1049B00012EA0301F7D0C1F307430803019300F1A2
:1049C000E180019B5D073FD48807CEB203D5D4F8C0
:1049D000FC3402225A610029C0F24A820A05C1F35E
:1049E000072500F19981370708D5904B9048D3F8F7
:1049F000C0399847D4F8FC3408225A61F60600F111
:104A00000F82E80600F1BE81A80600F11781019B24
:104A1000DA0609D5854B8648D3F8D0399847D4F8BB
:104A2000FC344FF480125A61019B9B06BBD57F4B2F
:104A30007F48D3F8D4399847D4F8FC344FF40012A7
:104A40005A610BB0BDE8F08FD4F800359E69DB6980
:104A50001E40B6B2002EB7D0754D4FF0000B05F1D9
:104A600018080F46F00740F18280D4F80015D8F8F6
:104A7000002008694B6B23FA0BF3DB01DBB2034325
:104A80009068034013F00109D8B200F00F824B6B1D
:104A9000012000FA0BF023EA00034B63012393602B
:104AA000624B6348D3F8B8395FFA8BF1984794F8B2
:104AB000F334012B00F07E8219F0800F57D0D5E936
:104AC0004CC1D5F82431D8F800E0ACEB0102934298
:104AD000DEF8180028BF134680B20333B0EB930F03
:104AE00045D9D4F8003594F8F394CDE9026BBA4671
:104AF00067469C46B94237D2D5F82431781A984295
:104B000028BF184600F1030BD5F828314FEA9B0B5C
:104B1000B9F1000F10D182B203329210D8F8B86008
:104B20000AD04946013153F8047B37608A42F9D1F3
:104B3000D5E94C71D5F82831014403448F42C5F8BA
:104B40002831C5F83411DEF818300AD195F81C0167
:104B5000012202FA00F0DCF8342022EA0002CCF84C
:104B600034209BB29B45C5D3DDE9026B57467608DE
:104B70000BF1010B05F1280508F104087FF472AF71
:104B8000394621E7D4F800359D69DB691D402D0CBD
:104B90003FF417AF04F59E68DFF890B0029104F27D
:104BA000445600274FF00109C24608E06D0807F19E
:104BB000010706F1040608F1280800F09181EA07D0
:104BC000F4D53068D4F80015836849690B40D9B230
:104BD000DB0740F1708194F8F334C0F80890012BA2
:104BE00007D10169D8F87C33C1F312015B1AC8F808
:104BF0008C33DBF8B439F9B25046984794F8F33463
:104C0000012BD3D1002FD1D194F80136052BCDD172
:104C1000D4F84435074919610749596119684FF0BB
:104C200080211960C2E700BF482E0020000000204C
:104C3000383300201800086004390020D4F80055EB
:104C4000D4F80825AB68C3F34103022B136814BFE3
:104C50000021032161F30A0313606B6843F480733E
:104C600006A86B60FEF7ACF8D4F8FC24079ED36866
:104C700023F47053D360A86810F0060FC0F341010D
:104C800000F03C819F49A0483144814240F2AE810E
:104C90009E48A6F57401A1F51051814240F2AA8107
:104CA0009B499C4831448142C0F0A8819A48A6F1B2
:104CB0008C71A1F54341814240F2A4819749984803
:104CC00031448142C0F0A2819649974831448142E3
:104CD000C0F0A0819548A6F1B771A1F55851814265
:104CE000C0F0A0819249934831448142C0F096813E
:104CF000914892493044884234BF0620052040251F
:104D0000012160F38D23D3604FF4005384F8F21433
:104D1000A4F8F45453617AE600238DF8133094F824
:104D200002368DF81330864B8648D3F8C839984739
:104D3000D4F80035D4F8FC24986894F8FA344FF489
:104D400000615161002B3FF44EAEC3077FF54BAEBF
:104D500094F80536012B7FF446AE9DF81330032BF3
:104D60007FF441AED4F8FC3577491A6842F001026D
:104D70001A601A6842F003021A600B6943F00603D6
:104D80000B6130E6D4F80065D4F8FC147368002792
:104D900023F0010373600597059B43F020030593FF
:104DA000059B67F38A130593059B0B61674BBC4614
:104DB0000A690592013B02D0059A9206F8D494F84C
:104DC000F12452B1624B03EB820EFF2253F8040F21
:104DD0008260D86B73458260F8D10B2363F30707B9
:104DE00063F3070C4FF0FF33B3614FF00113F3612E
:104DF0007761C6F810C03368564823F4FE63336009
:104E000094F8F324D4F84435012A18616FD04FF494
:104E100080534B614A4B4B48D3F8C4399847F3E56C
:104E2000D4F8FC349A6922F010029A611A6AC2F32B
:104E30004340022802F00F0100F09080062812D1B2
:104E400001EB810104EBC101D4F8C065D1F87C0805
:104E5000C2F30A1210443268C4F8BC2A3268C4F89B
:104E6000C02AC1F87C089A6942F010029A61C8E52C
:104E700094F8FA343BB1D4F8FC25136823F003000E
:104E800060F307031360D4F800252D4B2D48D3F8A9
:104E9000CC595368029123F001035360A847D4F81A
:104EA000FC3402994FF000425A6197E5010707D59B
:104EB000082393605BE68A0707D50223836075E6C3
:104EC000C3060FD51023936051E60B077FF56EAE36
:104ED000DBF8BC395046984733680821996065E68D
:104EE00002996EE5410679D5402393603FE61A4A60
:104EF0005A611A684FF080221A6088E74FF40075F3
:104F00000920FEE6401E1BFF3F420F00DFC81000D5
:104F10002013FBFE20D61300FF69180000D3CEFE3D
:104F200040771B00C05BB3FEC091210040AC27005E
:104F3000C01D6AFE40E13300803C36FEE09C41002B
:104F4000000000203833002000ED00E0410D030098
:104F50004C330020180008600439002047F6F07038
:104F6000104280D0C2F30A1201EB810004EBC000B2
:104F700002F1030C5FEAAC0CD0F87068D4F8C0E51D
:104F80004FEA810818BF002006D00130DEF800701B
:104F900046F8047B8445F8D1414404EBC101D1F8C3
:104FA00070081044C1F87008D1F87C081044C1F8AA
:104FB0007C0858E7BBF1000F7FF47EAD94F8013612
:104FC000042B7FF479ADD4F84435184A1A61184A95
:104FD0005A611A684FF080221A606DE5830758BF46
:104FE00081467FF569AD02239360C0E5012140252C
:104FF0000E2086E6012140250D2082E60121402574
:105000000C207EE6012140250B207AE60121402577
:105010000A2076E601214025092072E6012140257B
:1050200007206EE60121402508206AE61800086086
:105030000439002070B5194D194BC5F8E43A194BE5
:1050400085F8F01A002683F8276905F6E423C0E9FD
:1050500054330D23C0F8583140F201130446C0F810
:105060005C6100F5A271A0F8443174F073FE1F2357
:10507000C4E9EC36E378012205F214459342C4F802
:10508000A853A4F89C2308BFC4F8AC5304F5677177
:105090002046BDE8704074F05DBE00BF482E002081
:1050A00055534253501D0020F0B50B7813F06002A9
:1050B00083B004462BD0202A30D14A78FE2A39D03A
:1050C000FF2A2DD14A88002A3BD1CA88002A38D12C
:1050D0001F0636D46148624B80F82729C4F8B423F0
:1050E000E278012183F83414A4F89C1303F21443EA
:1050F0001F21012AC4F8B013C4F8A83304F567715E
:1051000008BFC4F8AC33204674F024FE06E04B78A8
:105110000A2B1AD00B2B08D0012B2AD0002002E03A
:1051200074F0AAFC022003B0F0BD4D4B4A8883F80E
:10513000F52AF3E74F8827B9CD88012D01D11B0649
:1051400042D4204674F098FCECE7022180F811115B
:105150004FF48071A0F81C1142490123C0E94A11A3
:10516000C0E94E33C0E94C3200F58E7174F090FD09
:10517000D4E78B88C0681E06DDB244D40192019A40
:10518000394B42F010020192019A026102690192C8
:10519000013B02D0019AD206F8D4314E294620466E
:1051A00074F0DCFC294696F8345402234022204651
:1051B00074F004FD022DB1D18121204674F094FCDD
:1051C000002386F83434A9E7254ED6F84C349B6981
:1051D0009847C0B286F8F40A0028B2D0022306F637
:1051E000F42684F811314FF48073C4E94E55C4E9B4
:1051F0004A66C4E94C57A4F81C3104F58E71204668
:1052000074F046FD8AE70092009A174B42F02002A4
:105210000092009A65F38A120092009A0261026974
:105220000092013B02D0009A9106F8D40C4E294618
:10523000204674F093FC294696F834540223402209
:10524000204674F0BBFC022DB6D0012D3FF466AFB2
:1052500001212046FFF7EEFE60E700BF501D002051
:10526000482E00203D390020410D030010B50D4BA4
:1052700093F82739022B07D0033B012B02D80021DA
:10528000FFF7D8FE002010BD074B93F82114044609
:1052900074F014FE0028F5DA01212046FFF7CAFE5B
:1052A000F0E700BF501D0020482E0020F8B53F4C0D
:1052B00094F8276905467EB1012E01D00020F8BD83
:1052C0003B4B93F8211474F0F9FD0028F6DA3146CF
:1052D0002846FFF7AFFEF1E7354FB0F8B433D7F803
:1052E0001C24C7F8EC2A1F2BD7F81824C7F8E82A83
:1052F00008D1304BD7F814249A4203D197F82114DF
:10530000012919D997F8F63A5A1CD2B207EBC30310
:10531000042A18BF1646052283F8F82A4FF40052D3
:105320002846C3F8FC2A022387F8F66A87F8343443
:10533000FCF792F80020F8BD97F82234013B0F2BC0
:10534000E0D874F0BBFD002827DB94F82739013B37
:10535000022BB3D9B7F8183B1BB3042284F82729D2
:10536000154AC5F85C61C5E95422D7F81C2487F8B2
:10537000F06A934228BF1346D7F8EC2AC5F8583193
:1053800040F20111A5F84411D21A05F5A271284680
:10539000C7F8EC2A74F0DEFC90E72846FCF75CF8CE
:1053A0008CE719462846FFF745FE87E7501D002089
:1053B000482E002055534243F067002010B54FEAB5
:1053C000511E024400EB8E0C624529D901F01F03E7
:1053D0004FF0FF3450F82E1004FA03F30B4093FA09
:1053E000A3F3B3FA83F3DBB2202B16D10CF1040143
:1053F0008A4202D817E08A4212D98C460431DCF87E
:10540000003093FAA3F3B3FA83F3DBB2202BF2D08C
:10541000ACEB000C03EBCC0010BD03EB4E1010BD49
:105420004FF0FF3010BD204610BD00BF036941683A
:1054300090ED067AF0B4C56A3B4E876853EA0102E4
:1054400004BFD6F8C81341606A1C30EE077A0133F6
:10545000012A80ED067A0361C26241D090ED075ABD
:10546000D0ED096AD6F8C84307EE902A70EE455A87
:10547000B8EEE76A611AC5EE867AB94277EE857AA8
:1054800030EE670AC0ED087AE5EE806AC0ED077A73
:10549000C0ED0A6AC0ED096A01D8F0BC7047012A64
:1054A0002ADD07EE905AF8EEE77A86EEA76AB5EEA7
:1054B000C06AF1EE10FA1FDBF1EEC67AF4EE677AFD
:1054C000F1EE10FA18D6D0ED056AF4EEE76AF1EEC7
:1054D00010FA14D5037BF3B10323F0BC03707047BB
:1054E000D6F8C82380ED080A521ABA424FF00001DC
:1054F00080ED070A4162D0D9DFED0C7AE3E707EED1
:10550000903AF8EE677A0223C7EE276AF0BC037080
:10551000C0ED066A7047D6F8C813416000220361E7
:105520008261C362B9E700BF482E0020000000007E
:10553000DFED504A10B5844600F1480E0346B1EC49
:10554000017AD3ED067ADA6A77EE877A0132012A98
:10555000C3ED067ADA6255D093ED075A93ED096AE6
:1055600007EE902A77EE455AF8EEE77AC5EEA76A7D
:1055700076EE857AF0EE466A37EE677AC3ED087A02
:10558000E5EE876AC3ED0A6AC3ED077AC3ED096ADF
:1055900018337345D3D1384C4168D4F8C823036914
:1055A000521A816801338A4203612AD990ED056A53
:1055B00000F1300EDCF82C20DCED0A6A012A02F141
:1055C000FF3126DD07EE901AF8EEE77A86EEA77A2D
:1055D000B5EEC07AF1EE10FA1BDBF1EEC77AF4EE0D
:1055E000677AF1EE10FA14D6E645B4EEE76A0CF1EC
:1055F000180C16D0F1EE10FADCD5037B6BB3032345
:10560000037010BDF0EE477AF0EE646A83ED087A1D
:10561000BAE7DFED187AE645B4EEE76A0CF1180C4C
:10562000E8D1F1EE10FAE8D407EE903AD0ED066A30
:1056300090ED0C7AD0ED125AF8EE677A022386EEDE
:10564000A76A0370C7EE276A85EEA77A80ED066A1F
:10565000C0ED0C6A80ED127A10BD0022D4F8C81398
:10566000416003618261C362026343648264C36513
:1056700010BD00BF00000000482E0020B0EEC06A40
:10568000F0EEE05AF4EEC65AF1EE10FAF0EE407A7F
:105690000EDCB5EE400AF1EE10FA4BD0F4EEC65A2D
:1056A000F1EE10FAF0EE466A50D5B0EE655A03E01E
:1056B000F0EE656AB0EE465A85EE267A9FED252A11
:1056C0009FED253A9FED254ADFED254ADFED252A9E
:1056D000DFED253ADFED256AA7EE023AE7EE223A42
:1056E000A7EE034AB7EE005AE7EE044AA7EE235AA4
:1056F000E7EE246AF4EEC65AB1EE667A87EE050A42
:10570000F1EE10FA48BF9FED1A7AF5EEC00A48BFD5
:1057100037EE400AF1EE10FA48BF9FED167AF5EE2B
:10572000C07A48BF37EE400AF1EE10FA48BFB1EE3A
:10573000400A7047DFED107A9FED100AF5EEC00ABF
:10574000F1EE10FA58BFB0EE670A7047B0EE465A55
:10575000B2E700BF39094E3DE3B59EBE88FA16BEDA
:1057600045FE7FBF99FB243F69A2163EA7DFA8B480
:10577000DB0FC93FDB0F4940A7DFA834DA0F4940F0
:1057800091ED007AD0ED047A90ED054AD0ED064A0D
:1057900090ED075AD0ED085A90ED096AD0ED0A6AEB
:1057A000E7EE077AF7EE003AC0ED047A91ED007A61
:1057B000D1ED017AA7EE274A90ED0B7A80ED054AEC
:1057C00091ED024A91ED003AD0ED0C7AE3EE044AF5
:1057D000C0ED064AD1ED004A35EE245A80ED075A55
:1057E000D1ED014A91ED005AE4EE855AC0ED085A18
:1057F000D1ED015AA5EEA56A80ED096AD1ED015AF5
:1058000091ED026AE5EE866AC0ED0A6AD1ED016AA1
:1058100037EE267A80ED0B7AD1ED026A91ED007AAF
:10582000E6EE877AC0ED0C7A91ED026AD1ED016A5D
:10583000D0ED0D7A90ED0E7A90ED0F4AD0ED104A32
:1058400090ED115AD0ED135AE6EE267A75EEA35A72
:10585000C0ED0D7AD1ED026AD0ED127A90ED006ABA
:10586000A6EEA67AD0ED016A80ED0E7A91ED027A6D
:1058700034EE074A90ED027A80ED0F4A91ED004A2E
:1058800074EE844AC0ED104AD1ED014A35EE245A37
:1058900080ED115A91ED025AC0ED135A77EE857AD8
:1058A000C0ED127AD1ED017AD1ED005A91ED025A94
:1058B00067EEA77AE5EEA57AE5EE057AA5EEA76A8A
:1058C00080ED006A91ED016AE6EE276AC0ED016A9B
:1058D000D1ED026AA6EEA77A80ED027A90ED037A06
:1058E00077EE277AC0ED037A704700BF2DE9F04FBD
:1058F0004FF0000989B0864600F1100506460346C0
:1059000000F13008074648462C46CDF80CE08B469F
:105910009C46B24600283CD10CF1040CA445FBD1B6
:10592000032800F1010151D09C46AA46029398B188
:10593000DCED047A0192AAEB0903B6467246F3EC59
:10594000016A92ED007AE6EEC77A53450EF1100E29
:10595000CCED047AF2D1019ADCED046A15ED047AFB
:10596000C6EE877A0CF1100CC4450AF1100ACCED92
:10597000007ADCD1029B04361433084608F104088F
:1059800014351034103709F104099C46B24600283A
:10599000C2D0DCED007A0192D64639467246F1EC6F
:1059A000016A92ED007AE6EEC77A99420EF1100E86
:1059B000CCED007AF2D10CF1040CA445019A0AF165
:1059C000040AE6D1032800F10101ADD1DDF80CE0B5
:1059D000002359460493059306930793764677462A
:1059E00004AD0020F2EC017AE5EC017AB0B104AC30
:1059F0003B46B4EC017AF3EC016AE6EEC77AB342B7
:105A000045ED017AF5D1013004280BD0F2EC017A92
:105A100010371436E5EC017A0028E8D11037143637
:105A20000120DFE708AD75ED017A10310EF1400E6F
:105A300004287446A1F1040241ED017A1ED0734698
:105A4000F3EC016AB1EC017AE6EEC77AA342C2ED4B
:105A5000007AF5D15EED016A87EEA67A013882ED13
:105A6000007A17D0AEF1140E103C114675ED017A94
:105A70000428A1F1040241ED017AE0D15EED016A52
:105A800087EEA67A103CAEF1140E032001ED017AE8
:105A90001146EBE709B0BDE8F08F00BFDFED297AD2
:105AA000B4EEE70AF1EE10FA28DD9FED277A30EE2A
:105AB000470AB4EEE70AF1EE10FAF8DCDFED237ADC
:105AC000B4EEE70AF1EE10FA2FDD30EE670A37EE9A
:105AD000C00A60EE007A9FED1E7A9FED1E6ADFED30
